:020000040000fa
:080000000002040000000000f2
:020000040000fa
:04000800be0b00002b
:020000040000fa
:04000c00be0b000027
:020000040000fa
:04001000be0b000023
:020000040000fa
:04001400be0b00001f
:020000040000fa
:04001800be0b00001b
:020000040000fa
:04001c00be0b000017
:020000040000fa
:04002000be0b000013
:020000040000fa
:04002400be0b00000f
:020000040000fa
:04002800be0b00000b
:020000040000fa
:04002c00be0b000007
:020000040000fa
:04003000be0b000003
:020000040000fa
:0400340024030000a1
:020000040000fa
:04003800be0b0000fb
:020000040000fa
:04003c00be0b0000f7
:020000040000fa
:04004000be0b0000f3
:020000040000fa
:04004400be0b0000ef
:020000040000fa
:04004800be0b0000eb
:020000040000fa
:04004c00be0b0000e7
:020000040000fa
:04005000be0b0000e3
:020000040000fa
:04005400e4020000c2
:020000040000fa
:04005800dc020000c6
:020000040000fa
:04005c00be0b0000d7
:020000040000fa
:04006000be0b0000d3
:020000040000fa
:04006400be0b0000cf
:020000040000fa
:04006800be0b0000cb
:020000040000fa
:04006c00be0b0000c7
:020000040000fa
:04007000be0b0000c3
:020000040000fa
:04007400be0b0000bf
:020000040000fa
:04007800be0b0000bb
:020000040000fa
:04007c00be0b0000b7
:020000040000fa
:04008000be0b0000b3
:020000040000fa
:04008400be0b0000af
:020000040000fa
:04008800be0b0000ab
:020000040000fa
:04008c00be0b0000a7
:020000040000fa
:04009000be0b0000a3
:020000040000fa
:04009400be0b00009f
:020000040000fa
:04009800be0b00009b
:020000040000fa
:04009c00be0b000097
:020000040000fa
:0400a000be0b000093
:020000040000fa
:0400a400be0b00008f
:020000040000fa
:0400a800be0b00008b
:020000040000fa
:0400ac00be0b000087
:020000040000fa
:0400b000be0b000083
:020000040000fa
:0400b400be0b00007f
:020000040000fa
:0400b800be0b00007b
:020000040000fa
:0400bc00be0b000077
:020000040000fa
:0400c000be0b000073
:020000040000fa
:0400c400be0b00006f
:020000040000fa
:0400c800be0b00006b
:020000040000fa
:0400cc00be0b000067
:020000040000fa
:0400d000be0b000063
:020000040000fa
:0400d400be0b00005f
:020000040000fa
:0400d800be0b00005b
:020000040000fa
:0400dc00be0b000057
:020000040000fa
:0400e000be0b000053
:020000040000fa
:0400e400be0b00004f
:020000040000fa
:0400e800be0b00004b
:020000040000fa
:0400ec00be0b000047
:020000040000fa
:0400f000be0b000043
:020000040000fa
:0400f400be0b00003f
:020000040000fa
:0400f800be0b00003b
:020000040000fa
:0400fc00be0b000037
:020000040000fa
:04010000be0b000032
:020000040000fa
:04010400be0b00002e
:020000040000fa
:04010800be0b00002a
:020000040000fa
:04010c00be0b000026
:020000040000fa
:04011000be0b000022
:020000040000fa
:04011400be0b00001e
:020000040000fa
:04011800be0b00001a
:020000040000fa
:04011c00be0b000016
:020000040000fa
:04012000be0b000012
:020000040000fa
:04012400be0b00000e
:020000040000fa
:04012800be0b00000a
:020000040000fa
:04012c000a030000c2
:020000040000fa
:04013000be0b000002
:020000040000fa
:04013400be0b0000fe
:020000040000fa
:04013800be0b0000fa
:020000040000fa
:04013c00be0b0000f6
:020000040000fa
:04014000be0b0000f2
:020000040000fa
:04014400be0b0000ee
:020000040000fa
:04014800be0b0000ea
:020000040000fa
:04014c00be0b0000e6
:020000040000fa
:04015000be0b0000e2
:020000040000fa
:04015400be0b0000de
:020000040000fa
:04015800be0b0000da
:020000040000fa
:04015c00be0b0000d6
:020000040000fa
:04016000be0b0000d2
:020000040000fa
:04016400be0b0000ce
:020000040000fa
:04020800be0b000029
:020000040000fa
:04020c00be0b000025
:020000040000fa
:04021000be0b000021
:020000040000fa
:04021400be0b00001d
:020000040000fa
:04021800be0b000019
:020000040000fa
:04021c00be0b000015
:020000040000fa
:04022000be0b000011
:020000040000fa
:04022400be0b00000d
:020000040000fa
:04022800be0b000009
:020000040000fa
:04022c00be0b000005
:020000040000fa
:04023000be0b000001
:020000040000fa
:04023400be0b0000fd
:020000040000fa
:04023800be0b0000f9
:020000040000fa
:04023c00be0b0000f5
:020000040000fa
:04024000be0b0000f1
:020000040000fa
:04024400be0b0000ed
:020000040000fa
:04024800be0b0000e9
:020000040000fa
:04024c00be0b0000e5
:020000040000fa
:04025000be0b0000e1
:020000040000fa
:04025400be0b0000dd
:020000040000fa
:04025800be0b0000d9
:020000040000fa
:04025c00be0b0000d5
:020000040000fa
:04026000be0b0000d1
:020000040000fa
:04026400be0b0000cd
:020000040000fa
:04026800be0b0000c9
:020000040000fa
:04026c00be0b0000c5
:020000040000fa
:04027000be0b0000c1
:020000040000fa
:04027400be0b0000bd
:020000040000fa
:04027800be0b0000b9
:020000040000fa
:04027c00be0b0000b5
:020000040000fa
:04028000be0b0000b1
:020000040000fa
:04028400be0b0000ad
:020000040000fa
:04028800be0b0000a9
:020000040000fa
:04028c00be0b0000a5
:020000040000fa
:04029000be0b0000a1
:020000040000fa
:04029400be0b00009d
:020000040000fa
:04029800be0b000099
:020000040000fa
:04029c00be0b000095
:020000040000fa
:0402a000be0b000091
:020000040000fa
:0402a400be0b00008d
:020000040000fa
:0402a800be0b000089
:020000040000fa
:0402ac00be0b000085
:020000040000fa
:0402b000be0b000081
:020000040000fa
:0402b400be0b00007d
:020000040000fa
:0402b800be0b000079
:020000040000fa
:0402bc00be0b000075
:020000040000fa
:0402c000be0b000071
:020000040000fa
:0402c400be0b00006d
:020000040000fa
:0402c800be0b000069
:020000040000fa
:0402cc00be0b000065
:020000040000fa
:0402d000be0b000061
:020000040000fa
:0402d400be0b00005d
:020000040000fa
:0402d800be0b000059
:020000040000fa
:0402dc00be0b000055
:020000040000fa
:0402e000be0b000051
:020000040000fa
:0402e400be0b00004d
:020000040000fa
:0402e800be0b000049
:020000040000fa
:0402ec00be0b000045
:020000040000fa
:0402f000be0b000041
:020000040000fa
:0402f400be0b00003d
:020000040000fa
:0402f800be0b000039
:020000040000fa
:0402fc00be0b000035
:020000040000fa
:04030000be0b000030
:020000040000fa
:04030400be0b00002c
:020000040000fa
:04030800be0b000028
:020000040000fa
:04030c00be0b000024
:020000040000fa
:04031000be0b000020
:020000040000fa
:04031400be0b00001c
:020000040000fa
:04031800be0b000018
:020000040000fa
:04031c00be0b000014
:020000040000fa
:04032000be0b000010
:020000040000fa
:04032400be0b00000c
:020000040000fa
:04032800be0b000008
:020000040000fa
:04032c00be0b000004
:020000040000fa
:04033000be0b000000
:020000040000fa
:04033400be0b0000fc
:020000040000fa
:04033800be0b0000f8
:020000040000fa
:04033c00be0b0000f4
:020000040000fa
:04034000be0b0000f0
:020000040000fa
:04034400be0b0000ec
:020000040000fa
:04034800be0b0000e8
:020000040000fa
:04034c00be0b0000e4
:020000040000fa
:04035000be0b0000e0
:020000040000fa
:04035400be0b0000dc
:020000040000fa
:04035800be0b0000d8
:020000040000fa
:04035c00be0b0000d4
:020000040000fa
:04036000be0b0000d0
:020000040000fa
:04036400be0b0000cc
:020000040000fa
:10040000af9c20000e7f24000e0188000000000039
:10041000000020000000e000020032000001200087
:1004200020028800140007004b0507000000e000d0
:1004300003003a00606a2200010020000200370039
:100440000000200001002000810f70000100320038
:1004500014000700000020000000e000020032004d
:100460000000020000000000b625020000000000ad
:100470000040da000000fe004440a9000001200016
:100480000000e0000300320000002000a00188000e
:100490004440a800000006008a1f78008b1f7800e7
:1004a0000000060091018800800478000000eb0045
:1004b0001a003700e284440032a0b4009905ba0063
:1004c000e284440032a0b4009906ba00e2844400f9
:1004d00032a0b4000006eb00476fde00fd07b2005b
:1004e000636ce10003003a00ebff07000000eb0043
:1004f0000a003700606ce10004003a00005deb0088
:100500008b05e900fdff3e00040037006168e10053
:10051000010032000086eb000b00070019c7ba008b
:100520001905ba000e04e00003003a000a00e000da
:10053000e0ff3a0000000600fe07b2009e018800be
:100540008a047800f5ff3700395dba008b05e900b1
:100550000c003200295dba008b05e900080032006a
:100560000c00e00003003a00e284440032a0b40032
:10057000f5ff370019ddba008b05e900faff3a00f4
:100580008904e800e184440032a0b40000000600c1
:10059000000000000000000000000000000000005b
:1005a000000000000000000000000000000000004b
:1005b00000000000000000000000fa008580a90093
:1005c0000080fa00004006003600f800809fbe0060
:1005d000829fbe00849fbe00869fbe000200fa007c
:1005e00030118000004f78001e4078003e0e07005a
:1005f000004088008560a9000080fa004f03be001b
:100600004f02be004f01be004f00be003600f90091
:1006100000400600801f78000000fa0010118000e2
:10062000620060000000e000020032002222a90007
:1006300001003700000000008c20a9000080fa00b3
:100640004f007800004006003600f800809fbe0092
:10065000829fbe00849fbe00869fbe00889fbe0012
:100660008a9fbe008c1f78004200fa00a4458000db
:10067000b545800010438000214380000001be008a
:100680000400be006c0607000002be00104380009c
:10069000214380000001be000400be006606070082
:1006a0000004be00c4458000d54580001043800092
:1006b000214380000001be000400be005e0607006a
:1006c0000002be0010438000214380000001be00f4
:1006d0000400be00580607000002be001043800060
:1006e000214380000001be000400be005206070046
:1006f0000001be000800be00990407000002be0011
:1007000060458000714580000001be000400be000d
:10071000490607000002be00104080002140800012
:100720000001be000400be008d04070030408800b8
:1007300041408800a4458000b545800010438000fa
:10074000214380000001be000400be003a060700fd
:100750000002be0010438000214380000001be0063
:100760000400be00340607000004be00c44580003b
:10077000d545800010438000214380000001be0069
:100780000400be002c0607000002be0010438000db
:10079000214380000001be000400be0026060700c1
:1007a0000002be0010438000214380000001be0013
:1007b0000400be00200607000001be000800be00c5
:1007c000670407000002be0080458000914580005c
:1007d0000001be000400be00170607000002be00b4
:1007e00050408000614080000001be000400be0057
:1007f0005b0407007040880081408800a0458000ad
:10080000b14580000001be00550407000002be0093
:1008100010438000214380000001be000400be00a0
:10082000050607000004be00c0458000d1458000d9
:100830000200200003042400ff0507000002be00a0
:1008400010438000214380000001be000400be0070
:10085000f90507000002be0010438000214380001c
:100860000001be000400be00f30507000001be0049
:100870000800be003a0407000002be006045800088
:10088000714580000001be000400be00ea050700bb
:1008900090408800a1408800a0458000b1458000bc
:1008a0000001be002e0407000002be0010438000bd
:1008b000214380000001be000400be00de050700e9
:1008c0000004be00c0458000d14580000200200029
:1008d00003042400d80507000002be001043800076
:1008e000214380000001be000400be00d2050700c5
:1008f0000002be0010438000214380000001be00c2
:100900000400be00cc0507000001be000800be00c8
:10091000130407000002be0080458000914580005e
:100920000001be000400be00c3050700b0408800ff
:10093000c1408800200f80008000eb00690507009f
:10094000228220000089be00a00f80008000eb0002
:1009500064050700228220002001980031019800e0
:1009600024fb840035fb840020fb840031fb8400e1
:100970000001be000400be00af050700100798008c
:100980002107980024fb840035fb840020fb8400b1
:1009900031fb84000001be000400be00a605070074
:1009a0000002be0020fb840031fb84000001be0079
:1009b0000400be00a005070030079800410798001a
:1009c00024fb840035fb840020fb840031fb840081
:1009d0000001be000400be00970507000002be0033
:1009e00020fb840031fb84000001be000400be0037
:1009f000910507000002be0020fb840031fb84004b
:100a00000001be000400be008b05070050079800df
:100a100061079800208220001002be00a0852000ff
:100a20001000be000001be000400be00cb030700a2
:100a30000002be0020fb840031fb84000001be00e8
:100a40000400be00a5040700628620000089be00e5
:100a50002082200020029000b0029000a08520009b
:100a6000b0009000200090000001be000400be0015
:100a7000ba0307000002be0020fb840031fb8400a3
:100a80000001be000400be0094040700628620003e
:100a900020019800310198000040eb00004f7800e1
:100aa000cb0137001e80fb00818d20004200dd005d
:100ab000008040001002be001e80fb00818d2000df
:100ac0004200dd00008040001000be000001be00ba
:100ad0000400be005805070070079800010f980039
:100ae0001e80fb00018e20004200dd0000804000df
:100af0001002be001e80fb00018e20004200dd00bf
:100b0000008040001000be000001be000400be00d6
:100b100049050700100f9800210f98001e80fb0068
:100b2000618720004200dd00008040001004be000c
:100b30001e80fb00e18720004200dd0000804000b5
:100b40001002be0020fb840031fb84000001be00c7
:100b50000400be00380507000001be000800be000a
:100b60007f030700300f9800410f98001e80fb00a4
:100b7000e18720004200dd00008040001000be0040
:100b80006011b80076030700500f9800610f9800bd
:100b90001e80fb00618620004200dd0000804000d6
:100ba0001000be005e099000ee0990006b03070084
:100bb000700f9800011798001e86fb001e80fb0036
:100bc000818e20004200dd00008040001004be0045
:100bd0001e80fb00e18820004200dd000080400014
:100be0001002be0020fb840031fb84000001be0027
:100bf0000400be00100507000001be000800be0092
:100c0000570307000004be005e019000ee01900053
:100c10007e0090008e08900007050700020020006b
:100c2000030824002d0407000001be000800be00d8
:100c30004b0307000004be001e80fb0061882000fb
:100c40004200dd00008040001005be001e80fb0059
:100c5000018f20004200dd00008040001002be0035
:100c600020fb840031fb84000001be000400be00b4
:100c7000f10407000001be000a00be0038030700af
:100c80001e019000ae019000eb0407000002be00c0
:100c900020fb840031fb84000001be000400be0084
:100ca0000e0407000001be000800be002c03070070
:100cb000838e20004261dd00028141000089be0078
:100cc0001e85fb001e80fb00618820004200dd00c5
:100cd000008040001004be001e80fb00018f200039
:100ce0004200dd00008040001002be0020fb8400b6
:100cf00031fb84000001be000400be00ce040700ea
:100d00000001be000800be00150307000004be007d
:100d10003e019000ce0190007e0090008e08900071
:100d2000c50407000200200003002400eb030700b5
:100d30000001be000800be00090307006388200010
:100d40004251dd00028141000089be001e85fb008a
:100d500020fb840031fb84000001be00000307007b
:100d60000002be001e80fb00e18820004200dd0082
:100d7000008040001000be000001be000400be0064
:100d8000ad0407000004be001e019000ae019000fb
:100d90007e0090008e089000a70407000001be00ae
:100da0000800be00ee0207000004be001e80fb002b
:100db000018f20004200dd00008040001000be00d6
:100dc0000001be00e60207001e019000ae01900087
:100dd000990407000001be000800be00e002070001
:100de0000004be0020fb840031fb84000001be0033
:100df000db0207000001be000800be00b7030700c9
:100e0000e38820004251dd00028141000089be00dc
:100e10001e84fb001e019000ae0190007e00900039
:100e20008e089000840407000002be001e80fb00b4
:100e3000018f20004200dd00008040001000be0055
:100e40000001be000400be00c5020700038f2000a1
:100e50004241dd00028141000089be001e80fb008e
:100e6000618820004200dd00008040001000be00cc
:100e70007e0990008e1190006f0407000004be00f0
:100e80001e80fb00018f20004200dd00008040003a
:100e90001000be001e099000ae099000b0020700cd
:100ea0000001be000800be008c0307000001be0068
:100eb0003e089000ce089000a9020700300f98006d
:100ec000410f98001e80fb00018f20004200dd00d2
:100ed000008040001000be007e0990008e1190003e
:100ee000550407000004be001e80fb00018f200097
:100ef0004200dd00008040001000be001e0990008e
:100f0000ae099000960207000001be000800be0076
:100f1000720307000001be005e089000ee0890001a
:100f20008f020700500f9800610f98001e86fb008b
:100f30001e80fb00818e20004200dd00008040000a
:100f40001004be001e80fb00618820004200dd000e
:100f5000008040001002be001e80fb00e1882000df
:100f60004200dd00008040001000be000001be0015
:100f70000400be00300407000005be001e80fb0018
:100f8000018f20004200dd00008040001000be0004
:100f90001e099000ae099000710207000001be001a
:100fa0000a00be004d0307000001be000800be009d
:100fb0006a020700838e20004261dd000281410049
:100fc0000089be001e86fb001e80fb006188200099
:100fd0004200dd00008040001004be001e80fb00c7
:100fe000618820004200dd00008040001002be0049
:100ff0001e80fb00018f20004200dd0000804000c9
:101000001000be000001be000400be000a0407007c
:101010000005be001e80fb00018f20004200dd00a5
:10102000008040001000be001e099000ae09900034
:101030004b0207000001be000a00be0027030700a4
:101040000001be000800be004402070063882000c3
:101050004261dd00028141000089be001e86fb0066
:101060001e80fb00e18820004200dd00008040007f
:101070001000be000004be0009f0a2001e80fb00ac
:10108000018f20004200dd00008040001005be00fe
:101090001e80fb00018f20004200dd000080400028
:1010a0001000be001e099000ae0990002c0207003f
:1010b0000001be000a00be00080307000200200075
:1010c00003f82300250207000001be000800be004f
:1010d000d9030700e38820004261dd00028141005e
:1010e0000089be001e86fb001e80fb00018f2000d1
:1010f0004200dd00008040001000be000004be0081
:1011000009f0a2001e80fb00018f20004200dd00dc
:10111000008040001005be001e80fb00018f2000f3
:101120004200dd00008040001000be001e0990005b
:10113000ae0990000a0207000001be000a00be00ce
:10114000e60207000200200003f823000302070064
:101150000001be000800be00b7030700038f200097
:101160004261dd00028141000089be001e81fb005a
:101170001e80fb00218220004200dd000080400034
:101180001000be00a38520004211dd000281410055
:101190000089be001e80fb00618720004200dd0048
:1011a000008040003e099000ce0990000288be00f9
:1011b0001e80fb00e18720004200dd00008040002f
:1011c0005e099000ee0990000288be001e4fe80004
:1011d0001e407800e14f500032fe36006000b8003b
:1011e0001017980021179800000020000104240027
:1011f0003017980041179800a0702d0031c22300cd
:101200005017980061179800a0702d0031c223007c
:1012100070179800011f98006000b800101f980018
:10122000211f98000000200001042400301f9800b6
:10123000411f9800a0702d0031c22300501f98005c
:10124000611f9800a0702d0031c22300701f98000c
:1012500001279800200f80008000eb002103070089
:10126000228220000089be0034408000454080007a
:10127000208220001000be000001be000400be005d
:10128000b6010700a28120000089be00a0812000d5
:101290001000be001e119000ae1190006603070002
:1012a000a28220000089be00a08220001002be00a1
:1012b00090408000a14080000001be000400be00fc
:1012c000a7010700228320000089be0020832000a0
:1012d0001002be00e08720001000be000001be002a
:1012e0000400be009d010700a28320000089be000b
:1012f000a08420001002be00a08320001000be00c9
:101300000001be000400be0095010700a284200079
:101310000089be00a08320001000be003e11900096
:10132000ce1190004403070002002000a33f2400d8
:101330008b0107000004be00a08420001000be0046
:101340005e119000ee1190003b0307000001be000b
:101350000800be00820107000004be00a083200038
:101360001002be00208520001000be000001be005b
:101370000400be00790107007e1190008e199000d4
:101380002d0307000001be000800be007401070025
:10139000228420000089be00a00f80008000eb00a6
:1013a000d00207002282200020019800310198001d
:1013b000744080008540800020822000b0009000b2
:1013c000200090000001be000400be006301070081
:1013d000a28120002001980031019800a081200006
:1013e000b0009000200090001e199000ae199000ef
:1013f00011030700a282200020019800310198000b
:10140000a082200020029000b0029000b040800036
:10141000c14080000001be000400be005001070072
:1014200022832000200198003101980020832000b1
:1014300020029000b0029000e0872000b0009000f1
:10144000200090000001be000400be004301070020
:10145000a28320002001980031019800a084200080
:1014600020029000b0029000a0832000b000900005
:10147000200090000001be000400be0038010700fb
:10148000a28420002001980031019800a083200050
:10149000b0009000200090003e199000ce199000fe
:1014a000e502070002002000a33f24002c010700f2
:1014b0000004be00a0842000b00090002000900036
:1014c0005e199000ee199000db0207000001be00db
:1014d0000800be00220107000004be00a083200017
:1014e00020029000b002900020852000b000900003
:1014f000200090000001be000400be00170107009c
:101500007e1990008e219000cb0207000001be00e2
:101510000800be001201070022842000200198006c
:1015200031019800208420001000be0018c0b300d4
:1015300002002400c36124002c0207000000e00028
:1015400001003c000044eb000804e000040032000d
:1015500061552200007122000100010015003700d2
:10156000208420001000be0018c0b3000200240038
:10157000c3612c001b0207000000e00001003500e1
:101580000044eb000804e000040032006155220032
:10159000008f2d0001000100060037006855220071
:1015a000208420001000be00120207000000780016
:1015b0000800010020842000b0009000200090006e
:1015c00018c0b30002002400c36124000702070012
:1015d0000000e00001003c000044eb000804e000d3
:1015e00004003200a152220000712200010001001b
:1015f0001700370020842000b000900020009000e9
:1016000018c0b30002002400c3612c00f5010700dc
:101610000000e000010035000044eb000804e00099
:1016200004003200a1522200008f2d0001000100b1
:1016300007003700a852220020842000b00090004c
:1016400020009000eb010700000078000800010076
:10165000a08320001000be00228520000089be006b
:10166000a0832000b0009000200090002285200080
:101670002001980031019800144380002543800028
:10168000e0448000f144800018c0b3000001be00b7
:101690000400be00d30107000000e0000100350097
:1016a0000044eb000804e0000a003200144380000c
:1016b0002543800020fb840031fb84000001be0034
:1016c0000400be00a60007001043880021438800e4
:1016d0001d003700e0448000f14480001043880082
:1016e00021438800a28420006000b8000089be0069
:1016f000a28420006000b800200198003101980009
:10170000615522000000eb0001000100a1522200ff
:101710000000eb0001000100208220001000be004c
:10172000104088002140880020822000b0009000f6
:1017300020009000504088006140880005e1a90029
:10174000a0ccb3005d0b070010c0b300cfe8b7001a
:101750008460a9000080fa004f0678004f05be00a3
:101760004f04be004f03be004f02be004f01be003b
:101770004f00be003600f900004006000040da00cd
:101780000000fe000a00fa0011002000b1bf9f0017
:10179000c0bf9f006a8057009b0807004fb89700a2
:1017a0000080fa00000006000a00fa00e20f500074
:1017b00034003e00304e8000e10f50000300320044
:1017c000e20f500011003a000c0037000322200005
:1017d0000300e00001003a000040da002002e200cd
:1017e000020035002822ef0021e2a8002342ab00ce
:1017f0000d003a002342a8000b003700032320000d
:101800000300e00001003a000040da003002e2008c
:10181000020035003822ef0031e2a8003342ab006d
:1018200001003a003342a800820178000b00370023
:101830003102fb00e10f500004003a002322ab000c
:10184000feff3a0024118800030037003322ab006a
:10185000feff3a00a41188008301e9000300e000c4
:10186000f3ff3a00e10f500003003a002302ab00ff
:10187000feff32000b0037003302ab00feff3200e8
:101880000800370033002000b3bf9f00c0bf9f0097
:10189000d1bf9f00e2bf9f006a8057005c0807002d
:1018a0006fb99700020078000080fa00000006007f
:1018b0000a00fa0051002000b1bf9f00c0bf9f0086
:1018c0006a805700540807005fb897000080fa004c
:1018d00000000600889fbe0080047800404e800013
:1018e0000000e00004003a000e0007000084eb0056
:1018f0000000e00008003500484e80000900e000cc
:101900000500320009004400060007000000e00066
:1019100001003d000084eb00080078004f04be0089
:1019200000000600800078000100e00003003a009b
:1019300000002000404e8800000005000080eb0001
:1019400002002000828f500002003e00414e8800bd
:101950000000eb00000006000000050003f0a200fc
:10196000889fbe008a9fbe008c1f78009a010700e6
:10197000a10133006450e1004f0032006420e10017
:101980005200320003826c0007003b000905d000c2
:101990000306d000820f54000c065d0002003900df
:1019a0000200320089017800030678008582550024
:1019b00004003d000003fd008103fd008502ea00f4
:1019c0008b854200840f720002003b006000100013
:1019d000e08018006011b8000005eb007a28e100f3
:1019e0000a00390006007800c75ddd00f707b20085
:1019f000878075002d003700828171000a01780010
:101a0000610560008180d1000080d3008502e9007b
:101a1000f9ff3b00060440008784480002003b00b9
:101a200060041400e0841c000988a3000700320051
:101a30008a81710082817100610164008904d10092
:101a40000884d3008b05e800170037000978a3004d
:101a500013003a000b00e000130034008b05e9008e
:101a60000804440089844c000a4474000978a300e7
:101a70000d003a000b00e000070034008b05e90080
:101a80000804440089844c0001003a000b00200047
:101a90000978a300f7ff32000001eb0002003700d5
:101aa000828171000a017800100107000cf0a70084
:101ab00001f0a000590137006420e10002003a0063
:101ac000838f6c00590133000801be000200be0084
:101ad00052013700889fbe008a9fbe008c1f78008d
:101ae0003d0107001002200002003b00c0478800b3
:101af000410137008a0062006408e10002003a00f8
:101b0000c0478800490137006108e100fcff32004e
:101b10000800be00030478007000070001f0a10077
:101b20000900070008f0a600040037000001be000d
:101b300091042400b0fd200088ff070009f0a700f1
:101b400001f0a20035013700889fbe008a9fbe00c9
:101b50008c9fbe000004be000a0107000800be0002
:101b6000890678006420e100080039000400320092
:101b70000160a00012022000c24788005300370015
:101b800091fc2300b0fd20004e0037000006eb0062
:101b900009f0a10003f82300020020000800be00a5
:101ba000900007000600340001f823000000200028
:101bb0000801be00490007000004be002c00200000
:101bc0000800be0093e82300320a230085000700c6
:101bd000120034000801be00d1fd2300703d2b002f
:101be0005fff07000005be00b3f32300f27a260072
:101bf0000800be001001070003f8230002002000c7
:101c000056ff07000801be0055ff07000a01be008d
:101c1000320007000004be000c06e8000800be0009
:101c200001f0a10002002000039823006d000700ce
:101c30000800be00160035000801be00fe000700c7
:101c40000005be0032cd2c0043fb230044ff0700fb
:101c5000809fbe001269280003d52b000a00be0039
:101c6000f5000700620f210013ef2b003cff070077
:101c70000a01be00f00007004f01be001700070078
:101c80000801be00ec0007000801be0034ff070099
:101c90000c00e0000b0032000c10a70001f0a200c5
:101ca000b2fd200093fc23006260e10004003200da
:101cb00022a9200063f023000c10a70063f8230082
:101cc00027ff07000df0a70001f0a2004f06be009d
:101cd0004f05be004f04be0000000600889fbe00f6
:101ce0008a9fbe008c1f7800bb000700c200330033
:101cf00003866c006450e1002e0032006420e10095
:101d0000330032006150e1002f0032006120e10019
:101d10003100320085855500eb07b0000900200036
:101d200008042000050037000804440089844c00a2
:101d30000a0031000603430087834b000001530073
:101d400081815b00f8ff33000203be000800a000a1
:101d50000804440089844c00f6ff3900c639dd00d0
:101d60008301730001003200130020008904d100b8
:101d70000884d3000998a300050032000800a700da
:101d80000300a0008904d1000884d3008b05e8007b
:101d90008904d1000884d3000001eb000281d20045
:101da0005200070001f0a1000cf0a70001f0a00014
:101db0009a0037006420e1009c0032000801be0058
:101dc0000200be00f7ff37006120e10097003200fb
:101dd0006000b800f3ff37000000200001f8270082
:101de000f0ff370014002000fc003700f4ff2f0044
:101df000fa0037000001be00620007000470a7006f
:101e000003f0a1006509b100160032000d00350095
:101e10006828e10006003500f0ff2f00f1ff2700e1
:101e20000300e00013003b00010028000000050053
:101e300000004000818048008502e900fcff3a0074
:101e400008003700f88f420002003c008000eb00e1
:101e5000000005008100d1000080d3008502e80069
:101e6000fcff3a000300e00002003b0060001000ad
:101e7000e0801800000006000001be0041000700dd
:101e80000470a70003f0a10003f8a30013003a00b8
:101e90006509b10010003200090035006928e10031
:101ea000020035000100280000000500000040008d
:101eb000818048008502e900fcff3a00000006002e
:101ec000f88f4200050035008100d1000080d3006a
:101ed0008502e800fcff3a00000006008000eb00ed
:101ee000000005006011b800d70037008100200015
:101ef000618055000b003d000b00200061fe2f00ab
:101f00000100e1001d003400828171006101640064
:101f10008904d1000884d3000000e800faff3a00e9
:101f20007100200061006400030070000200600086
:101f30000900320061044400e0844c000988a500d7
:101f4000050032008b05e8006808e10002003a0055
:101f50008904d1000884d300f20f20000258e10068
:101f600005003d00c75ddd00f907b20089807500fe
:101f700008007800000006000bf827008b007800ae
:101f800000000500c70ade00f107b200f50fb2003d
:101f900008003200e1cf4200020032000170a000d0
:101fa00024000500810f70000100320004080500c4
:101fb00044000500810f700002003a001400050083
:101fc0008502e9000000400081c04800fcff3b00a2
:101fd0000170a000240005000004be00e9ff070016
:101fe0000003be000405be000200be00e5ff0700be
:101ff000844f7500000006000200be006450e1003e
:10200000050036006420e100020036000968a300e4
:1020100001003a000800be000160a0004f067800f1
:102020004f05be004f04be0000000600f0ff2f0069
:10203000f1ff2700f9ff3700889fbe008a9fbe008e
:102040008c1f7800e4ff0700ebff330003866c0071
:102050006450e100240032006420e10027003200d7
:102060006150e100220032006120e10021003200d5
:102070008b854200eb07b1000134b800003ab8008c
:102080000804420089844a00013ab8000030b800d0
:102090008880400009014a0004003300000040002d
:1020a00081804800020149008b05e900c909dd0073
:1020b000830170000100320013002000c814de000c
:1020c0004814dd004709de001200b200c808de0037
:1020d0000884700085ff070001f0a1000cf0a70044
:1020e00001f0a000cdff37006120e100cfff3200fa
:1020f0000801be000200be00f7ff37006150e1009a
:10210000fcff3a00c9ff3700889fbe008a9fbe00cf
:102110008c1f78000004be009aff07000478a3001b
:1021200026003a006120e1002500320009f8a300f2
:1021300025003a006420e10021003200f507b100db
:102140000508a30002003200000040008180480022
:102150006044b8000310200002002000000040008e
:10216000818048000805440089854c000a0541002b
:102170008b8549000a0550008b8558000300330009
:102180000a00be0002047400838474008301d1003d
:102190000281d300830f7100f0ff3a008904d1005f
:1021a0000884d3006001490082017800c1adde00df
:1021b000fb07b0004dff070098ff37000960a00043
:1021c0000800be0095ff370012022000c2478800b9
:1021d000f0ff2f00f1ff270090ff3700889fbe001f
:1021e0008a9fbe00841f78007bff07004f007800a5
:1021f00011003300f0ff2f00838f6c0006003b00be
:10220000040565000a00a7000800370009f0a600d1
:102210001000200008003700820f5400838f5c00fc
:10222000030039001000200001003e0000002000e3
:1022300009f0a7000000ea004f05be004f04be00f1
:102240000000e00000000600889fbe008a9fbe00dc
:1022500000827000040271000482710026003200c6
:102260000004be000200be006011b8006b0920002f
:10227000950220000182cf000a0039000541b1001b
:102280000082cf00070039000541b1000982cf006c
:10229000040039000541b1000882cf000100390077
:1022a0000541b10005425200120032000a003b0015
:1022b00082817100610164008100d1000080d3003f
:1022c0008984d3000884d3008b05e8000442e80029
:1022d000f7ff3a00070037000804440089844c00e7
:1022e00000004800818048008b05e9000442e900b5
:1022f000f9ff3a00fdfe07004f05be004f04be0087
:1023000000000600889fbe000004780001007800ed
:10231000820478008801780009017800110020000b
:102320000e000700890f5000010032000004eb008e
:10233000080078004f04be00000006000000fa000c
:10234000e88157004fb99700219220002018210002
:10235000570107000080fa0000000600889fbe00b9
:102360008a9fbe008c9fbe008e1f780000067800fa
:102370000104780002007800830478000881b90025
:10238000020778000200e000420032000800e0008e
:102390004100320082057800c90090006900900079
:1023a000808f5000040039000900780050000700b9
:1023b0000000e00029003500004020001900600006
:1023c0000a0032000b017800a10020000c00780008
:1023d00036000700800678000d00e000060032009d
:1023e000610516000a854600040037000b057800d9
:1023f0008006eb00010037000b05780049009000d3
:10240000e9009000808050008a8f50000200310067
:10241000010578008006eb000a0178008c00780046
:102420002c0007008a855500490090000a004000f2
:10243000c00498000d00e00004003200090078009c
:10244000d50007000000e00004003a000b00e000a7
:10245000020032000a064600cfff3700008020004d
:10246000190060000200320009007800ca0007006d
:1024700000c02000190060000200320049009000f6
:10248000e00498008b055700110009008885d800ea
:10249000010037000000eb004f0778004f06be0038
:1024a0004f05be004f04be000000060003003700c9
:1024b000b0cf1000050032000201e9008001780071
:1024c0000200e000faff3a00000005000300780077
:1024d000000006008001780002003700b159780042
:1024e0000201e9000200e000fcff3a0000000600e3
:1024f000889fbe008a1f780000047800c800900002
:10250000680190000000eb00828f50003c00390011
:10251000180078002200290002016000e20f51003b
:1025200007003200012024000000e00001003d000f
:1025300001202000008c70000080eb00300037008c
:102540000200260002006000820f500009003a00dd
:1025500038009000808f5000060039000800780095
:102560008d000700800078000080eb000100e00093
:1025700023003a001805780000c020000000650024
:1025800018003a00a80490006002200008004000f3
:10259000808f540013003a0000202000ed02070055
:1025a000200498000000e00005003a00290498008b
:1025b000490498008904e8003904980008003700ad
:1025c0000a60a0000a0c7800400498000120200056
:1025d0008080400031049800400c9800500c980016
:1025e0000c0007002800900050049800380090006c
:1025f0006004980000002600180c70000000eb003a
:102600004f0578004f04be0000000600c03a2100cc
:102610009b003700881f7800289c20001804e000e9
:1026200003003a00f9ff070020c0b300004c780017
:102630004f04780000000600889fbe000004780068
:10264000080078005400070080047800000420008f
:1026500018006000020032002800900058020700b5
:102660000000eb0020049800384090000004e000d7
:10267000050035000000fb0042fc07000000e00000
:10268000010032008084eb00181090000000e00090
:102690000800320086fc07000000e0000100320064
:1026a0008084eb0018109000450207000000eb004a
:1026b0001014980000082000180060001500320077
:1026c0000001eb006000b800239720000202d00058
:1026d00063027a00880f520005003a0000004000b3
:1026e00081804800008041000008eb0006003700b0
:1026f00061004000e08048000201e800e80f50005f
:10270000e08f5800f0ff3a00080078002c02070024
:102710000e003700000c780000c0eb003044980039
:102720006002200008004000200498004004980047
:1027300050049800400c980060049800500c9800d9
:102740007004980076004400000c9800090078009e
:102750004f04be0000000600881f78000004eb0054
:102760006140b800e2ff2f00f3ff2f00ce04070006
:1027700002982000620078000000e00001003200b2
:10278000adff07000804e800e80f5400f4ff3a002a
:102790004f04780000000600889fbe000004780007
:1027a0000800e0000e003a008004eb008800d00032
:1027b00020972000610078000000e0000400320053
:1027c000f5ff07000000e00001003d008084eb0001
:1027d0000804e800e80f5400f4ff3a002500370031
:1027e00000002200180060008004eb00210032008d
:1027f000a80490000f0037000901510038409000f4
:102800000000fb0089007800e7fb07000000e00003
:1028100007003c00280090004004980060049800e5
:10282000500c98001890a0008084eb001100370035
:102830008084440048019000828f5400eeff3900ec
:1028400028009000400498009800780002c0200002
:102850000281600001003a003800900001e8a30006
:10286000020032006004980001003700500c98000c
:102870008004eb00090078004f04be000000060051
:10288000010020000100e00008003200010080008b
:102890000100e000050032008100e900010088002d
:1028a0008100d0000200800000b178000000060026
:1028b0006200fa00889fbe008a1f78000005780039
:1028c00081047800020478008300780080f92f00ea
:1028d0000f0040004a0407009a979f00a9979f00a5
:1028e0000000eb00b09f9f001885fb008a04fb00ee
:1028f0000a05ea004f55de0050022000808f540088
:102900000d003200e10f55000b003a000a0178007b
:10291000880078002f9097009f9197000300010096
:10292000a0979f000000e0008e0032003f989700c3
:102930000000e800b09f9f000a04440050022000fd
:10294000808f5400040032000900e000e6ff3a00e6
:102950003f989700840037000000eb00909f9f0095
:10296000809f9f00f0979f00e0979f00d0979f0067
:10297000c0979f0007003700819b20000100500096
:1029800000004000c19a200061007800df989700a5
:1029900001007000d09f9f0088047800090478002f
:1029a000384578008a00fb00809b20001302070056
:1029b0000000e000f0ff3a00a1c2b300814f5500d3
:1029c0000e003a00cf8897000180e900c08f9f0079
:1029d00010007800c09f9f000000e00005003d004f
:1029e0000000ea00c09f9f005f9897000020a000b1
:1029f000d09f9f000904e8000f003700c09f9f0090
:102a00000000eb0005003700f2ff2700820f5000a6
:102a1000020032006a01b900028040000904780017
:102a200088047800b900fb000103b100e98f500071
:102a3000f5ff3600c09f9f00e0c2b300984f100022
:102a4000020032000080eb0019003700a0c2b30082
:102a5000d84f100007003a00cf8897000180e900a6
:102a6000c08f9f0010007800a09f9f000804e8001e
:102a7000100037000000eb00a09f9f008800780046
:102a800005003700f3ff2700830f500002003200db
:102a90006a02b9000400410001047800880078004f
:102aa0003101fb000203b100e90f5100f5ff3600d0
:102ab000a09f9f00984478008900fb00409a200066
:102ac000ce0107000000e000020032000804e80028
:102ad000010037008044eb00c97f9f0080c6b3002f
:102ae00080cf540004003a0098cf14000a003a0046
:102af0006640500006003700c0c6b30080cf5400c7
:102b000005003a0098cf140003003a0065404000e9
:102b1000c07f9f000804e8001801fb00e3fb2f00c2
:102b20008f81410081f92f008f804000a0f92f0094
:102b30000f004000100007000000e00009003a000c
:102b4000e1fb2f008f804000a0f92f000f00400014
:102b5000ef0207000000e000020035000804e80072
:102b600061ff37000080eb004f0578004f04be0086
:102b70000080fa0000000600889fbe008a9fbe0009
:102b8000e4c6b300844f5100be00320010003c0088
:102b90006b425200844f51001800320005003c0087
:102ba00054c2b300844f5100f600320084c5b30014
:102bb0000f00370044c6b300844f510014003200a8
:102bc00065424200844f5100f1003a001000370086
:102bd00004c7b300844f5100dd00320056003500b9
:102be00065424200844f510053003200634242006c
:102bf000844f5100e6003a004f0037001181e90090
:102c000082087800f000900012417800de00370062
:102c100020629000c5c6b300854f520007003a00fd
:102c20009102780064825200840878001402be0089
:102c30004fabde00860378001400370015c7b300e1
:102c4000854f520003003a001104780068025400d6
:102c500005003700a5c6b300854f520006003a00b4
:102c60009104780068825400840878005403be0000
:102c70004402be00050037001182e9008408780094
:102c800014027800cfa2de00612bb9000498be00c8
:102c90000690be00a060900088c6b30088cf5000a8
:102ca0000d00320028c6b30088cf500004003a005f
:102cb0000402fb00cfa2de00612bb9000800370040
:102cc00048c7b30088cf5000030032006644440078
:102cd00088cf500004003a00cfa2de00612bb9007b
:102ce0000498be000690be003002be002003be0065
:102cf000f0009000e00f5200e08f5a00e00f5b0000
:102d0000e08f5b0002003d00d4c2b3000800370032
:102d1000001290000418a30002003200b4c2b300f5
:102d2000030037000408a3005100320004c2b300be
:102d300084f178004c00370020629000c5c6b300d3
:102d4000854f520008003a001105780064025500d2
:102d5000840878001404be006055b8000802be0064
:102d60000a03be001400370015c7b300854f520098
:102d700003003a009104780068825400050037008f
:102d8000a5c6b300854f520006003a001105780031
:102d900068025500840878005403be004402be0057
:102da000050037001182e9008408780014027800d9
:102db0008002eb006033b8000498be000690be00ad
:102dc000a060900088c6b30088cf50000d0032008c
:102dd00028c6b30088cf500004003a000482fb00ec
:102de0008002eb006033b8000800370048c7b3002a
:102df00088cf5000030032006644440088cf500062
:102e000004003a008002eb006033b8000498be0072
:102e10000690be00801090000138a300140032001c
:102e20003002be002003be00e00f5200e08f5a00c7
:102e3000e00f5b00e08f5b000d00320081c7b30044
:102e4000814f51000300320081c5b300814f510012
:102e500007003a00f000900004c3b30084f178004a
:102e60008100e80082f178008100e800710098009c
:102e7000f00090008181410063009800824078005a
:102e80003e003700a0619000c4c6b3001181e90084
:102e900084cf5100220032000a003c0064425200fc
:102ea00084cf51002500320004c2e80084cf5100d5
:102eb000130032006842520084cf51001e003a00d5
:102ec0000a00370044c7b30084cf51001b00320012
:102ed0006642420084cf510018003200694252001d
:102ee00084cf510014003a000500370082087800b2
:102ef0009200780040589000804878002c003700fd
:102f00008208780092007800600a9000cfa2de006c
:102f1000612bb9008498be008690be002400370063
:102f2000820878009200780060099000cf91de005e
:102f30008288be001e0037001181e90082087800f7
:102f40009200780060089000800878001800370030
:102f50001181e9008208780012027800cfa2de0019
:102f6000612bb9000498be000690be00f0009000ee
:102f7000818141006300980081c7b300b50007005c
:102f80000b003700f000900082f178000600370057
:102f9000f0009000818141000204e00001003a004d
:102fa00052c2b300824978008100e80071009800a5
:102fb0000000eb004f05be004f04be0000000600fd
:102fc0000000e0002f003200c0017800e38f5100c4
:102fd0002c0036000308a3002a003a00014e8000ae
:102fe0000100e00002003200810f500004003100b7
:102ff00011009800004e880016003700820078000b
:10300000110190000200e00002003200800f510028
:10301000faff39001102780084824000850f5000c9
:1030200018003900808f520003003a0083084200e4
:1030300001007800070037000200e00003003200c2
:1030400083014000830f51000e00390012009800e8
:1030500090009800900090000100e000090032000c
:1030600010014000828f500006003a00e29b2000d1
:103070000009eb0010017800110841009100900058
:103080001100980000000600889fbe000004780030
:10309000f14d80000100e0000200320001007800e4
:1030a0000d003700014e8000009c20000400370016
:1030b000910f5400250036000180e8009100900037
:1030c0000100e000faff3a0010003700920f5400b0
:1030d0001e0036000280e800100178000200e000c7
:1030e000faff3a0011017800014e8000009c200098
:1030f00004003700910f5400140036000180e800ee
:1031000091009000828f5000faff3a00294e800013
:10311000888f54000100310088047800090078008d
:10312000420007000000e00004003a00888f5400cd
:10313000050032008904d100f5ff37000918780036
:103140009fff0700d2ff37000000eb004f04be00d6
:1031500000000600881f7800630440000800a100fa
:103160008000eb00800f540021003600e30f540074
:1031700001003e004800200008007800c2ff070060
:103180008000eb000000e0001900320090007800a1
:103190009101780064815100880f510003003100d3
:1031a00011019000020878000700370008814000f4
:1031b0000208780091019000130198001001780036
:1031c0001109140088087800100178000000eb0055
:1031d0000200e00004003200920190000300e000d1
:1031e000010032000280e800f04d88008180e80094
:1031f000010078004f04780000000600020037004c
:103200000304e000060032000001780002007800ac
:10321000b041780081cf5100f9ff3a00010037003a
:103220000001eb000200780000000600800078003a
:103230000000eb000100e000050034000100780010
:10324000a4f90700e10f400001003a000000eb0084
:1032500000000600fc874700889fbe008a9fbe00d2
:103260008c9fbe008e1f78000006780080c5b300da
:1032700080cf50000a0032007740400080cf5000dd
:103280000a0032006940400080cf50000b0032003d
:103290003099200080bf9f00ae0020000a00370058
:1032a0002298200082bf9f0006003700339920003b
:1032b00083bf9f008e002000030037003499200058
:1032c00084bf9f000e0120003c02be002c03be0004
:1032d0000605be000404be0040c6b30080cf500007
:1032e000030032006540400080cf50000b003a00e0
:1032f000e00f5200e08f5a00e00f5b00e08f5b00b0
:1033000006003d006000b8006011b80004045000e1
:10331000858458000605590087855900e80f570035
:103320000400320040002000f00f570038003a003f
:103330000100370030002000e00f5400e08f5c00f7
:10334000e00f5d00e08f5d0004003a00dc089000b3
:103350008d0120000100e000060032008e00e9002f
:10336000888060008fba9700e5c07800f1ef9f0079
:103370007d012000800078008100e9000500330015
:103380008b05d1000a85d3008984d3000884d3003b
:10339000f9ff3700089ebe000a96be0012003700f3
:1033a0008d06e9008e00e900848060000fb9970067
:1033b000e2c1780082fd2f000f01410003f17e0081
:1033c000800078008100e900050033008783d10088
:1033d0000683d3008582d3000482d300f9ff37002f
:1033e000049ebe000696be003c02be002c03be003a
:1033f000e00f5200e08f5a00e00f5b00e08f5b00af
:103400008b0034000d00e000e5ff3c008800370031
:103410002c60900081c6b300814f50000b00320039
:1034200006003c000004e00008003200e6c0500046
:10343000814f50004e003a0004003700c1c6b3006f
:10344000814f50004a003a00210037000800e00098
:1034500004003a005c0890008d0120000000e000ac
:1034600006003200110009000e84d8000fb9970041
:10347000e2c07800f1ef9f007d01200011000900fb
:103480000e84d8000a003700110009000e04d8008d
:103490008d06e9000e81b900020454008fb8970030
:1034a00061417c0081fd2f008f80400082f07e0012
:1034b000000478000800e000020032000d00e00087
:1034c000f1ff3c00cfc4de00614db900250037009c
:1034d000e00f5400e08f5c0004003a005c089000ac
:1034e0008d0120000000e000070032006171b9008a
:1034f0000800be00690107008fb99700e34178001a
:10350000f3ef9f007d0120006171b9000800be004b
:10351000520107000b0037006171b9000800be00be
:103520003f0107008d06e90000f1b90002045400d4
:103530000fba9700e4427c0084fd2f000f02420086
:1035400005f27e000004be00e00f5000e08f58003e
:10355000020032000d00e000efff3c004fcdde0026
:103560008a057800089ebe000a96be00300037002b
:10357000e00f5400e08f5c00e00f5d00e08f5d0025
:1035800004003a005c0890008d0120000000e0007b
:10359000090032006172b900612bb9000800be0059
:1035a0000a01be00e60107000fba970064427800e6
:1035b000f4ef9f007d0120006172b900612bb9001a
:1035c0000800be000a01be00d60107000d0037004a
:1035d0006172b900612bb9000800be000a01be008b
:1035e000db0107008d06e90000f2b9000404540075
:1035f0008fba970065427c0085fd2f008f824200c4
:1036000084f27e00009ebe000296be003c04be0016
:103610002c05be00e00f5400e08f5c00e00f5d0061
:10362000e08f5d00020034000d00e000e8ff3c0088
:10363000e80f570010003a000c1090000038a3006b
:103640000d003200f78f560006003e0085fd2f006a
:103650008f824200e5c07e0000c3b30080cf5000df
:10366000050032008d06e90002c3b30081fd2f0082
:103670008f80400082f07e0078811600120e980044
:103680006c00900083fd2f008f8141008d804100f0
:1036900090fb07001c089000dc089000810f500090
:1036a00006003d0000805000000e98000c109000b5
:1036b0000040a100001698000f0037000100e00054
:1036c0000d003d008c109000f4806000f08f5000e1
:1036d00009003a007c099000fc0090008100510034
:1036e0000c09900082805000008050004240a900e8
:1036f00001003400000e98004f0778004f06be000e
:103700004f05be004f04be00cf01b100000006000f
:103710000400fa00889fbe008a9fbe008c1f7800bc
:103720000004780001067800f80d90007800900001
:103730008085550008089000808555001808900085
:103740008085550028089000808555003808900035
:1037500080855500480890008085550000022200b1
:1037600090bf9f0000032300a0bf9f00081090009f
:103770000028a30015003a000b00e00013003400fd
:103780000b0578008a047800e20f5500010036002e
:1037900029002000c801900009017800ee80570040
:1037a0005800900003000100500498000000e00061
:1037b0008c0032006808900009004000600c9800fe
:1037c000090555004240a900eeff3c007801900039
:1037d0000200e0000c003400c80190008c0078006a
:1037e0005800900003000100500498008080eb0016
:1037f0000000e0007c003200e808900078009000b3
:1038000000804000600c9800880c90000900e000e7
:103810001100340009057800e28f540001003600e1
:103820002a002000c80190000a017800ec805700af
:103830005800900003000100500498000000e000d0
:1038400068003200680890000a004000600c980090
:103850008a845400edff3700180990000200e00050
:103860000c003400c8019000e8009000580090005f
:1038700003000100500498008080eb000000e0008d
:1038800059003200e80890001808900000804000bd
:10389000600c9800a80c90000900e00011003400b2
:1038a00009057800e28f5400010036002a0020004c
:1038b000c80190000a017800ec8057005800900081
:1038c00003000100500498000000e00045003200b1
:1038d000680890000a004000600c98008a84540038
:1038e000edff3700380990000200e0000e003400c0
:1038f000e80090001808900080804000c801900007
:103900005800900003000100500498008080eb00f4
:103910000000e00034003200e80890003808900011
:1039200000804000600c9800c80c90000900e00086
:103930001100340009057800e28f540001003600c0
:103940002a002000c80190000a017800ec8057008e
:103950005800900003000100500498000000e000af
:1039600020003200680890000a004000600c9800b7
:103970008a845400edff3700081090008000eb00af
:103980000028a300180032000b00e00016003400ed
:103990008b04780009057800e28f5400010036009e
:1039a0002a002000c80190000a017800ee8057002c
:1039b0005800900003000100500498000000e0004f
:1039c00008003200680890000a004000600c98006f
:1039d0008a8454004240a900eeff3c008000eb00c6
:1039e000010037008080eb00010078004f0678006e
:1039f0004f05be004f04be000080fa000000060024
:103a0000010878000000060000c0da00000006008f
:103a100000c0da000000060000c0da000000060066
:103a2000839f68000100e00002003d00600010007c
:103a3000e08018000300e00002003d00600111007a
:103a4000e0811900050007004f00e00002003b0084
:103a500060001000e0801800000006006022b8003e
:103a6000060220000000d0008180d2000482d20033
:103a70008582d2000000a0000202520083825a0018
:103a8000030031000202420083824a000000a100cc
:103a90000603e900f3ff3a0000000600efff07000d
:103aa0000400be0000000600020ab900001bb900b5
:103ab0000200b800810042008100430000000600bf
:103ac000889fbe008a9fbe0030044200b0844a0036
:103ad00030054b0090854b006000b1000898be0097
:103ae0000a90be000440e10005c8e10006d0e100f4
:103af00007d8e10002003100680040001008e8002b
:103b00004f05be004f04be0000000600889fbe00a7
:103b10008a9fbe003004be002005be000418540079
:103b200005985c0006185d0007985d0011002000f4
:103b30000440e10005c8e10006d0e10007d8e1003b
:103b4000010039008000eb00108810004f05be0016
:103b50004f04be00000006001200fa00889fbe005d
:103b60008a9fbe008c9fbe00e0b79f00f1b79f0008
:103b700082bf9f0093bf9f000605be000404be00e5
:103b80000000eb00d0b79f00c0b79f00b0b79f0008
:103b9000a0b79f0090b79f000006eb005fb19700b1
:103ba000cfb09700820141003fb097000200e000d3
:103bb00004003d00370007007e805700c0ff07006b
:103bc00003003700330007007e805700cfff070057
:103bd000dfb697000d00e0000c0035006fb29700d3
:103be000ffb297000fbb97009fbb9700100020000b
:103bf000010020006011b800000272008182720092
:103c000002037300838373001b0007000c06e800a7
:103c100001042000810f5600e0ff3a000d00e00093
:103c200004003d000802be000a03be007e8057006b
:103c3000a3ff07005fa897000000e00005003a001e
:103c40001fb29700afb297003fb39700cfb3970072
:103c5000090007006fb09700ffb097000fb99700f9
:103c60009fb997004f06be004f05be004f04be002f
:103c70000080fa00000006000100070000000600b6
:103c8000a4b79f00b5b79f00c6b79f00d7b79f00e6
:103c9000000006004f09de0082817100b3b79f006b
:103ca0004f01de008180400082807000a1b79f003c
:103cb0008fb097004f09de00000040000200700046
:103cc00090b79f007fa897004f01de0081804000e1
:103cd0008280700081b79f000d0007004f3ade0020
:103ce0000000400004007000f0af9f0008000700d3
:103cf0000402420085824a0006034b0087834b0082
:103d0000dfff07000802be000a03be000000060035
:103d10002fb29700bfb297004fb39700dfb3970061
:103d200000000600881f780018002000881f780017
:103d300089ff07008f87e9004f0478000000060024
:103d4000801feb0084ff07008f87e900000006005a
:103d5000889fbe008a9fbe00e00f5000e08f580091
:103d6000e00f5900e08f59000c003d006044b8009e
:103d70006055b8000000540081805c0002015d00c5
:103d800083815d00180020001500070008003d0039
:103d9000180007000004eb00050037000004eb00ea
:103da0000f00070002003d0012000700180020006d
:103db000dcff07000800e000060032006022b800c7
:103dc0006033b8000000520081805a0002015b009d
:103dd00083815b004f05be004f04be00000006005b
:103de000e00f5200e08f5a00e00f5b00e08f5b00b5
:103df000000006006044b8006055b800040254009a
:103e000085825c0006035d0087835d00000006007c
:103e1000889fbe008a9fbe008c1f7800e00f500074
:103e2000e08f5800e00f5900e08f59000d003d0071
:103e30006044b8006055b8000000540081805c0008
:103e400002015d0083815d001c0020000820e1006c
:103e500009a8e1000ab0e1000bb8e1000d003d0047
:103e6000080037000006eb00e00f5200e08f5a0018
:103e7000e00f5b00e08f5b0006003d006044b8008f
:103e80006055b8000402540085825c0006035d00a2
:103e900087835d00aaff07000c00e00006003200e7
:103ea0006022b8006033b8000000520081805a00e0
:103eb00002015b0083815b004f0678004f05be0066
:083ec0004f04be0000000600e3
:020000040000fa
:103ec8006f120000833a00002564000009250000f5
:103ed800640a000000250000640a000000000000d9
:020000040000fa
:103ee8000400fa00889fbe00204798000000eb00fd
:103ef800000f7800d1c8bf000080fb00cf80de0033
:103f08003203200003002000820f5000838f5800e6
:103f180062013e0000600100330037003c003700ba
:103f28005e0137005d0137005c0137005b01370037
:103f38005a01370059013700580137005701370037
:103f4800560137006d0037006f0037005301370006
:103f58005201370051013700500137004f01370037
:103f68004e0137004d0137004c0137006c00370017
:103f78006e00370073003700750037007a0037008d
:103f88007c00370045013700440137004301370002
:103f98004201370041013700400137003f01370037
:103fa8003e0137003d0137003c0137003b01370037
:103fb8003a01370039013700380137007c003700f3
:103fc8008a0037009f003700aa003700bf0037007b
:103fd8003201370031013700300137002f01370037
:103fe8006a0037006c003700ae409000d0cbb300b9
:103ff80080cf500003003a0010c0b300d1e8b700ea
:1040080028013700a00f2000000f78002501370095
:10401800ae40900000c4b30080cf500003003a00c7
:1040280090c2b300d1e8b7001e013700ae4090003f
:1040380000c3b30080cf500003003a00f0c1b300c2
:10404800d1e8b70017013700ae40900000c2b300b6
:1040580080cf500003003a0050c1b300d1e8b70048
:1040680010013700ae40900030c2b30080cf50003e
:1040780003003a0070c1b300d1e8b7000901370066
:10408800ae40900050c2b30080cf500003003a0009
:1040980090c1b300d1e8b70002013700ae409000ec
:1040a80070c2b30080cf500003003a00b0c1b30023
:1040b800d1e8b700fb0037002e409000f04f5000c9
:1040c80003003a00b0c0b300d1e8b700f5003700ec
:1040d800ae40900000c5b30080cf500003003a0006
:1040e80020c3b300d1e8b700ee003700d168ef0075
:1040f800a00f2000000f7800ea003700c0c0b3000e
:10410800d1e8b700e700370010c0b300cce8b7002b
:10411800d168ef00c00a2000000f7800e1003700e6
:1041280060c1b300d1e8b700de00370010c0b300ab
:10413800cde8b700d168ef00c00a2000000f780072
:10414800d800370080c1b300d1e8b700d5003700e8
:1041580020c0b300cde8b700d168ef00c00a200046
:10416800000f7800cf003700a0c1b300d1e8b70036
:10417800cc00370030c0b300cde8b700d168ef00fd
:10418800c00a2000000f7800c600370030c3b30013
:10419800d1e8b700c300370010c0b300cee8b700bd
:1041a800d168ef00c00a2000000f7800bd0037007a
:1041b800904680000004b000904688002e40900091
:1041c8008080fb0090468000008040009046880078
:1041d8002e4090000080fb004800dd00a0468800cb
:1041e800a0c2b300d1e8b700ae0037002e4090005f
:1041f8008080fb0090468000008040009046880048
:104208002e4090008080fb00a046800001007000d6
:10421800a0468800a04680008000eb002ff707002a
:1042280002002000a331240081f7070010f70700df
:1042380000007800a0468800b0c2b300d1e8b700fb
:10424800980037002e4090008080fb009046800048
:1042580000804000904688002e4090000080fb00bf
:104268004800dd00b0468800c0c2b300d1e8b700fe
:104278008c0037002e4090008080fb009046800024
:1042880000804000904688002e4090008080fb000f
:10429800b046800001007000b0468800b04680003b
:1042a8008000eb000df7070002002000a331240076
:1042b8005ff70700eef6070000007800b0468800b8
:1042c800d0c2b300d1e8b70076003700904680002e
:1042d8000080ea009046880091468000f00f200098
:1042e80000806000904688002e4090008080fb008f
:1042f80090468000808f50005e003a00a046800003
:104308008000eb00f5f607000002be0010408000b8
:10431800214080000001be000400be008df50700aa
:104328006045880071458800b04680008000eb0039
:10433800eaf607000002be0050408000614080009d
:104348000001be000400be0082f507008045880019
:104358009145880060458000714580008445800053
:10436800954580000001be000400be00d7f5070097
:10437800c0448800d1448800844580009545800069
:1043880080458000914580000001be000400be0009
:1043980027f707000004be006445800075458000cb
:1043a80060458000714580000001be000400be0029
:1043b8001ff707000001be000800be0066f50700f1
:1043c8004ff7070000458800114588000045800028
:1043d8001145800002002c00a35d24003df6070073
:1043e800e0448800f1448800e4448000f5448000fb
:1043f800e0448000f14480000001be000400be00db
:104408000bf707000001be00000020000104240093
:1044180030f60700a0458800b1458800e4448000d4
:10442800f5448000e0448000f14480000001be00b3
:104438000400be00fef607000002be00e044800053
:10444800f14480000001be000400be00f8f6070039
:104458000001be000000200001002c001df607002e
:10446800c0458800d1458800c00a2000000f7800a8
:1044780002003700a00f2000000f7800d428ef00ba
:10448800d628ef00d228ef00d168ef006000b8000e
:10449800104388002143880002003700a00f200045
:1044a800000f78001e0078004f04be000080fa005c
:1044b800000006000200fa00004f78001e80fb0092
:1044c8002011880000000000111180000010200059
:1044d800008060000000e000fbff32000080fa006e
:1044e800000006000000fa0060092000303a880049
:1044f800213a800000fe2f00008060005000b300c9
:10450800203a8800213a8000f0f32f0000806000f4
:10451800203a88004827ef0012002000800720007a
:10452800a10920003374200080497800814978006f
:1045380082497800120020006004200071052000e4
:1045480023742000804978008149780082497800e6
:1045580000000000113a8000000027008080600001
:1045680000002100808f5000faff3a000000000090
:10457800113a800000022000008060000000e00086
:10458800fbff32000080fa00000006000000fa007d
:10459800113a8000f00b20000081600060042000c8
:1045a8007105200023742000804978008149780033
:1045b800824978002135800000fe2f0000806000cd
:1045c8006000b3002035880021368000f00f2e00ef
:1045d80080806000003020000100700020368800d4
:1045e800103a8000000178000260a00060042000fa
:1045f80071052000237420008049780081497800e3
:10460800824978002002a9000111800090ff2f0044
:1046180000806000001188002062a8002082a900a4
:10462800600520004011880023a2a90023e2a90008
:104638009560a8009580a80021e2a8002342a80060
:104648000080fa00000006000000fa00113a80001d
:10465800f00b20000081600060042000710520003c
:1046680023742000804978008149780082497800c5
:10467800e134800000fe2f00008060000030a000c0
:10468800e0348800e1348000f00f2e008080600064
:104698000090200001007000e0348800013580009f
:1046a80000fe2f0000806000b000b30000358800d5
:1046b80001358000f00f2e008080600000a02000ef
:1046c8000100700000358800103a80000001780071
:1046d8000260a000600420007105200023742000ff
:1046e800804978008149780082497800010f80006c
:1046f800f08f2f0000806000000f8800e0c1a90043
:10470800010f8000f08f2f00808060000050200093
:1047180001007000000f8800810f8000f08f2f00cb
:1047280000806000800f8800f0c1a900810f800020
:10473800f08f2f0080806000005020000100700082
:10474800800f8800113a8000f00b20000081600083
:10475800600420007105200023742000804978003f
:104768008149780082497800110f8000f0f82f0005
:1047780000806000100f8800e2e1a800910f80001f
:10478800f0f82f0000806000900f8800f2e1a80088
:10479800103a8000000178000260a0006004200048
:1047a8007105200023742000804978008149780031
:1047b800824978000080fa00000006000000fa0034
:1047c80021088000f0fc2f00008060000040a0005d
:1047d8002008880080382100100888009460a8000c
:1047e80021058000f0ff2800808060000000230081
:1047f80001007000200588000080fa000000060013
:104808000200fa000000eb00000f780002003700f9
:10481800000000001e0fe800301f20009e007800f6
:10482800808f5000faff36000080fa000000060072
:104838000800fa0020079800310798006000b800c7
:10484800008fbe00050037000000000012002000a5
:10485800030020001e0f41005e9749002e009000c3
:10486800be0090001e01be00800f5100818f5900cc
:10487800f5ff39000080fa00000006000600fa0083
:10488800200798000000eb00000f78000c003700ac
:104898000000eb001007980004003700000000003b
:1048a8001e0090000000e800100798009e0090008d
:1048b800700c2000808f5000f8ff36001e0fe800b3
:1048c8002e0090009e007800808f5000f0ff390085
:1048d8000080fa00000006000000fa00810880004d
:1048e800f0fc2f00008060000040a00080088800d5
:1048f8000071220060088800210c800080ff2f00d2
:1049080000806000200c88008461a900210c8000d0
:1049180080ff2f00008060006000b300200c88003a
:10492800113a8000f00b2000008160006004200034
:10493800710520002374200080497800814978009f
:104948008249780071368000f00f2e008080600068
:10495800002021000100700070368800103a8000a5
:10496800000178000260a0006004200071052000aa
:1049780023742000804978008149780082497800b2
:1049880091088000f0fc2f00008060000040a0002b
:10499800900888000071220070088800510c80007f
:1049a80080ff2f0000806000500c88008a61a800fa
:1049b800510c800080ff2f00008060006000b30071
:1049c800500c8800113a8000f00b20000081600034
:1049d80060042000710520002374200080497800bd
:1049e80081497800824978007136800000fe2f00e6
:1049f800008060003001b30070368800103a8000f3
:104a0800000178000260a000600420007105200009
:104a18002374200080497800814978008249780011
:104a28000080fa00000006000000fa000080eb0099
:104a38006019880000ff2f000016880030fd200054
:104a4800401688000080fa00000006000200fa0004
:104a5800000f78001e0078000000e00003003d0011
:104a6800c402a800c422a900080037001e0078006c
:104a78000000e00003003400c402a900c422a8001a
:104a880002003700c402a800c422a8001e00780053
:104a980000f0a7000000ea00000c88000080fa007f
:104aa800000006000200fa00000f78001e007800df
:104ab8000000e00003003d00cc42a800cc62a90041
:104ac800080037001e0078000000e00003003400f2
:104ad800cc42a900cc62a80002003700cc42a80052
:104ae800cc62a8001e00780000f0a7000000ea00d1
:104af800000c88000080fa00000006000000fa00a0
:104b08000200370080442f00d0ff070050168000b5
:104b1800700060000000e000faff3a000000eb00bf
:104b2800caff07000071220054ff07000200370087
:104b380080442f00dbff070051168000000820008a
:104b4800008060000000e000f9ff3a000000eb0080
:104b5800d4ff07000071220048ff07000080fa0018
:104b6800000006000400fa000600fc0012028000a3
:104b7800020eb300120288005afe07000080eb0004
:104b88006019880000ff2f000016880030fd200003
:104b98004016880009ff070011e1a80013e1a800ea
:104ba8004dff07000600fc0013028000f341b2002d
:104bb80013028800a4fe0700d0ff07000600fc00cf
:104bc80013028000030eb300130288006ffe070073
:104bd8000bff07000600fc0011028000f141b20043
:104be800110288000071220024ff0700e421ef0071
:104bf800f421ef00010037000000000000408000b1
:104c08000000e0000400320000408000004078000e
:104c180028fe07000028ef00ccc8bf000004e00011
:104c280008003200cc68ef00b4ff070000712200d2
:104c380012ff0700e421ef00f421ef00a0ccb3003d
:104c48001cfe0700cdc8bf00e14f50000d003a0020
:104c5800cd68ef00401f200008ff07005240800089
:104c6800634080001040800021408000829fbe0089
:104c7800809fbe0080f62900801f7800adf50700f0
:104c8800ea875700cdc8bf00e24f50000a003a003b
:104c9800cd68ef00401f2000f8fe0700104080009c
:104ca80021408000809fbe00f0f62900801f780018
:104cb800a0f50700e6875700cdc8bf00e34f5000b6
:104cc8000a003a00cd68ef00401f2000ebfe070005
:104cd8005040800061408000809fbe00f0f62900af
:104ce800801f780093f50700e6875700cec8bf00fd
:104cf8000004e00002003200ce68ef0005e1a800e1
:104d0800f0702200010020001e01be00800f51003b
:104d1800818f5900020036006000b800008fbe0085
:104d280012002000030020001e0f41005e9749007a
:104d3800cfc8bf000004e000afff3200cf68ef002b
:044d4800aeff370083
:020000040000fa
:104d4c0000080000d800000000000000d808000097
:104d5c002000000002000000000060004100000084
:104d6c006041cd00cc4c3f00cdcc4c003f0000004e
:104d7c00803f000000803f00666666003f6666006c
:104d8c00663f0000f8080000020000000000000070
:104d9c00fa0800008800000002000000010000007a
:104dac000020090021092000092009002009200009
:104dbc0009100900000000000000000000000000c5
:104dcc0000000000000000000000000000000000d7
:104ddc00000208000101480009490900480948007f
:104dec0009480900480938000900000000000000cb
:104dfc0000000000000000000000000000000000a7
:104e0c00000000000000020008020200700971009e
:104e1c000970090070097000097009006009000030
:104e2c000000000000000000000000000000000076
:104e3c00000000000000000000000000fa08220042
:104e4c00094a0900000000000000000000000000fa
:104e5c0000000000c2090000020000000000000079
:104e6c00a40900001a00000002000000686a6c002f
:104e7c00747a4c00000001000002000004000800dd
:104e8c0000100000000020002b2d2300300000003b
:104e9c00c409000002000000020000000400000031
:104eac00be090000040000000000000082090000a0
:104ebc002200000002000000303132003334350093
:104ecc003637380039414200434445004600300033
:104edc0031323300343536003738390061626300c3
:104eec006465660000000000c609000002000000b6
:104efc000200000001000000c809000002000000d0
:084f0c0000000000000000009d
:020000040000fa
:0200000401f009
:04000000ffff0000fe
:020000040000fa
:0200000401f009
:04000400ffff0000fa
:020000040000fa
:0200000401f009
:04000800ffff0000f6
:020000040000fa
:0200000401f009
:04000c008700000069
:020000040000fa
:0200000401f009
:0400100003000000e9
:020000040000fa
:0200000401f009
:040014005f00000089
:020000040000fa
:0200000401f009
:04001800f7000000ed
:020000040000fa
:0200000401f009
:04001c00dfff000002
:00000001FF
