:020000040000fa
:080000000002040000000000f2
:020000040000fa
:04000800c40b000025
:020000040000fa
:04000c00c40b000021
:020000040000fa
:04001000c40b00001d
:020000040000fa
:04001400c40b000019
:020000040000fa
:04001800c40b000015
:020000040000fa
:04001c00c40b000011
:020000040000fa
:04002000c40b00000d
:020000040000fa
:04002400c40b000009
:020000040000fa
:04002800c40b000005
:020000040000fa
:04002c00c40b000001
:020000040000fa
:04003000c40b0000fd
:020000040000fa
:0400340024030000a1
:020000040000fa
:04003800c40b0000f5
:020000040000fa
:04003c00c40b0000f1
:020000040000fa
:04004000c40b0000ed
:020000040000fa
:04004400c40b0000e9
:020000040000fa
:04004800c40b0000e5
:020000040000fa
:04004c00c40b0000e1
:020000040000fa
:04005000c40b0000dd
:020000040000fa
:04005400e4020000c2
:020000040000fa
:04005800dc020000c6
:020000040000fa
:04005c00c40b0000d1
:020000040000fa
:04006000c40b0000cd
:020000040000fa
:04006400c40b0000c9
:020000040000fa
:04006800c40b0000c5
:020000040000fa
:04006c00c40b0000c1
:020000040000fa
:04007000c40b0000bd
:020000040000fa
:04007400c40b0000b9
:020000040000fa
:04007800c40b0000b5
:020000040000fa
:04007c00c40b0000b1
:020000040000fa
:04008000c40b0000ad
:020000040000fa
:04008400c40b0000a9
:020000040000fa
:04008800c40b0000a5
:020000040000fa
:04008c00c40b0000a1
:020000040000fa
:04009000c40b00009d
:020000040000fa
:04009400c40b000099
:020000040000fa
:04009800c40b000095
:020000040000fa
:04009c00c40b000091
:020000040000fa
:0400a000c40b00008d
:020000040000fa
:0400a400c40b000089
:020000040000fa
:0400a800c40b000085
:020000040000fa
:0400ac00c40b000081
:020000040000fa
:0400b000c40b00007d
:020000040000fa
:0400b400c40b000079
:020000040000fa
:0400b800c40b000075
:020000040000fa
:0400bc00c40b000071
:020000040000fa
:0400c000c40b00006d
:020000040000fa
:0400c400c40b000069
:020000040000fa
:0400c800c40b000065
:020000040000fa
:0400cc00c40b000061
:020000040000fa
:0400d000c40b00005d
:020000040000fa
:0400d400c40b000059
:020000040000fa
:0400d800c40b000055
:020000040000fa
:0400dc00c40b000051
:020000040000fa
:0400e000c40b00004d
:020000040000fa
:0400e400c40b000049
:020000040000fa
:0400e800c40b000045
:020000040000fa
:0400ec00c40b000041
:020000040000fa
:0400f000c40b00003d
:020000040000fa
:0400f400c40b000039
:020000040000fa
:0400f800c40b000035
:020000040000fa
:0400fc00c40b000031
:020000040000fa
:04010000c40b00002c
:020000040000fa
:04010400c40b000028
:020000040000fa
:04010800c40b000024
:020000040000fa
:04010c00c40b000020
:020000040000fa
:04011000c40b00001c
:020000040000fa
:04011400c40b000018
:020000040000fa
:04011800c40b000014
:020000040000fa
:04011c00c40b000010
:020000040000fa
:04012000c40b00000c
:020000040000fa
:04012400c40b000008
:020000040000fa
:04012800c40b000004
:020000040000fa
:04012c000a030000c2
:020000040000fa
:04013000c40b0000fc
:020000040000fa
:04013400c40b0000f8
:020000040000fa
:04013800c40b0000f4
:020000040000fa
:04013c00c40b0000f0
:020000040000fa
:04014000c40b0000ec
:020000040000fa
:04014400c40b0000e8
:020000040000fa
:04014800c40b0000e4
:020000040000fa
:04014c00c40b0000e0
:020000040000fa
:04015000c40b0000dc
:020000040000fa
:04015400c40b0000d8
:020000040000fa
:04015800c40b0000d4
:020000040000fa
:04015c00c40b0000d0
:020000040000fa
:04016000c40b0000cc
:020000040000fa
:04016400c40b0000c8
:020000040000fa
:04020800c40b000023
:020000040000fa
:04020c00c40b00001f
:020000040000fa
:04021000c40b00001b
:020000040000fa
:04021400c40b000017
:020000040000fa
:04021800c40b000013
:020000040000fa
:04021c00c40b00000f
:020000040000fa
:04022000c40b00000b
:020000040000fa
:04022400c40b000007
:020000040000fa
:04022800c40b000003
:020000040000fa
:04022c00c40b0000ff
:020000040000fa
:04023000c40b0000fb
:020000040000fa
:04023400c40b0000f7
:020000040000fa
:04023800c40b0000f3
:020000040000fa
:04023c00c40b0000ef
:020000040000fa
:04024000c40b0000eb
:020000040000fa
:04024400c40b0000e7
:020000040000fa
:04024800c40b0000e3
:020000040000fa
:04024c00c40b0000df
:020000040000fa
:04025000c40b0000db
:020000040000fa
:04025400c40b0000d7
:020000040000fa
:04025800c40b0000d3
:020000040000fa
:04025c00c40b0000cf
:020000040000fa
:04026000c40b0000cb
:020000040000fa
:04026400c40b0000c7
:020000040000fa
:04026800c40b0000c3
:020000040000fa
:04026c00c40b0000bf
:020000040000fa
:04027000c40b0000bb
:020000040000fa
:04027400c40b0000b7
:020000040000fa
:04027800c40b0000b3
:020000040000fa
:04027c00c40b0000af
:020000040000fa
:04028000c40b0000ab
:020000040000fa
:04028400c40b0000a7
:020000040000fa
:04028800c40b0000a3
:020000040000fa
:04028c00c40b00009f
:020000040000fa
:04029000c40b00009b
:020000040000fa
:04029400c40b000097
:020000040000fa
:04029800c40b000093
:020000040000fa
:04029c00c40b00008f
:020000040000fa
:0402a000c40b00008b
:020000040000fa
:0402a400c40b000087
:020000040000fa
:0402a800c40b000083
:020000040000fa
:0402ac00c40b00007f
:020000040000fa
:0402b000c40b00007b
:020000040000fa
:0402b400c40b000077
:020000040000fa
:0402b800c40b000073
:020000040000fa
:0402bc00c40b00006f
:020000040000fa
:0402c000c40b00006b
:020000040000fa
:0402c400c40b000067
:020000040000fa
:0402c800c40b000063
:020000040000fa
:0402cc00c40b00005f
:020000040000fa
:0402d000c40b00005b
:020000040000fa
:0402d400c40b000057
:020000040000fa
:0402d800c40b000053
:020000040000fa
:0402dc00c40b00004f
:020000040000fa
:0402e000c40b00004b
:020000040000fa
:0402e400c40b000047
:020000040000fa
:0402e800c40b000043
:020000040000fa
:0402ec00c40b00003f
:020000040000fa
:0402f000c40b00003b
:020000040000fa
:0402f400c40b000037
:020000040000fa
:0402f800c40b000033
:020000040000fa
:0402fc00c40b00002f
:020000040000fa
:04030000c40b00002a
:020000040000fa
:04030400c40b000026
:020000040000fa
:04030800c40b000022
:020000040000fa
:04030c00c40b00001e
:020000040000fa
:04031000c40b00001a
:020000040000fa
:04031400c40b000016
:020000040000fa
:04031800c40b000012
:020000040000fa
:04031c00c40b00000e
:020000040000fa
:04032000c40b00000a
:020000040000fa
:04032400c40b000006
:020000040000fa
:04032800c40b000002
:020000040000fa
:04032c00c40b0000fe
:020000040000fa
:04033000c40b0000fa
:020000040000fa
:04033400c40b0000f6
:020000040000fa
:04033800c40b0000f2
:020000040000fa
:04033c00c40b0000ee
:020000040000fa
:04034000c40b0000ea
:020000040000fa
:04034400c40b0000e6
:020000040000fa
:04034800c40b0000e2
:020000040000fa
:04034c00c40b0000de
:020000040000fa
:04035000c40b0000da
:020000040000fa
:04035400c40b0000d6
:020000040000fa
:04035800c40b0000d2
:020000040000fa
:04035c00c40b0000ce
:020000040000fa
:04036000c40b0000ca
:020000040000fa
:04036400c40b0000c6
:020000040000fa
:100400006fa020000e7f24000e0188000000000075
:10041000000020000000e000020032000001200087
:1004200020028800140007004e0507000000e000cd
:1004300003003a00e0b9220001002000020037006a
:100440000000200001002000810f70000100320038
:1004500014000700000020000000e000020032004d
:100460000000020000000000842a020000000000da
:100470000040da000000fe004440a900c001200056
:100480000000e0000300320000002000a00188000e
:100490004440a800000006008a1f78008b1f7800e7
:1004a0000000060091018800800478000000eb0045
:1004b0001a003700e284440032a0b4009905ba0063
:1004c000e284440032a0b4009906ba00e2844400f9
:1004d00032a0b4000006eb00476fde00fd07b2005b
:1004e000636ce10003003a00ebff07000000eb0043
:1004f0000a003700606ce10004003a00005deb0088
:100500008b05e900fdff3e00040037006168e10053
:10051000010032000086eb000b00070019c7ba008b
:100520001905ba000e04e00003003a000a00e000da
:10053000e0ff3a0000000600fe07b2009e018800be
:100540008a047800f5ff3700395dba008b05e900b1
:100550000c003200295dba008b05e900080032006a
:100560000c00e00003003a00e284440032a0b40032
:10057000f5ff370019ddba008b05e900faff3a00f4
:100580008904e800e184440032a0b40000000600c1
:10059000000000000000000000000000000000005b
:1005a000000000000000000000000000000000004b
:1005b00000000000000000000000fa008580a90093
:1005c0000080fa00004006003600f800809fbe0060
:1005d000829fbe00849fbe00869fbe000200fa007c
:1005e00030118000004f78001e407800ad100700e9
:1005f000004088008560a9000080fa004f03be001b
:100600004f02be004f01be004f00be003600f90091
:1006100000400600801f78000000fa0010118000e2
:10062000620060000000e000020032002222a90007
:1006300001003700000000008c20a9000080fa00b3
:100640004f007800004006003600f800809fbe0092
:10065000829fbe00849fbe00869fbe00889fbe0012
:100660008a9fbe008c1f78004200fa00a4458000db
:10067000b545800010438000214380000001be008a
:100680000400be006f0607000002be001043800099
:10069000214380000001be000400be00690607007f
:1006a0000004be00c4458000d54580001043800092
:1006b000214380000001be000400be006106070067
:1006c0000002be0010438000214380000001be00f4
:1006d0000400be005b0607000002be00104380005d
:1006e000214380000001be000400be005506070043
:1006f0000001be000800be009c0407000002be000e
:1007000060458000714580000001be000400be000d
:100710004c0607000002be0010408000214080000f
:100720000001be000400be009004070030408800b5
:1007300041408800a4458000b545800010438000fa
:10074000214380000001be000400be003d060700fa
:100750000002be0010438000214380000001be0063
:100760000400be00370607000004be00c445800038
:10077000d545800010438000214380000001be0069
:100780000400be002f0607000002be0010438000d8
:10079000214380000001be000400be0029060700be
:1007a0000002be0010438000214380000001be0013
:1007b0000400be00230607000001be000800be00c2
:1007c0006a0407000002be00804580009145800059
:1007d0000001be000400be001a0607000002be00b1
:1007e00050408000614080000001be000400be0057
:1007f0005e0407007040880081408800a0458000aa
:10080000b14580000001be00580407000002be0090
:1008100010438000214380000001be000400be00a0
:10082000080607000004be00c0458000d1458000d6
:100830000200200003042400020607000002be009c
:1008400010438000214380000001be000400be0070
:10085000fc0507000002be00104380002143800019
:100860000001be000400be00f60507000001be0046
:100870000800be003d0407000002be006045800085
:10088000714580000001be000400be00ed050700b8
:1008900090408800a1408800a0458000b1458000bc
:1008a0000001be00310407000002be0010438000ba
:1008b000214380000001be000400be00e1050700e6
:1008c0000004be00c0458000d14580000200200029
:1008d00003042400db0507000002be001043800073
:1008e000214380000001be000400be00d5050700c2
:1008f0000002be0010438000214380000001be00c2
:100900000400be00cf0507000001be000800be00c5
:10091000160407000002be0080458000914580005b
:100920000001be000400be00c6050700b0408800fc
:10093000c1408800200f80008000eb006c0507009c
:10094000228220000089be00a00f80008000eb0002
:1009500067050700228220002001980031019800dd
:10096000b4218500c5218500b0218500c121850005
:100970000001be000400be00b20507001007980089
:1009800021079800b4218500c5218500b02185008c
:10099000c12185000001be000400be00a9050700ba
:1009a0000002be00b0218500c12185000001be000b
:1009b0000400be00a3050700300798004107980017
:1009c000b4218500c5218500b0218500c1218500a5
:1009d0000001be000400be009a0507000002be0030
:1009e000b0218500c12185000001be000400be00c9
:1009f000940507000002be00b0218500c1218500da
:100a00000001be000400be008e05070050079800dc
:100a100061079800208220001002be00a0852000ff
:100a20001000be000001be000400be00ce0307009f
:100a30000002be00b0218500c12185000001be007a
:100a40000400be00a8040700628620000089be00e2
:100a50002082200020029000b0029000a08520009b
:100a6000b0009000200090000001be000400be0015
:100a7000bd0307000002be00b0218500c121850032
:100a80000001be000400be0097040700628620003b
:100a900020019800310198000040eb00004f7800e1
:100aa000cb0137001e80fb00c18d20004200dd001d
:100ab000008040001002be001e80fb00c18d20009f
:100ac0004200dd00008040001000be000001be00ba
:100ad0000400be005b05070070079800010f980036
:100ae0001e80fb00418e20004200dd00008040009f
:100af0001002be001e80fb00418e20004200dd007f
:100b0000008040001000be000001be000400be00d6
:100b10004c050700100f9800210f98001e80fb0065
:100b2000618720004200dd00008040001004be000c
:100b30001e80fb00e18720004200dd0000804000b5
:100b40001002be00b0218500c12185000001be0059
:100b50000400be003b0507000001be000800be0007
:100b600082030700300f9800410f98001e80fb00a1
:100b7000e18720004200dd00008040001000be0040
:100b80006011b80079030700500f9800610f9800ba
:100b90001e80fb00618620004200dd0000804000d6
:100ba0001000be005e099000ee0990006e03070081
:100bb000700f9800011798001e86fb001e80fb0036
:100bc000c18e20004200dd00008040001004be0005
:100bd0001e80fb00e18820004200dd000080400014
:100be0001002be00b0218500c12185000001be00b9
:100bf0000400be00130507000001be000800be008f
:100c00005a0307000004be005e019000ee01900050
:100c10007e0090008e0890000a0507000200200068
:100c200003082400300407000001be000800be00d5
:100c30004e0307000004be001e80fb0061882000f8
:100c40004200dd00008040001005be001e80fb0059
:100c5000418f20004200dd00008040001002be00f5
:100c6000b0218500c12185000001be000400be0046
:100c7000f40407000001be000a00be003b030700a9
:100c80001e019000ae019000ee0407000002be00bd
:100c9000b0218500c12185000001be000400be0016
:100ca000110407000001be000800be002f0307006a
:100cb000c38e20004261dd00028141000089be0038
:100cc0001e85fb001e80fb00618820004200dd00c5
:100cd000008040001004be001e80fb00418f2000f9
:100ce0004200dd00008040001002be00b0218500ff
:100cf000c12185000001be000400be00d104070030
:100d00000001be000800be00180307000004be007a
:100d10003e019000ce0190007e0090008e08900071
:100d2000c80407000200200003002400ee030700af
:100d30000001be000800be000c030700638820000d
:100d40004251dd00028141000089be001e85fb008a
:100d5000b0218500c12185000001be00030307000a
:100d60000002be001e80fb00e18820004200dd0082
:100d7000008040001000be000001be000400be0064
:100d8000b00407000004be001e019000ae019000f8
:100d90007e0090008e089000aa0407000001be00ab
:100da0000800be00f10207000004be001e80fb0028
:100db000418f20004200dd00008040001000be0096
:100dc0000001be00e90207001e019000ae01900084
:100dd0009c0407000001be000800be00e3020700fb
:100de0000004be00b0218500c12185000001be00c5
:100df000de0207000001be000800be00ba030700c3
:100e0000e38820004251dd00028141000089be00dc
:100e10001e84fb001e019000ae0190007e00900039
:100e20008e089000870407000002be001e80fb00b1
:100e3000418f20004200dd00008040001000be0015
:100e40000001be000400be00c8020700438f20005e
:100e50004241dd00028141000089be001e80fb008e
:100e6000618820004200dd00008040001000be00cc
:100e70007e0990008e119000720407000004be00ed
:100e80001e80fb00418f20004200dd0000804000fa
:100e90001000be001e099000ae099000b3020700ca
:100ea0000001be000800be008f0307000001be0065
:100eb0003e089000ce089000ac020700300f98006a
:100ec000410f98001e80fb00418f20004200dd0092
:100ed000008040001000be007e0990008e1190003e
:100ee000580407000004be001e80fb00418f200054
:100ef0004200dd00008040001000be001e0990008e
:100f0000ae099000990207000001be000800be0073
:100f1000750307000001be005e089000ee08900017
:100f200092020700500f9800610f98001e86fb0088
:100f30001e80fb00c18e20004200dd0000804000ca
:100f40001004be001e80fb00618820004200dd000e
:100f5000008040001002be001e80fb00e1882000df
:100f60004200dd00008040001000be000001be0015
:100f70000400be00330407000005be001e80fb0015
:100f8000418f20004200dd00008040001000be00c4
:100f90001e099000ae099000740207000001be0017
:100fa0000a00be00500307000001be000800be009a
:100fb0006d020700c38e20004261dd000281410006
:100fc0000089be001e86fb001e80fb006188200099
:100fd0004200dd00008040001004be001e80fb00c7
:100fe000618820004200dd00008040001002be0049
:100ff0001e80fb00418f20004200dd000080400089
:101000001000be000001be000400be000d04070079
:101010000005be001e80fb00418f20004200dd0065
:10102000008040001000be001e099000ae09900034
:101030004e0207000001be000a00be002a0307009e
:101040000001be000800be004702070063882000c0
:101050004261dd00028141000089be001e86fb0066
:101060001e80fb00e18820004200dd00008040007f
:101070001000be000004be0009f0a2001e80fb00ac
:10108000418f20004200dd00008040001005be00be
:101090001e80fb00418f20004200dd0000804000e8
:1010a0001000be001e099000ae0990002f0207003c
:1010b0000001be000a00be000b0307000200200072
:1010c00003f82300280207000001be000800be004c
:1010d000dc030700e38820004261dd00028141005b
:1010e0000089be001e86fb001e80fb00418f200091
:1010f0004200dd00008040001000be000004be0081
:1011000009f0a2001e80fb00418f20004200dd009c
:10111000008040001005be001e80fb00418f2000b3
:101120004200dd00008040001000be001e0990005b
:10113000ae0990000d0207000001be000a00be00cb
:10114000e90207000200200003f82300060207005e
:101150000001be000800be00ba030700438f200054
:101160004261dd00028141000089be001e81fb005a
:101170001e80fb00218220004200dd000080400034
:101180001000be00a38520004211dd000281410055
:101190000089be001e80fb00618720004200dd0048
:1011a000008040003e099000ce0990000288be00f9
:1011b0001e80fb00e18720004200dd00008040002f
:1011c0005e099000ee0990000288be001e4fe80004
:1011d0001e407800e14f500032fe36006000b8003b
:1011e0001017980021179800000020000104240027
:1011f0003017980041179800a0702d0031c22300cd
:101200005017980061179800a0702d0031c223007c
:1012100070179800011f98006000b800101f980018
:10122000211f98000000200001042400301f9800b6
:10123000411f9800a0702d0031c22300501f98005c
:10124000611f9800a0702d0031c22300701f98000c
:1012500001279800200f80008000eb002403070086
:10126000228220000089be0034408000454080007a
:10127000208220001000be000001be000400be005d
:10128000b9010700a28120000089be00a0812000d2
:101290001000be001e119000ae11900069030700ff
:1012a000a28220000089be00a08220001002be00a1
:1012b00090408000a14080000001be000400be00fc
:1012c000aa010700228320000089be00208320009d
:1012d0001002be00e08720001000be000001be002a
:1012e0000400be00a0010700a28320000089be0008
:1012f000a08420001002be00a08320001000be00c9
:101300000001be000400be0098010700a284200076
:101310000089be00a08320001000be003e11900096
:10132000ce1190004703070002002000a33f2400d5
:101330008e0107000004be00a08420001000be0043
:101340005e119000ee1190003e0307000001be0008
:101350000800be00850107000004be00a083200035
:101360001002be00208520001000be000001be005b
:101370000400be007c0107007e1190008e199000d1
:10138000300307000001be000800be00770107001f
:10139000228420000089be00a00f80008000eb00a6
:1013a000d30207002282200020019800310198001a
:1013b000744080008540800020822000b0009000b2
:1013c000200090000001be000400be00660107007e
:1013d000a28120002001980031019800a081200006
:1013e000b0009000200090001e199000ae199000ef
:1013f00014030700a2822000200198003101980008
:10140000a082200020029000b0029000b040800036
:10141000c14080000001be000400be00530107006f
:1014200022832000200198003101980020832000b1
:1014300020029000b0029000e0872000b0009000f1
:10144000200090000001be000400be00460107001d
:10145000a28320002001980031019800a084200080
:1014600020029000b0029000a0832000b000900005
:10147000200090000001be000400be003b010700f8
:10148000a28420002001980031019800a083200050
:10149000b0009000200090003e199000ce199000fe
:1014a000e802070002002000a33f24002f010700ec
:1014b0000004be00a0842000b00090002000900036
:1014c0005e199000ee199000de0207000001be00d8
:1014d0000800be00250107000004be00a083200014
:1014e00020029000b002900020852000b000900003
:1014f000200090000001be000400be001a01070099
:101500007e1990008e219000ce0207000001be00df
:101510000800be0015010700228420002001980069
:1015200031019800208420001000be0018c0b300d4
:1015300002002400c36124002f0207000000e00025
:1015400001003c000044eb000804e000040032000d
:1015500041a22200007122000100010015003700a5
:10156000208420001000be0018c0b3000200240038
:10157000c3612c001e0207000000e00001003500de
:101580000044eb000804e0000400320041a2220005
:10159000008f2d00010001000600370048a2220044
:1015a000208420001000be00150207000000780013
:1015b0000800010020842000b0009000200090006e
:1015c00018c0b30002002400c36124000a0207000f
:1015d0000000e00001003c000044eb000804e000d3
:1015e00004003200819f22000071220001000100ee
:1015f0001700370020842000b000900020009000e9
:1016000018c0b30002002400c3612c00f8010700d9
:101610000000e000010035000044eb000804e00099
:1016200004003200819f2200008f2d000100010084
:1016300007003700889f220020842000b00090001f
:1016400020009000ee010700000078000800010073
:10165000a08320001000be00228520000089be006b
:10166000a0832000b0009000200090002285200080
:101670002001980031019800144380002543800028
:10168000e0448000f144800018c0b3000001be00b7
:101690000400be00d60107000000e0000100350094
:1016a0000044eb000804e0000a003200144380000c
:1016b00025438000b0218500c12185000001be00c6
:1016c0000400be00a90007001043880021438800e1
:1016d00020003700e0448000f1448000104388007f
:1016e00021438800a28420006000b8000089be0069
:1016f000a28420006000b800200198003101980009
:1017000041a222000000eb0001000100819f2200a5
:101710000000eb0001000100208220001000be004c
:10172000104088002140880020822000b0009000f6
:1017300020009000504088006140880005e1a90029
:101740006000b800e0448800f1448800a0ccb300f9
:10175000c10d070010c0b300cfe8b7008460a90036
:101760000080fa004f0678004f05be004f04be000f
:101770004f03be004f02be004f01be004f00be002f
:101780003600f900004006000040da000000fe00cc
:101790000a00fa0011002000b1bf9f00c0bf9f00e7
:1017a0006a8057006e0907004fb897000080fa0062
:1017b000000006000a00fa00e20f500034003e006c
:1017c00010508000e10f500003003200e20f500083
:1017d00011003a000c003700032220000300e00053
:1017e00001003a000040da002002e2000200350069
:1017f0002822ef0021e2a8002342ab000d003a00ae
:101800002342a8000b003700032320000300e00060
:1018100001003a000040da003002e2000200350028
:101820003822ef0031e2a8003342ab0001003a0059
:101830003342a800820178000b0037003102fb0020
:10184000e10f500004003a002322ab00feff3a00f3
:1018500024118800030037003322ab00feff3a005a
:10186000a41188008301e9000300e000f3ff3a00bf
:10187000e10f500003003a002302ab00feff3200ec
:101880000b0037003302ab00feff320008003700c8
:1018900033002000b3bf9f00c0bf9f00d1bf9f0097
:1018a000e2bf9f006a8057002f0907006fb99700b9
:1018b000020078000080fa00000006000a00fa002a
:1018c00051002000b1bf9f00c0bf9f006a80570039
:1018d000270907005fb897000080fa0000000600a3
:1018e000889fbe0080047800205080000000e00047
:1018f00004003a000e0007000084eb000000e00046
:1019000008003500285080000900e0000500320082
:1019100009004400060007000000e00001003d004f
:101920000084eb00080078004f04be0000000600b1
:10193000800078000100e00003003a000000200071
:1019400020508800000005000080eb00020020000d
:10195000828f500002003e00215088000000eb0002
:10196000000006000000050003f0a200889fbe00f2
:101970008a9fbe008c1f78009a010700a1013300e6
:101980006450e1004f0032006420e1005200320058
:1019900003826c0007003b000905d0000306d0005d
:1019a000820f54000c065d00020039000200320074
:1019b00089017800030678008582550004003d0007
:1019c0000003fd008103fd008502ea008b854200d3
:1019d000840f720002003b0060001000e0801800dd
:1019e0006011b8000005eb007a28e1000a00390018
:1019f00006007800c75ddd00f707b200878075003c
:101a00002d003700828171000a01780061056000b5
:101a10008180d1000080d3008502e900f9ff3b00fe
:101a2000060440008784480002003b006004140064
:101a3000e0841c000988a300070032008a8171003d
:101a400082817100610164008904d1000884d3009f
:101a50008b05e800170037000978a30013003a004f
:101a60000b00e000130034008b05e900080444007b
:101a700089844c000a4474000978a3000d003a00e0
:101a80000b00e000070034008b05e9000804440067
:101a900089844c0001003a000b0020000978a30063
:101aa000f7ff32000001eb00020037008281710075
:101ab0000a017800100107000cf0a70001f0a00057
:101ac000590137006420e10002003a00838f6c0066
:101ad000590133000801be000200be005201370068
:101ae000889fbe008a9fbe008c1f78003d010700c2
:101af0001002200002003b00e0478800410137004f
:101b00008a0062006408e10002003a00e0478800b1
:101b1000490137006108e100fcff32000800be0007
:101b2000030478007000070001f0a100090007001d
:101b300008f0a600040037000001be009104240054
:101b4000b0fd200088ff070009f0a70001f0a20007
:101b500035013700889fbe008a9fbe008c9fbe0063
:101b60000004be000a0107000800be0089067800d4
:101b70006420e10008003900040032000160a00088
:101b800012022000e24788005300370091fc230036
:101b9000b0fd20004e0037000006eb0009f0a10068
:101ba00003f82300020020000800be009000070098
:101bb0000600340001f82300000020000801be00e8
:101bc000490007000004be002c0020000800be00f1
:101bd00093e82300320a2300850007001200340036
:101be0000801be00d1fd2300703d2b005fff070000
:101bf0000005be00b3f32300f27a26000800be0001
:101c00001001070003f823000200200056ff070020
:101c10000801be0055ff07000a01be0032000700a0
:101c20000004be000c06e8000800be0001f0a100a0
:101c300002002000039823006d0007000800be008a
:101c4000160035000801be00fe0007000005be00ba
:101c500032cd2c0043fb230044ff0700809fbe00d1
:101c60001269280003d52b000a00be00f50007000a
:101c7000620f210013ef2b003cff07000a01be009a
:101c8000f00007004f01be00170007000801be006a
:101c9000ec0007000801be0034ff07000c00e00064
:101ca0000b0032000c10a70001f0a200b2fd2000d2
:101cb00093fc23006260e1000400320022a92000ae
:101cc00063f023000c10a70063f8230027ff070030
:101cd0000df0a70001f0a2004f06be004f05be00a8
:101ce0004f04be0000000600889fbe008a9fbe0011
:101cf0008c1f7800bb000700c200330003866c0015
:101d00006450e1002e0032006420e1003300320014
:101d10006150e1002f0032006120e100310032000b
:101d200085855500eb07b00009002000080420005d
:101d3000050037000804440089844c000a00310083
:101d40000603430087834b000001530081815b0041
:101d5000f8ff33000203be000800a000080444009e
:101d600089844c00f6ff3900c639dd008301730019
:101d700001003200130020008904d1000884d30040
:101d80000998a300050032000800a7000300a00086
:101d90008904d1000884d3008b05e8008904d100b0
:101da0000884d3000001eb000281d200520007003a
:101db00001f0a1000cf0a70001f0a0009a0037008c
:101dc0006420e1009c0032000801be000200be0059
:101dd000f7ff37006120e100970032006000b80093
:101de000f3ff37000000200001f82700f0ff370064
:101df00014002000fc003700f4ff2f00fa00370029
:101e00000001be00620007000470a70003f0a100fb
:101e10006509b100160032000d0035006828e100a8
:101e200006003500f0ff2f00f1ff27000300e0005f
:101e300013003b00010028000000050000004000e6
:101e4000818048008502e900fcff3a000800370065
:101e5000f88f420002003c008000eb00000005000b
:101e60008100d1000080d3008502e800fcff3a0029
:101e70000300e00002003b0060001000e08018005a
:101e8000000006000001be00410007000470a7002a
:101e900003f0a10003f8a30013003a006509b100a4
:101ea00010003200090035006928e1000200350009
:101eb000010028000000050000004000818048006b
:101ec0008502e900fcff3a0000000600f88f42009e
:101ed000050035008100d1000080d3008502e800b4
:101ee000fcff3a00000006008000eb000000050047
:101ef0006011b800d70037008100200061805500d4
:101f00000b003d000b00200061fe2f000100e100ee
:101f10001d00340082817100610164008904d100d8
:101f20000884d3000000e800faff3a0071002000a6
:101f300061006400030070000200600009003200cc
:101f400061044400e0844c000988a50005003200cb
:101f50008b05e8006808e10002003a008904d1001e
:101f60000884d300f20f20000258e10005003d0074
:101f7000c75ddd00f907b2008980750008007800b0
:101f8000000006000bf827008b0078000000050019
:101f9000c70ade00f107b200f50fb20008003200f8
:101fa000e1cf4200020032000170a00024000500d1
:101fb000810f700001003200040805004400050094
:101fc000810f700002003a00140005008502e9004c
:101fd0000000400081c04800fcff3b000170a000f1
:101fe000240005000004be00e9ff07000003be0056
:101ff0000405be000200be00e5ff0700844f750027
:10200000000006000200be006450e100050036003a
:102010006420e100020036000968a30001003a00d4
:102020000800be000160a0004f0678004f05be000a
:102030004f04be0000000600f0ff2f00f1ff270054
:10204000f9ff3700889fbe008a9fbe008c1f780072
:10205000e4ff0700ebff330003866c006450e100ef
:10206000240032006420e100270032006150e100ca
:10207000220032006120e100210032008b85420005
:10208000eb07b1000134b800003ab8000804420080
:1020900089844a00013ab8000030b80088804000c6
:1020a00009014a000400330000004000818048001c
:1020b000020149008b05e900c909dd0083017000b8
:1020c0000100320013002000c814de004814dd00b7
:1020d0004709de001200b200c808de000884700064
:1020e00085ff070001f0a1000cf0a70001f0a0009f
:1020f000cdff37006120e100cfff32000801be00b4
:102100000200be00f7ff37006150e100fcff3a001b
:10211000c9ff3700889fbe008a9fbe008c1f7800d1
:102120000004be009aff07000478a30026003a00ce
:102130006120e1002500320009f8a30025003a00e3
:102140006420e10021003200f507b1000508a3007a
:102150000200320000004000818048006044b80066
:102160000310200002002000000040008180480091
:102170000805440089854c000a0541008b8549000b
:102180000a0550008b855800030033000a00be008a
:1021900002047400838474008301d1000281d3009f
:1021a000830f7100f0ff3a008904d1000884d30046
:1021b0006001490082017800c1adde00fb07b0007c
:1021c0004dff070098ff37000960a0000800be001f
:1021d00095ff370012022000e2478800f0ff2f0031
:1021e000f1ff270090ff3700889fbe008a9fbe0046
:1021f000841f78007bff07004f0078001100330038
:10220000f0ff2f00838f6c0006003b000405650083
:102210000a00a7000800370009f0a60010002000ff
:1022200008003700820f5400838f5c0003003900e0
:102230001000200001003e000000200009f0a7006f
:102240000000ea004f05be004f04be000000e000a1
:1022500000000600889fbe008a9fbe0000827000ba
:102260000402710004827100260032000004be00e6
:102270000200be006011b8006b092000950220002a
:102280000182cf000a0039000541b1000082cf0071
:10229000070039000541b1000982cf000400390070
:1022a0000541b1000882cf00010039000541b100ad
:1022b00005425200120032000a003b008281710088
:1022c000610164008100d1000080d3008984d300c3
:1022d0000884d3008b05e8000442e800f7ff3a00c9
:1022e000070037000804440089844c0000004800bf
:1022f000818048008b05e9000442e900f9ff3a00bb
:10230000fdfe07004f05be004f04be0000000600a2
:10231000889fbe00000478000100780082047800e5
:102320008801780009017800110020000e000700e4
:10233000890f5000010032000004eb000800780013
:102340004f04be00000006000000fa00e8815700bc
:102350004fb99700619220008018210057010700b3
:102360000080fa0000000600889fbe008a9fbe0021
:102370008c9fbe008e1f7800000678000104780054
:1023800002007800830478000881b9000207780011
:102390000200e000420032000800e000410032008c
:1023a00082057800c900900069009000808f50007d
:1023b0000400390009007800500007000000e00028
:1023c0002900350000402000190060000a0032009a
:1023d0000b017800a10020000c00780036000700f7
:1023e000800678000d00e00006003200610516004e
:1023f0000a854600040037000b0578008006eb00d4
:10240000010037000b05780049009000e9009000ba
:10241000808050008a8f5000020031000105780052
:102420008006eb000a0178008c0078002c00070081
:102430008a855500490090000a004000c0049800b9
:102440000d00e0000400320009007800d50007000c
:102450000000e00004003a000b00e000020032003f
:102460000a064600cfff37000080200019006000f8
:102470000200320009007800ca00070000c02000f6
:10248000190060000200320049009000e00498004a
:102490008b055700110009008885d800010037001e
:1024a0000000eb004f0778004f06be004f05be004e
:1024b0004f04be000000060003003700b0cf10003c
:1024c000050032000201e900800178000200e0000e
:1024d000faff3a0000000500030078000000060043
:1024e0008001780002003700b15978000201e9004c
:1024f0000200e000fcff3a0000000600889fbe00da
:102500008a1f780000047800c800900068019000dd
:102510000000eb00828f50003c003900180078006a
:102520002200290002016000e20f51000700320082
:10253000012024000000e00001003d0001202000f7
:10254000008c70000080eb00300037000200260095
:1025500002006000820f500009003a00380090002d
:10256000808f500006003900080078008d000700b9
:10257000800078000080eb000100e00023003a00ba
:102580001805780000c020000000650018003a001f
:10259000a80490006002200008004000808f5400d2
:1025a00013003a000020200079040700200498005e
:1025b0000000e00005003a00290498004904980052
:1025c0008904e80039049800080037000a60a00078
:1025d0000a0c780040049800012020008080400010
:1025e00031049800400c9800500c98000c00070033
:1025f0002800900050049800380090006004980073
:1026000000002600180c70000000eb004f05780059
:102610004f04be0000000600203b21009b00370055
:10262000881f7800c89f20001804e00003003a00cb
:10263000f9ff070020c0b300004c78004f04780079
:1026400000000600889fbe000004780008007800a3
:102650005400070080047800000420001800600087
:102660000200320028009000cf0307000000eb00ba
:1026700020049800384090000004e0000500350078
:102680000000fb0042fc07000000e00001003200f7
:102690008084eb00181090000000e0000800320079
:1026a00086fc07000000e000010032008084eb009f
:1026b00018109000bc0307000000eb0010149800f5
:1026c0000008200018006000150032000001eb0037
:1026d0006000b800639720000202d00063027a0015
:1026e000880f520005003a00000040008180480039
:1026f000008041000008eb00060037006100400048
:10270000e08048000201e800e80f5000e08f580028
:10271000f0ff3a0008007800a30307000e0037001e
:10272000000c780000c0eb003044980060022000ec
:1027300008004000200498004004980050049800cd
:10274000400c980060049800500c980070049800a9
:1027500076004400000c9800090078004f04be0089
:1027600000000600881f78000004eb006140b800fc
:10277000e2ff2f00f3ff2f000d0707004298200013
:10278000620078000000e00001003200adff0700a9
:102790000804e800e80f5400f4ff3a004f04780002
:1027a00000000600889fbe00000478000800e000da
:1027b0000e003a008004eb008800d00060972000f3
:1027c000610078000000e00004003200f5ff07001f
:1027d0000000e00001003d008084eb000804e800f8
:1027e000e80f5400f4ff3a002500370000002200f3
:1027f000180060008004eb0021003200a804900063
:102800000f00370009015100384090000000fb0024
:1028100089007800e7fb07000000e00007003c00ab
:10282000280090004004980060049800500c980024
:102830001890a0008084eb001100370080844400d1
:1028400048019000828f5400eeff3900280090006c
:10285000400498009800780002c0200002816000c7
:1028600001003a003800900001e8a30002003200a5
:102870006004980001003700500c98008004eb00c1
:10288000090078004f04be0000000600010020008f
:102890000100e00008003200010080000100e000bb
:1028a000050032008100e900010088008100d000ad
:1028b0000200800000b17800000006006200fa000b
:1028c000889fbe008a1f7800000578008104780088
:1028d000020478008300780080f92f000f00400088
:1028e000d10407009a979f00a9979f000000eb0072
:1028f000b09f9f001885fb008a04fb000a05ea00d0
:102900004f55de0050022000808f54000d00320031
:10291000e10f55000b003a000a01780088007800aa
:102920002f9097009f91970003000100a0979f00b0
:102930000000e0008e0032003f9897000000e800a1
:10294000b09f9f000a04440050022000808f540072
:10295000040032000900e000e6ff3a003f989700cb
:10296000840037000000eb00909f9f00809f9f0035
:10297000f0979f00e0979f00d0979f00c0979f001f
:1029800007003700219f2000010050000000400098
:10299000619e200061007800df98970001007000c0
:1029a000d09f9f008804780009047800384578009b
:1029b0008a00fb00209f20009f0307000000e0002a
:1029c000f0ff3a00a1c2b300814f55000e003a005b
:1029d000cf8897000180e900c08f9f001000780029
:1029e000c09f9f000000e00005003d000000ea00dd
:1029f000c09f9f005f9897000020a000d09f9f007d
:102a00000904e8000f003700c09f9f000000eb00a2
:102a100005003700f2ff2700820f5000020032004d
:102a20006a01b90002804000090478008804780037
:102a3000b900fb000103b100e98f5000f5ff36003b
:102a4000c09f9f00e0c2b300984f10000200320008
:102a50000080eb0019003700a0c2b300d84f10006f
:102a600007003a00cf8897000180e900c08f9f00df
:102a700010007800a09f9f000804e80010003700b5
:102a80000000eb00a09f9f00880078000500370041
:102a9000f3ff2700830f5000020032006a02b900e2
:102aa0000400410001047800880078003101fb0037
:102ab0000203b100e90f5100f5ff3600a09f9f000f
:102ac000984478008900fb00e09d20005a0307002d
:102ad0000000e000020032000804e80001003700b6
:102ae0008044eb00c97f9f0080c6b30080cf5400b4
:102af00004003a0098cf14000a003a0066405000e3
:102b000006003700c0c6b30080cf540005003a006d
:102b100098cf140003003a0065404000c07f9f003a
:102b20000804e8001801fb00e3fb2f008f8141003f
:102b300081f92f008f804000a0f92f000f00400086
:102b4000100007000000e00009003a00e1fb2f0040
:102b50008f804000a0f92f000f004000760307008f
:102b60000000e000020035000804e80061ff3700c3
:102b70000080eb004f0578004f04be000080fa0093
:102b800000000600889fbe008a1f780000047800bd
:102b9000824478000305780070c4b30080cf5400ed
:102ba0000a003c0000c0e90080cf54000f003d0047
:102bb00050c2b30080cf5400350032007c4040004a
:102bc00080cf540035003a000800370010c6b3002b
:102bd00080cf54000500320030003500b0c9b3008a
:102be00000c04400e24f50002c003e0028619000dd
:102bf000c0c4b300804f510006003a0011017800b4
:102c000068005100800878005001be004000be00fe
:102c10000500370011017800640051008008780039
:102c20001000be000c050700009cbe000294be0010
:102c3000b8009000780090000100e00002003d0024
:102c4000d1c2b30008003700881090000118a3001b
:102c500002003200b1c2b300030037000108a30034
:102c60000400320001c2b300017578000000e800e2
:102c70007004980078009000000545006a049800f0
:102c80008900fb0008007800100007000b003700e7
:102c900078009000097578000600370078009000f1
:102ca000000545000904e00001003a0059c2b300e4
:102cb000094d78000000e800700498000000eb0067
:102cc0004f0578004f04be00000006002f04b0003e
:102cd000889fbe008a9fbe008c9fbe008e1f78001a
:102ce0000007780081f79f003e04be002e05be005d
:102cf0005e0890000000e00002003d00600020003f
:102d0000500f98008e00780020fb2f000f0040002d
:102d1000df020700e20f50000a003a0030002000f6
:102d2000100f9800b1c9b3000ff097008140400028
:102d3000a0982000e1cf50000d003e0060982000d8
:102d40000b0037000000e0000f00340030002000ce
:102d5000100f9800b1c9b3000ff1970081404100f6
:102d600020992000e1cf500001003e00e0982000b3
:102d7000ee009000b0487800b0687800104078000d
:102d800090409800f30037000000e00005003a0092
:102d900022fb2f000f014100001978008001eb0099
:102da000e70037006022b8006033b8000800be00ba
:102db0000a01be00f00307000000e00001003d0032
:102dc0000bf0a200705927009f9897000088b90067
:102dd000026a2800130020004b040700640650001c
:102de0009c9f9f0013003b0063061600c0ff2f004e
:102df000000666008c01ea00939f9f006d992000f9
:102e00000800be000a01be00070037000c08a3003e
:102e1000030032003d02be002d03be00dc040700ab
:102e20000c86d100e88646000c00e000f7ff3c006d
:102e3000180037000c00e00018003200c0ff2f001f
:102e4000000666009c9f9f006d9920006000b800fe
:102e50000200200003ff2300070037000c08a30036
:102e6000030032003d02be002d03be00c80407006f
:102e70000c86d100e88646000c00e000f7ff3c001d
:102e80000002be000203be000800be000a01be0030
:102e9000c30307000004be000205be00de08900068
:102ea00060c6b3000ff29700804f5200040032005a
:102eb0006000200062c4b300824f520002003a005a
:102ec0009f9a97006a80420081004000f1b79f00fe
:102ed00001037800f30f5300020034003701200093
:102ee000f7b79f0000c3b300c0779f0056fb2f00c9
:102ef0000f0343000e007800a0b79f00060778007c
:102f00003d0037000800be000a01be007104070042
:102f10000006be007fb1970068015100f2b79f0024
:102f20004240a9000c003400960407000002be00d5
:102f30000203be000800be000a01be000a05070029
:102f40006022b80046782d0077192400900407000d
:102f50000004be000205be00e80047008e0020000d
:102f60000802be000a03be00b4b79f00c5b79f00a9
:102f7000d6b79f00e7b79f000c01be0001047800a0
:102f80000c003700a400200005002000c0fd2f0029
:102f90000f004000b60107006fa89700ffa8970038
:102fa0000fb197009fb1970005c3b30005644100be
:102fb0000001be00e00f5100e08f59000300340013
:102fc0000e07e900e10f4700eeff3a0088007800a5
:102fd0003fb49700cfb497005fb59700efb5970067
:102fe0000200370000c3b300806078000e07e900dc
:102ff000fcff3b00688740007fb397000600e000bd
:10300000070034006022b8006033b8000800be003a
:103010000a01be005d0307000000e000b9ff3c00ac
:103020000e0378002fb7970051fb2f008f804000d0
:10303000010353009f9b970067804300909f9f0070
:10304000020037000603e9000000e90001017800f2
:103050008200780003c3b300b1cf1100f9ff320042
:10306000909f9f00de09900061c6b3000ff29700a9
:10307000814f52000300320061c4b300814f5200ff
:1030800002003a000000e8000a00370010002000ab
:1030900051c6b3008ff2970081cf52000500320075
:1030a0000540780050c4b2000080fb000000e90039
:1030b0004f00de0083014000868f51000100340084
:1030c000860178000300e0001d00350000c3b30056
:1030d000868f510006003d0062c2790069404000c1
:1030e00041c3b300814f520001003c0069405000d1
:1030f0008300e9008100410001003700840178006d
:103100000302e90001037800a142780080cf520059
:10311000faff320091c3b300814f500001003a0022
:10312000054be8000400e00005003d000201e90055
:103130008301e8001f9b97000603e800969f9f000d
:103140008ff397008700fb001f9a97000e0078000e
:10315000060007004f0778004f06be004f05be006f
:103160004f04be002f04b10000000600f0874700a6
:10317000889fbe008a9fbe008c9fbe008e1f780075
:1031800000047800814478000205be00040678003f
:103190000b00e00002003c001b002000ea9f200022
:1031a00060c6b30080cf54000e00320060c4b3008c
:1031b00080cf54000b00320070c6b30080cf5400a3
:1031c0000300320070c4b30080cf540081003a0085
:1031d000e40f46007f00350058089000800f56002d
:1031e0007c003d000c06e80060c6b30080cf5400b0
:1031f0001000320060c4b30080cf54000d003200d4
:10320000081090000038a30004003a00580890000d
:10321000808f550001003d005b0c9800580890001d
:103220000c005000500c980002003b000000eb0026
:10323000500c980018089000e80090000c00e00086
:1032400026003c0002c3b300827078000000e80052
:10325000100c9800d80890000100e00003003c002a
:10326000881090000138a30005003200e8009000ab
:10327000e2c2b300827078000000e800100c9800f1
:10328000580890008c00ea00810f500001003d00ba
:103290000006ea008c00ea00210c980000064600b7
:1032a0005c0c98008b0f5600010034000b06780070
:1032b0003c0c9800e8009000180890000080400046
:1032c0000c0178008a00780085fc070058089000ff
:1032d0000c0650004c0c9800900037008c8f550065
:1032e00018003d00008040000b0178008a00780043
:1032f0007bfc07001808900000804500100c980027
:103300008b0556002b0c9800d80890000100e000b7
:1033100003003c00881090000138a3000600320032
:10332000e8009000e2c2b300827078003808900094
:103330000000e800300c980058089000400c9800fd
:1033400076003700008040000c0178008a00780089
:1033500063fc07001808900000004600100c98005d
:103360008c855500d80890000100e00003003c0067
:10337000881090000138a30005003200e80090009a
:10338000e2c2b300827078000000e800100c9800e0
:1033900058089000808f55000100340080057800a7
:1033a000e800900018089000008040008c00450064
:1033b0000b0178004afc0700180890000b00400041
:1033c000100c9800580890008b0550002b0c9800aa
:1033d0005200370018089000e80090009a707800ba
:1033e0000000e800100c9800d80890000100e000f0
:1033f00003003c00881090000138a3000500320053
:10340000e8009000e2c2b300827078000000e8009b
:10341000100c9800580890000000e00010003400e4
:103420008b05e900808f550001003400800578008d
:10343000e800900018089000008040008a00e80032
:103440000b01780026fc0700180890000b004000d4
:10345000100c9800580890008b0550002b0c980019
:10346000e80090001808900000804000095878009b
:103470000007e8000c00e00004003500b1c2b30012
:10348000014878008e04780004003700d1c2b300f0
:10349000014878008e0478000c06ea007d8557000c
:1034a0008006eb0009003700a20020008c007800a5
:1034b00072805700310007007fb097008fb89700e7
:1034c000016d7800000678008d06e8000c00e00031
:1034d000f5ff3c000d00e00009003a008e04780082
:1034e00000c3b300805c7800050037008d06e9005a
:1034f000fc80570061c07e0002c3b300825c4000c4
:103500000d00e000f9ff3c00e80090001808900072
:103510000080400080845400390c9800081090000e
:1035200074006000f00f50000e003a009808900000
:103530007800900000804000a80890000100400042
:10354000b808900001004000c80890000100400049
:10355000f8089000810f500002003d0000805000ec
:10356000000c98004f0778004f06be004f05be00c4
:103570004f04be000f01b100000006008002780079
:1035800001037800110009000203d80080017800cf
:10359000830a78000299b900020153009202980050
:1035a00005007800000006000000e0002f00320057
:1035b000c0017800e38f51002c0036000308a300ff
:1035c0002a003a00d14f80000100e00002003200e2
:1035d000810f50000400310011009800d04f880086
:1035e0001600370082007800110190000200e00010
:1035f00002003200800f5100faff390011027800fa
:1036000084824000850f500018003900808f5200de
:1036100003003a00830842000100780007003700e9
:103620000200e0000300320083014000830f5100dc
:103630000e00390012009800900098009000900051
:103640000100e0000900320010014000828f5000ac
:1036500006003a00829f20000009eb00100178006c
:103660001108410091009000110098000000060030
:10367000881f78008a9fbe008c9fbe0000047800df
:103680000205be000406be000401be000a00be0022
:103690001d020700008cbe000c01be0044030700a1
:1036a0000005550081855d002a0498003b049800c0
:1036b000080078004f06be004f05be004f0478009a
:1036c00000000600889fbe0000047800c14f800003
:1036d0000100e00002003200010078000d00370018
:1036e000d14f8000a09f200004003700910f5400ac
:1036f000250036000180e800910090000100e00004
:10370000faff3a0010003700920f54001e003600f6
:103710000280e800100178000200e000faff3a00a1
:1037200011017800d14f8000a09f200004003700d5
:10373000910f5400140036000180e80091009000c1
:10374000828f5000faff3a0009508000888f5400a1
:103750000100310088047800090078004200070069
:103760000000e00004003a00888f54000500320099
:103770008904d100f5ff3700091878008aff070097
:10378000d2ff37000000eb004f04be00000006002f
:10379000881f7800630440000800a1008000eb004f
:1037a000800f540021003600e30f540001003e005a
:1037b0004800200008007800c2ff07008000eb00ee
:1037c0000000e000190032009000780091017800bc
:1037d00064815100880f51000300310011019000f5
:1037e00002087800070037000881400002087800ce
:1037f0009101900013019800100178001109140044
:1038000088087800100178000000eb000200e0005a
:1038100004003200920190000300e0000100320039
:103820000280e800c04f88008180e8000100780035
:103830004f04780000000600020037000304e00097
:10384000060032000001780002007800b0417800e4
:1038500081cf5100f9ff3a00010037000001eb0071
:103860000200780000000600800078000000eb00f5
:103870000100e000050034000100780018f807009e
:10388000e10f400001003a000000eb0000000600dc
:10389000889fbe0000047800e68440001900d00034
:1038a0004500de00f27f2000820f500010003a0039
:1038b000000ceb00990478006f8164002000200068
:1038c0001b003a00210190000200e00018003a00bd
:1038d000110190000200e00015003a0010002000e5
:1038e0001100e0001200320020002000100037001c
:1038f0000000e00004003a0001007800cc0007005e
:103900000000e00008003c00f200280019016100fe
:1039100001fe2300810c710021c02f00010c40002a
:103920000080eb0002003700000ceb000000eb0011
:103930004f04be00000006000400fa00889fbe008d
:103940008a9fbe008c1f7800000478000106780072
:10395000f80d9000780090008085550008089000d0
:103960008085550018089000808555002808900033
:1039700080855500380890008085550048089000e3
:10398000808555000002220090bf9f0000032300a5
:10399000a0bf9f00081090000028a30015003a0067
:1039a0000b00e000130034000b0578008a04780057
:1039b000e20f55000100360029002000c8019000e8
:1039c00009017800ee8057005800900003000100c4
:1039d000500498000000e0008c003200680890005d
:1039e00009004000600c9800090555004240a900fc
:1039f000eeff3c00780190000200e0000c00340073
:103a0000c80190008c00780058009000030001006d
:103a1000500498008080eb000000e0007c00320041
:103a2000e80890007800900000804000600c98004a
:103a3000880c90000900e0001100340009057800ae
:103a4000e28f5400010036002a002000c8019000d7
:103a50000a017800ec805700580090000300010034
:103a6000500498000000e0006800320068089000f0
:103a70000a004000600c98008a845400edff370073
:103a8000180990000200e0000c003400c80190000a
:103a9000e8009000580090000300010050049800d6
:103aa0008080eb000000e00059003200e808900040
:103ab0001808900000804000600c9800a80c90004e
:103ac0000900e0001100340009057800e28f54007d
:103ad000010036002a002000c80190000a01780089
:103ae000ec8057005800900003000100500498003b
:103af0000000e00045003200680890000a00400025
:103b0000600c98008a845400edff3700380990005b
:103b10000200e0000e003400e80090001808900059
:103b200080804000c8019000580090000300010010
:103b3000500498008080eb000000e0003400320068
:103b4000e80890003808900000804000600c980061
:103b5000c80c90000900e00011003400090578004d
:103b6000e28f5400010036002a002000c8019000b6
:103b70000a017800ec805700580090000300010013
:103b8000500498000000e000200032006808900017
:103b90000a004000600c98008a845400edff370052
:103ba000081090008000eb000028a30018003200ed
:103bb0000b00e000160034008b0478000905780043
:103bc000e28f5400010036002a002000c801900056
:103bd0000a017800ee8057005800900003000100b1
:103be000500498000000e0000800320068089000cf
:103bf0000a004000600c98008a8454004240a900ea
:103c0000eeff3c008000eb00010037008080eb00fd
:103c1000010078004f0678004f05be004f04be003b
:103c20000080fa000000060001087800000006008d
:103c3000e6004000110178000500280085026100bf
:103c40006f0161008208780002003200120020003b
:103c500011003700a0019000120020000300e000d6
:103c60000d003a00900190000300e0000a003a00c5
:103c70001000e00008003a003600370064034000fe
:103c80009608780080017800530b7800900978003e
:103c90000408780070015100110278000400e0006f
:103ca000f6ff32001300370064024000140378006e
:103cb0004f33de0083814100830873008001780068
:103cc000d3037800cf3bde001403780006034300e3
:103cd000068a730013027800040242001003780081
:103ce0004f33de008609720090017800038841009e
:103cf0000201e90091017800ef8f5100eaff3600e0
:103d00001000370080017800530378004f33dd0046
:103d10001002d1000408730064024000940378008c
:103d2000cf3bdd001303d1008689730011037800b7
:103d30004f33dd009401d100030a73009108d100d4
:103d40000201e80091017800ff8f5100edff3e0075
:103d5000ef88610091887200020078000000060080
:103d600000c0da000000060000c0da000000060013
:103d700000c0da00000006008f1fd100100207000b
:103d80008f87e9000000e00000000600809feb0044
:103d90000b0207008f87e9000000e000000006002a
:103da0002800fa00889fbe008a9fbe008c9fbe003c
:103db00003866b008f0007006400e10044003200be
:103dc0006408e1004a0032006100e1004600320070
:103dd0006108e10049003200ec0647006000b800cd
:103de0003d02be003d03be00f48657006011b800de
:103df0003d04be003d05be007d0320000b003700e2
:103e00000000a0008d06e900130032000402420009
:103e100085824a0006034b0087834b000000400068
:103e20008180480002014900838149000802520054
:103e300089825a000a035b008b835b00f0ff3b0022
:103e40000802420089824a000a034b008b834b0020
:103e50008d06e900edff3a008482720086827200ce
:103e6000f707b200878272000100320015002000bf
:103e70001e0490003e0b900006035400e63fb00085
:103e80000368a300070032000000a7000500a0009f
:103e90008301d1000281d3008180d3000080d30050
:103ea0000603e8008301d1000281d3008180d300a2
:103eb0000080d3000002eb000482d2002100070042
:103ec00003f0a1000cf0a70003f0a0005d00370094
:103ed000640247006408e100570032003400be006d
:103ee0003401be00f6ff37006108e10052003200e5
:103ef0006011b8006000b800f1ff370003ff270031
:103f000002002000fbff3700839f68000100e000f3
:103f100002003d0060001000e08018000300e00097
:103f200002003d0060011100e0811900100107004e
:103f30004f00e00002003b0060001000e08018002d
:103f4000000006001800200057002000080453005d
:103f50000d003d000600200097fc2f000740e10007
:103f60001e00340084827200610260008301d1006f
:103f70000281d3008180d3000080d3000804e800d0
:103f8000f8ff3a0047002000610460000504740057
:103f9000040464000d00320061004000e08048002d
:103fa00060014900e081490003b8a5000700320024
:103fb0000603e8006538e10004003a008301d100ff
:103fc0000281d3008180d3000080d300f87f2000dd
:103fd0000830e10003003500080378006000b800f5
:103fe0006011b8004433dd00f300b20083017300b8
:103ff00000000600680447000294be000094be0062
:10400000fc0447008694be008494be00090078003a
:10401000b401070008007800b20107009900780099
:10402000814f70000b003b000800be008d010700af
:104030004f00b10003003700f3ff2700f2ff2f000d
:104040006110b9004f06be004f05be004f04be0010
:104050000080fa000000060081037800ccf707001a
:104060000001be006000b8000478a30013003a000d
:104070006220e10015003e000d0039008301d100ef
:104080000281d3008180d3008301d1000281d3005b
:104090008180d3008301d1000281d3008180d300cd
:1040a0000538b000c42add00f300b200838172003d
:1040b00007f0a70003f0a00000000600f3ff2700b0
:1040c000f2ff2f006110b900fbff370003ff27004c
:1040d000f7ff37001400fa00889fbe008a9fbe00d9
:1040e0008c9fbe000004be000205be0068004700b1
:1040f0000a90be000890be007a0107000070a70079
:104100000bf0a100304320009e02900080825200fc
:10411000b0fe2f000028e10011003d00b0fc2f0090
:104120000028e100150034001e0990008e08900060
:104130007e0090000501b0000201d1008180d30013
:104140000080d3008502e800fbff3a000b00e0008e
:10415000bcff3b0060001000e0801800b9ff370092
:10416000f0ff2f00f1ff27000b00e000b5ff3b0040
:104170000100280000002000b2ff37006000b800f6
:10418000b0ff37004f89de00820178007c013700e4
:104190002800fa00889fbe008a9fbe008c9fbe0048
:1041a00003866b0093ff07000028a30064003a0019
:1041b0000128a30067003a000008a30062003a004b
:1041c0000108a30065003a001e009000be089000a0
:1041d00081064000ed3fb100f4805700ee019000f1
:1041e000111ab8008e099000311bb8009e0990008a
:1041f000311cb800511db800f48557004600070077
:10420000fe0190003a0007008b85e8003e000700a1
:104210008e09900040000700ee0190003400070076
:104220008b85e800380007008e09900040000700e9
:104230009e0990001b18b800890440000a854800b8
:10424000fe019000340007008b85e800380007006d
:10425000ee019000300007008e0990001b18b80096
:10426000890440000a8548000a98a30008003a0023
:104270000402420085824a0006034b0087834b00fc
:1042800008044c0089844c000a054d008d06e900a5
:1042900084827200850273004c3add008502720050
:1042a0000100320015002000443ade001400b20084
:1042b0004538de00cb45dd000b007000c540de0058
:1042c000cb4ddd008b8070004549de00cb55dd0015
:1042d0000b017100c551de000d03780019ff0700c6
:1042e00003f0a1000cf0a70003f0a00055ff370079
:1042f0001b18b8008502400006834800e0834b008d
:1043000060044c00070037001b18b800060340008b
:1043100087834800faff37001b18b8008703400066
:1043200008844800e0844c0060054d000000060051
:104330001b18b8000804400089844800faff3700c1
:104340000108a3003cff3a005800be005801be001f
:10435000e3ff37000008a30037ff3a0009047800a4
:10436000f9ff37000000000007f0a2001600370038
:104370006022b800060220000000d0008180d20038
:104380000482d2008582d2000000a0000202520006
:1043900083825a00030031000202420083824a00f5
:1043a0000000a1000603e900f3ff3a000000060048
:1043b000020ab900001bb9000200b80081004200e7
:1043c00081004300000006002800fa00889fbe001c
:1043d0008a9fbe008c9fbe00070678008786690012
:1043e0000c003b00030478008704780008f0a1006b
:1043f00009f0a100840f5000858f5800860f5900e6
:10440000890f5c00030033000cf0a20001003a00a9
:104410000cf0a100f7fe07006400e1005f0032002d
:10442000780147006408e100610032006c01470038
:10443000748557003200be001201be003a04be006f
:104440001a05be001e039000be0a900085035300ab
:1044500006003d000004fd008104fd000205fd0092
:104460008305fd008703ea00050378000df8a3002b
:104470000400320060041400e0841c0060051d008c
:10448000e0851d006022b8007d0320000d38e100aa
:104490008006eb000b0039004433dd00f300b2006e
:1044a0008301730039003700848272000d027800a6
:1044b000e10664008b85d1000a85d3008984d3008e
:1044c0000884d3008703e900f7ff3b0008004000a1
:1044d000898048000a0149008b81490004003b00a3
:1044e00060001000e080180060011900e0811900f0
:1044f0000358a300090032008d827200848272008a
:10450000610260008301d1000281d3008180d30069
:104510000080d3000603e8001b0037000348a30017
:1045200017003a000600e000170034000603e90017
:104530000d00a300000048008180480002014900ee
:10454000838149000348a3000f003a000600e00001
:10455000090034000603e9000000400081804800a3
:10456000020149008381490001003a000003eb0089
:104570000348a300f5ff32006022b80002003700b4
:1045800084827200618266006efe070003f0a10063
:104590000cf0a70003f0a000aafe3700640147005a
:1045a0006408e10002003a000df8a300a2fe3a0000
:1045b0003200be001201be00a2fe37000000000063
:1045c000889fbe008a9fbe008c9fbe000404be0070
:1045d0000605be00809fbe00829fbe002f00070020
:1045e000040678000800be000a01be002b00070088
:1045f000840678004f03be004f02be008d4f760048
:104600007fb0970013003300f0ff2f008b8f6b00fb
:1046100006003b000d0666000c00a7000a003700ec
:1046200007f0a600100020000a003700880f520093
:10463000898f5a008a0f5b008b8f5b000300390063
:104640001000200001003e000000200007f0a7003d
:104650000000ea004f06be004f05be004f04be003a
:1046600000000600e48240001078a300070032003a
:10467000640240001178a3003400be001401be00a3
:10468000040032000330a700000006003500be0021
:104690001501be000330a0000000060005ff270042
:1046a00005826100070032000428e10001003200a9
:1046b000240005000600070001003a004400050040
:1046c0000408050002000700f9ff3a001400050085
:1046d0006f826100810270008502710085027200a4
:1046e00000000600800078005002be005003be00ab
:1046f0004439de00f700b200f37f200003016100bf
:10470000090032000218e10016003a00850172002b
:1047100083017300838173000008200015003a00b4
:1047200040002000130037008501720083017300f0
:104730008381730005003a0004a8be0006a8be00ed
:10474000100020000b0037000201e90004024200c3
:1047500085824a0006034b0087834b000748a3006d
:10476000f9ff32000740a00004a8be0006a8be0062
:1047700020002000800098009200980000000600b1
:10478000881f7800030478000300e00007003d0064
:1047900060001000e080180060011900e08119003d
:1047a00002003b0001f02d00030037000400070069
:1047b00008f0a70003f0a0004f04780000000600f6
:1047c000889fbe00008270000402710004827100a4
:1047d0002400320036432000c50020008383cf0030
:1047e0000a0039000541b1008283cf00070039007b
:1047f0000541b1008183cf00040039000541b100bb
:104800008083cf00010039000541b10085c353000a
:104810006022b800120032000a003b00848272005d
:10482000610260008301d1000281d3008180d30046
:104830000080d3000603e8008743e800f7ff3a0052
:104840000700370000004000818048000201490055
:10485000838149000603e9008743e900f9ff3a0034
:0c486000b8fd07004f04be000000060079
:020000040000fa
:10486c006f120000833a0000252e00003066000015
:10487c00092500002e300000660a0000002500000b
:10488c002e340000660a0000002500002e320000c5
:08489c00660a000000000000a4
:020000040000fa
:1048a4000400fa00889fbe00204798000000eb0037
:1048b400000f7800d2c8bf000080fb00cf80de006c
:1048c4003203200003002000820f5000838f580021
:1048d4005a013e0000600100330037003c003700fd
:1048e4005601370055013700540137005301370092
:1048f4005201370051013700500137004f01370092
:104904004e0137006d0037006f0037004b01370050
:104914004a01370049013700480137004701370091
:104924004601370045013700440137006a0037006b
:104934006c0037006f0037007100370074003700d7
:10494400760037003d0137003c0137003b0137005a
:104954003a01370039013700380137003701370091
:104964003601370035013700340137003301370091
:10497400320137003101370030013700740037004d
:104984008200370097003700a2003700b7003700d5
:104994002a01370029013700280137002701370091
:1049a4006200370064003700ae409000d0cbb30003
:1049b40080cf500003003a0010c0b300d2e8b70023
:1049c40020013700a00f2000000f78001d013700e0
:1049d400ae40900000c4b30080cf500003003a0002
:1049e40090c2b300d2e8b70016013700ae40900081
:1049f40000c3b30080cf500003003a00f0c1b300fd
:104a0400d2e8b7000f013700ae40900000c2b300f7
:104a140080cf500003003a0050c1b300d2e8b70081
:104a240008013700ae40900030c2b30080cf500080
:104a340003003a0070c1b300d2e8b70001013700a7
:104a4400ae40900050c2b30080cf500003003a0043
:104a540090c1b300d2e8b700fa003700ae4090002e
:104a640070c2b30080cf500003003a00b0c1b3005d
:104a7400d2e8b700f30037002e409000f04f50000a
:104a840003003a00b0c0b300d2e8b700ed0037002d
:104a9400ae40900000c5b30080cf500003003a0040
:104aa40020c3b300d2e8b700e6003700d268ef00b5
:104ab400a00f2000000f7800e2003700c0c0b30050
:104ac400d2e8b700df00370010c0b300cce8b7006d
:104ad400d268ef00db00370060c1b300d2e8b70052
:104ae400d800370010c0b300cde8b700d268ef009b
:104af400d400370080c1b300d2e8b700d10037003a
:104b040020c0b300cde8b700d268ef00cd00370075
:104b1400a0c1b300d2e8b700ca00370030c0b30068
:104b2400cde8b700d268ef00c600370030c3b30049
:104b3400d2e8b700c300370010c0b300cee8b70016
:104b4400d268ef00c00a2000000f7800bd003700d3
:104b5400a04680000004b000a04688002e409000cb
:104b64008080fb00a046800000804000a0468800b2
:104b74002e4090000080fb004800dd00b046880015
:104b8400a0c2b300d2e8b700ae0037002e409000b8
:104b94008080fb00a046800000804000a046880082
:104ba4002e4090008080fb00b04680000100700021
:104bb400b0468800b04680008000eb00cbf40700cc
:104bc40002002000a33124001df50700acf4070007
:104bd40000007800b0468800b0c2b300d2e8b70045
:104be400980037002e4090008080fb00a046800093
:104bf40000804000a04688002e4090000080fb000a
:104c04004800dd00c0468800c0c2b300d2e8b70047
:104c14008c0037002e4090008080fb00a04680006e
:104c240000804000a04688002e4090008080fb0059
:104c3400c046800001007000c0468800c046800065
:104c44008000eb00a9f4070002002000a331240037
:104c5400fbf407008af4070000007800c0468800cf
:104c6400d0c2b300d2e8b70076003700a046800077
:104c74000080ea00a0468800a1468000f00f2000d2
:104c840000806000a04688002e4090008080fb00d9
:104c9400a0468000808f50005e003a00b04680003d
:104ca4008000eb0091f407000002be001040800079
:104cb400214080000001be000400be0029f307006b
:104cc4006045880071458800c04680008000eb0084
:104cd40086f407000002be0050408000614080005e
:104ce4000001be000400be001ef3070080458800da
:104cf40091458800604580007145800084458000ae
:104d0400954580000001be000400be0073f3070057
:104d1400c0448800d14488008445800095458000c3
:104d240080458000914580000001be000400be0063
:104d3400c3f407000004be0064458000754580008c
:104d440060458000714580000001be000400be0083
:104d5400bbf407000001be000800be0002f3070018
:104d6400ebf40700004588001145880000458000e9
:104d74001145800002002c00a35d2400d9f3070034
:104d8400e0448800f1448800e4448000f544800055
:104d9400e0448000f14480000001be000400be0035
:104da400a7f407000001be00000020000104240055
:104db400ccf30700a0458800b1458800e444800096
:104dc400f5448000e0448000f14480000001be000e
:104dd4000400be009af407000002be00e044800014
:104de400f14480000001be000400be0094f40700fa
:104df4000001be000000200001002c00b9f30700f0
:104e0400c0458800d1458800c00a2000000f780002
:104e140002003700a00f2000000f7800d628ef0012
:104e2400d828ef00d428ef00d268ef006000b80063
:104e3400104388002143880002003700a00f20009f
:104e4400000f78001e0078004f04be000080fa00b6
:104e5400000006000200fa00004f78001e80fb00ec
:104e640020118800000000001111800000102000b3
:104e7400008060000000e000fbff32000080fa00c8
:104e8400000006000000fa0060092000303a8800a3
:104e9400213a800000fe2f00008060005000b30023
:104ea400203a8800213a8000f0f32f00008060004f
:104eb400203a88004827ef001200200080072000d5
:104ec400a1092000337420008049780081497800ca
:104ed400824978001200200060042000710520003f
:104ee4002374200080497800814978008249780041
:104ef40000000000113a800000002700808060005c
:104f040000002100808f5000faff3a0000000000ea
:104f1400113a800000022000008060000000e000e0
:104f2400fbff32000080fa00000006000000fa00d7
:104f3400113a8000f00b2000008160006004200022
:104f4400710520002374200080497800814978008d
:104f5400824978002135800000fe2f000080600027
:104f64006000b3002035880021368000f00f2e0049
:104f7400808060000030200001007000203688002e
:104f8400103a8000000178000260a0006004200054
:104f9400710520002374200080497800814978003d
:104fa400824978002002a9000111800090ff2f009f
:104fb40000806000001188002062a8002082a900ff
:104fc400600520004011880023a2a90023e2a90063
:104fd4009560a8009580a80021e2a8002342a800bb
:104fe4000080fa00000006000000fa00113a800078
:104ff400f00b200000816000600420007105200097
:10500400237420008049780081497800824978001f
:10501400e134800000fe2f00008060000030a0001a
:10502400e0348800e1348000f00f2e0080806000be
:105034000090200001007000e034880001358000f9
:1050440000fe2f0000806000b000b300003588002f
:1050540001358000f00f2e008080600000a0200049
:105064000100700000358800103a800000017800cb
:105074000260a00060042000710520002374200059
:10508400804978008149780082497800010f8000c6
:10509400f08f2f0000806000000f8800e0c1a9009d
:1050a400010f8000f08f2f008080600000502000ee
:1050b40001007000000f8800810f8000f08f2f0026
:1050c40000806000800f8800f0c1a900810f80007b
:1050d400f08f2f00808060000050200001007000dd
:1050e400800f8800113a8000f00b200000816000de
:1050f400600420007105200023742000804978009a
:105104008149780082497800110f8000f0f82f005f
:1051140000806000100f8800e2e1a800910f800079
:10512400f0f82f0000806000900f8800f2e1a800e2
:10513400103a8000000178000260a00060042000a2
:10514400710520002374200080497800814978008b
:10515400824978000080fa00000006000000fa008e
:1051640021088000f0fc2f00008060000040a000b7
:105174002008880080382100100888009460a80066
:1051840021058000f0ff28008080600000002300db
:1051940001007000200588000080fa00000006006d
:1051a4000200fa000000eb00000f78000200370054
:1051b400000000001e0fe800301f20009e00780051
:1051c400808f5000faff36000080fa0000000600cd
:1051d4000800fa0020079800310798006000b80022
:1051e400008fbe0005003700000000001200200000
:1051f400030020001e0f41005e9749002e0090001e
:10520400be0090001e01be00800f5100818f590026
:10521400f5ff39000080fa00000006000600fa00dd
:10522400200798000000eb00000f78000c00370006
:105234000000eb0010079800040037000000000095
:105244001e0090000000e800100798009e009000e7
:10525400700c2000808f5000f8ff36001e0fe8000d
:105264002e0090009e007800808f5000f0ff3900df
:105274000080fa00000006000000fa0081088000a7
:10528400f0fc2f00008060000040a000800888002f
:105294000071220060088800210c800080ff2f002c
:1052a40000806000200c88008461a900210c80002b
:1052b40080ff2f00008060006000b300200c880095
:1052c400113a8000f00b200000816000600420008f
:1052d40071052000237420008049780081497800fa
:1052e4008249780071368000f00f2e0080806000c3
:1052f400002021000100700070368800103a800000
:10530400000178000260a000600420007105200004
:10531400237420008049780081497800824978000c
:1053240091088000f0fc2f00008060000040a00085
:10533400900888000071220070088800510c8000d9
:1053440080ff2f0000806000500c88008a61a80054
:10535400510c800080ff2f00008060006000b300cb
:10536400500c8800113a8000f00b2000008160008e
:105374006004200071052000237420008049780017
:1053840081497800824978007136800000fe2f0040
:10539400008060003001b30070368800103a80004d
:1053a400000178000260a000600420007105200064
:1053b400237420008049780081497800824978006c
:1053c4000080fa00000006000000fa000080eb00f4
:1053d4006019880000ff2f000016880030fd2000af
:1053e400401688000080fa00000006000200fa005f
:1053f400000f78001e0078000000e00003003d006c
:10540400c402a800c422a900080037001e007800c6
:105414000000e00003003400c402a900c422a80074
:1054240002003700c402a800c422a8001e007800ad
:1054340000f0a7000000ea00000c88000080fa00d9
:10544400000006000200fa00000f78001e00780039
:105454000000e00003003d00cc42a800cc62a9009b
:10546400080037001e0078000000e000030034004c
:10547400cc42a900cc62a80002003700cc42a800ac
:10548400cc62a8001e00780000f0a7000000ea002b
:10549400300c88000080fa00000006000000fa00ca
:1054a4000200370080442f00d0ff07005016800010
:1054b400700060000000e000faff3a000000eb001a
:1054c400caff07000071220054ff070002003700e2
:1054d40080442f00dbff07005116800000082000e5
:1054e400008060000000e000f9ff3a000000eb00db
:1054f400d4ff07000071220048ff07000080fa0073
:10550400000006000400fa000600fc0012028000fd
:10551400020eb300120288005afe07000080eb005e
:105524006019880000ff2f000016880030fd20005d
:105534004016880009ff070011e1a80013e1a80044
:105544004dff07000600fc0013028000f341b20087
:1055540013028800a4fe0700d0ff07000600fc0029
:1055640013028000030eb300130288006ffe0700cd
:105574000bff07000600fc0011028000f141b2009d
:10558400110288000071220024ff0700e421ef00cb
:10559400f421ef000100370000000000004080000b
:1055a4000000e00004003200004080000040780069
:1055b40028fe07000028ef00ccc8bf000004e0006c
