:020000040000fa
:080000000002040000000000f2
:020000040000fa
:04000800fc080000f0
:020000040000fa
:04000c00fc080000ec
:020000040000fa
:04001000fc080000e8
:020000040000fa
:04001400fc080000e4
:020000040000fa
:04001800fc080000e0
:020000040000fa
:04001c00fc080000dc
:020000040000fa
:04002000fc080000d8
:020000040000fa
:04002400fc080000d4
:020000040000fa
:04002800fc080000d0
:020000040000fa
:04002c00fc080000cc
:020000040000fa
:04003000fc080000c8
:020000040000fa
:0400340024030000a1
:020000040000fa
:04003800fc080000c0
:020000040000fa
:04003c00fc080000bc
:020000040000fa
:04004000fc080000b8
:020000040000fa
:04004400fc080000b4
:020000040000fa
:04004800fc080000b0
:020000040000fa
:04004c00fc080000ac
:020000040000fa
:04005000fc080000a8
:020000040000fa
:04005400e4020000c2
:020000040000fa
:04005800dc020000c6
:020000040000fa
:04005c00fc0800009c
:020000040000fa
:04006000fc08000098
:020000040000fa
:04006400fc08000094
:020000040000fa
:04006800fc08000090
:020000040000fa
:04006c00fc0800008c
:020000040000fa
:04007000fc08000088
:020000040000fa
:04007400fc08000084
:020000040000fa
:04007800fc08000080
:020000040000fa
:04007c00fc0800007c
:020000040000fa
:04008000fc08000078
:020000040000fa
:04008400fc08000074
:020000040000fa
:04008800fc08000070
:020000040000fa
:04008c00fc0800006c
:020000040000fa
:04009000fc08000068
:020000040000fa
:04009400fc08000064
:020000040000fa
:04009800fc08000060
:020000040000fa
:04009c00fc0800005c
:020000040000fa
:0400a000fc08000058
:020000040000fa
:0400a400fc08000054
:020000040000fa
:0400a800fc08000050
:020000040000fa
:0400ac00fc0800004c
:020000040000fa
:0400b000fc08000048
:020000040000fa
:0400b400fc08000044
:020000040000fa
:0400b800fc08000040
:020000040000fa
:0400bc00fc0800003c
:020000040000fa
:0400c000fc08000038
:020000040000fa
:0400c400fc08000034
:020000040000fa
:0400c800fc08000030
:020000040000fa
:0400cc00fc0800002c
:020000040000fa
:0400d000fc08000028
:020000040000fa
:0400d400fc08000024
:020000040000fa
:0400d800fc08000020
:020000040000fa
:0400dc00fc0800001c
:020000040000fa
:0400e000fc08000018
:020000040000fa
:0400e400fc08000014
:020000040000fa
:0400e800fc08000010
:020000040000fa
:0400ec00fc0800000c
:020000040000fa
:0400f000fc08000008
:020000040000fa
:0400f400fc08000004
:020000040000fa
:0400f800fc08000000
:020000040000fa
:0400fc00fc080000fc
:020000040000fa
:04010000fc080000f7
:020000040000fa
:04010400fc080000f3
:020000040000fa
:04010800fc080000ef
:020000040000fa
:04010c00fc080000eb
:020000040000fa
:04011000fc080000e7
:020000040000fa
:04011400fc080000e3
:020000040000fa
:04011800fc080000df
:020000040000fa
:04011c00fc080000db
:020000040000fa
:04012000fc080000d7
:020000040000fa
:04012400fc080000d3
:020000040000fa
:04012800fc080000cf
:020000040000fa
:04012c000a030000c2
:020000040000fa
:04013000fc080000c7
:020000040000fa
:04013400fc080000c3
:020000040000fa
:04013800fc080000bf
:020000040000fa
:04013c00fc080000bb
:020000040000fa
:04014000fc080000b7
:020000040000fa
:04014400fc080000b3
:020000040000fa
:04014800fc080000af
:020000040000fa
:04014c00fc080000ab
:020000040000fa
:04015000fc080000a7
:020000040000fa
:04015400fc080000a3
:020000040000fa
:04015800fc0800009f
:020000040000fa
:04015c00fc0800009b
:020000040000fa
:04016000fc08000097
:020000040000fa
:04016400fc08000093
:020000040000fa
:04020800fc080000ee
:020000040000fa
:04020c00fc080000ea
:020000040000fa
:04021000fc080000e6
:020000040000fa
:04021400fc080000e2
:020000040000fa
:04021800fc080000de
:020000040000fa
:04021c00fc080000da
:020000040000fa
:04022000fc080000d6
:020000040000fa
:04022400fc080000d2
:020000040000fa
:04022800fc080000ce
:020000040000fa
:04022c00fc080000ca
:020000040000fa
:04023000fc080000c6
:020000040000fa
:04023400fc080000c2
:020000040000fa
:04023800fc080000be
:020000040000fa
:04023c00fc080000ba
:020000040000fa
:04024000fc080000b6
:020000040000fa
:04024400fc080000b2
:020000040000fa
:04024800fc080000ae
:020000040000fa
:04024c00fc080000aa
:020000040000fa
:04025000fc080000a6
:020000040000fa
:04025400fc080000a2
:020000040000fa
:04025800fc0800009e
:020000040000fa
:04025c00fc0800009a
:020000040000fa
:04026000fc08000096
:020000040000fa
:04026400fc08000092
:020000040000fa
:04026800fc0800008e
:020000040000fa
:04026c00fc0800008a
:020000040000fa
:04027000fc08000086
:020000040000fa
:04027400fc08000082
:020000040000fa
:04027800fc0800007e
:020000040000fa
:04027c00fc0800007a
:020000040000fa
:04028000fc08000076
:020000040000fa
:04028400fc08000072
:020000040000fa
:04028800fc0800006e
:020000040000fa
:04028c00fc0800006a
:020000040000fa
:04029000fc08000066
:020000040000fa
:04029400fc08000062
:020000040000fa
:04029800fc0800005e
:020000040000fa
:04029c00fc0800005a
:020000040000fa
:0402a000fc08000056
:020000040000fa
:0402a400fc08000052
:020000040000fa
:0402a800fc0800004e
:020000040000fa
:0402ac00fc0800004a
:020000040000fa
:0402b000fc08000046
:020000040000fa
:0402b400fc08000042
:020000040000fa
:0402b800fc0800003e
:020000040000fa
:0402bc00fc0800003a
:020000040000fa
:0402c000fc08000036
:020000040000fa
:0402c400fc08000032
:020000040000fa
:0402c800fc0800002e
:020000040000fa
:0402cc00fc0800002a
:020000040000fa
:0402d000fc08000026
:020000040000fa
:0402d400fc08000022
:020000040000fa
:0402d800fc0800001e
:020000040000fa
:0402dc00fc0800001a
:020000040000fa
:0402e000fc08000016
:020000040000fa
:0402e400fc08000012
:020000040000fa
:0402e800fc0800000e
:020000040000fa
:0402ec00fc0800000a
:020000040000fa
:0402f000fc08000006
:020000040000fa
:0402f400fc08000002
:020000040000fa
:0402f800fc080000fe
:020000040000fa
:0402fc00fc080000fa
:020000040000fa
:04030000fc080000f5
:020000040000fa
:04030400fc080000f1
:020000040000fa
:04030800fc080000ed
:020000040000fa
:04030c00fc080000e9
:020000040000fa
:04031000fc080000e5
:020000040000fa
:04031400fc080000e1
:020000040000fa
:04031800fc080000dd
:020000040000fa
:04031c00fc080000d9
:020000040000fa
:04032000fc080000d5
:020000040000fa
:04032400fc080000d1
:020000040000fa
:04032800fc080000cd
:020000040000fa
:04032c00fc080000c9
:020000040000fa
:04033000fc080000c5
:020000040000fa
:04033400fc080000c1
:020000040000fa
:04033800fc080000bd
:020000040000fa
:04033c00fc080000b9
:020000040000fa
:04034000fc080000b5
:020000040000fa
:04034400fc080000b1
:020000040000fa
:04034800fc080000ad
:020000040000fa
:04034c00fc080000a9
:020000040000fa
:04035000fc080000a5
:020000040000fa
:04035400fc080000a1
:020000040000fa
:04035800fc0800009d
:020000040000fa
:04035c00fc08000099
:020000040000fa
:04036000fc08000095
:020000040000fa
:04036400fc08000091
:020000040000fa
:10040000af9820000e7f24000e018800000000003d
:10041000000020000000e000020032000001200087
:100420002002880014000700ea0307000000e00033
:1004300003003a00005822000100200002003700ab
:100440000000200001002000810f70000100320038
:1004500014000700000020000000e000020032004d
:100460000000020000000000d6240200000000008e
:100470000040da000000fe004440a900e002200035
:100480000000e0000300320000002000a00188000e
:100490004440a800000006008a1f78008b1f7800e7
:1004a0000000060091018800800478000000eb0045
:1004b0001a003700e284440032a0b4009905ba0063
:1004c000e284440032a0b4009906ba00e2844400f9
:1004d00032a0b4000006eb00476fde00fd07b2005b
:1004e000636ce10003003a00ebff07000000eb0043
:1004f0000a003700606ce10004003a00005deb0088
:100500008b05e900fdff3e00040037006168e10053
:10051000010032000086eb000b00070019c7ba008b
:100520001905ba000e04e00003003a000a00e000da
:10053000e0ff3a0000000600fe07b2009e018800be
:100540008a047800f5ff3700395dba008b05e900b1
:100550000c003200295dba008b05e900080032006a
:100560000c00e00003003a00e284440032a0b40032
:10057000f5ff370019ddba008b05e900faff3a00f4
:100580008904e800e184440032a0b40000000600c1
:10059000000000000000000000000000000000005b
:1005a000000000000000000000000000000000004b
:1005b00000000000000000000000fa008580a90093
:1005c0000080fa00004006003600f800809fbe0060
:1005d000829fbe00849fbe00869fbe000200fa007c
:1005e00030118000004f78001e407800720e070026
:1005f000004088008560a9000080fa004f03be001b
:100600004f02be004f01be004f00be003600f90091
:1006100000400600801f78000000fa0010118000e2
:10062000620060000000e000020032002222a90007
:1006300001003700000000008c20a9000080fa00b3
:100640004f007800004006003600f800809fbe0092
:10065000829fbe00849fbe00869fbe00889fbe0012
:100660008a9fbe008c1f78002200fa00200f8000b5
:100670008000eb00ff030700228120000089be00fc
:100680001040800021408000f70307000002be00f8
:10069000208120001000be000001be000400be004a
:1006a0004d030700a28020000089be00a08020002a
:1006b0001000be00a28120000089be00a00f8000b3
:1006c0008000eb00eb03070022812000200198004e
:1006d000310198003040800041408000e203070073
:1006e0000002be0020812000b00090002000900099
:1006f0000001be000400be0037030700a2802000f6
:100700002001980031019800a0802000b0009000e6
:1007100020009000a2812000200198003101980063
:10072000f442800005438000f042800001438000d5
:100730000001be000400be000e0407001007980070
:1007400021079800f442800005438000f0428000b9
:10075000014380000001be000400be000504070044
:100760000002be00f0428000014380000001be0094
:100770000400be00ff0307003007980041079800ff
:10078000f442800005438000f04280000143800075
:100790000001be000400be00f60307000002be0018
:1007a000f0428000014380000001be000400be0052
:1007b000f00307000002be00f04280000143800009
:1007c0000001be000400be00ea03070050079800c5
:1007d000610798000040eb00004f7800d901370016
:1007e0001e84fb001e80fb00218120004200dd00f2
:1007f000008040001002be001e80fb00218220000d
:100800004200dd00008040001000be000001be007c
:100810000400be00f00207000002be00f0428000ab
:10082000014380000001be000400be004803070031
:10083000a38220004241dd00028141000089be0008
:100840001e80fb00218620004200dd000080400069
:100850001002be001e80fb00218620004200dd0049
:10086000008040001000be000001be000400be0079
:10087000c003070070079800010f98001e80fb005e
:10088000a18620004200dd00008040001002be0072
:100890001e80fb00a18620004200dd000080400099
:1008a0001000be000001be000400be00b10307003e
:1008b000100f9800210f98001e80fb00a1832000dc
:1008c0004200dd00008040001004be001e80fb00de
:1008d000218420004200dd00008040001002be00a4
:1008e000f0428000014380000001be000400be0011
:1008f000a00307000001be000800be00b702070009
:10090000300f9800410f98001e80fb0021842000ca
:100910004200dd00008040001000be006011b80001
:10092000ae020700500f9800610f98001e80fb0078
:10093000a18220004200dd00008040001000be00c7
:100940005e099000ee099000a3020700700f980066
:10095000011798001e86fb001e80fb0021872000e7
:100960004200dd00008040001004be001e80fb003d
:10097000218520004200dd00008040001002be0002
:10098000f0428000014380000001be000400be0070
:10099000780307000001be000800be008f020700b8
:1009a0000004be005e019000ee0190007e00900009
:1009b0008e0890006f030700020020000308240047
:1009c000e30207000001be000800be00830207002a
:1009d0000004be001e80fb00a18420004200dd0058
:1009e000008040001005be001e80fb00a187200093
:1009f0004200dd00008040001002be00f042800096
:100a0000014380000001be000400be00590307003e
:100a10000001be000a00be00700207001e01900027
:100a2000ae019000530307000002be00f0428000b8
:100a3000014380000001be000400be00c4020700a4
:100a40000001be000800be006402070023872000ea
:100a50004261dd00028141000089be001e85fb006d
:100a60001e80fb00a18420004200dd0000804000c9
:100a70001004be001e80fb00a18720004200dd00a4
:100a8000008040001002be00f04280000143800060
:100a90000001be000400be00360307000001be00d6
:100aa0000800be004d0207000004be003e01900099
:100ab000ce0190007e0090008e0890002d0307006c
:100ac0000200200003002400a10207000001be0074
:100ad0000800be0041020700a38420004251dd004f
:100ae000028141000089be001e85fb00f0428000ab
:100af000014380000001be00380207000002be0072
:100b00001e80fb00218520004200dd0000804000a7
:100b10001000be000001be000400be001503070067
:100b20000004be001e019000ae0190007e00900007
:100b30008e0890000f0307000001be000800be00f1
:100b4000260207000004be001e80fb00a1872000d3
:100b50004200dd00008040001000be000001be0029
:100b60001e0207001e019000ae0190000103070065
:100b70000001be000800be00180207000004be000d
:100b8000f0428000014380000001be001302070014
:100b90000001be000800be006d0207002385200092
:100ba0004251dd00028141000089be001e84fb002d
:100bb0001e019000ae0190007e0090008e08900013
:100bc000ec0207000002be001e80fb00a18720008f
:100bd0004200dd00008040001000be000001be00a9
:100be0000400be00fd010700a38720004241dd0094
:100bf000028141000089be001e80fb00a18420000c
:100c00004200dd00008040001000be007e09900020
:100c10008e119000d70207000004be001e80fb006a
:100c2000a18720004200dd00008040001000be00cf
:100c30001e099000ae099000e80107000001be0007
:100c40000800be00420207000001be003e089000fe
:100c5000ce089000e1010700300f9800410f980086
:100c60001e80fb00a18720004200dd0000804000c4
:100c70001000be007e0990008e119000bd0207009a
:100c80000004be001e80fb00a18720004200dd00a2
:100c9000008040001000be001e099000ae099000c8
:100ca000ce0107000001be000800be0028020700b8
:100cb0000001be005e089000ee089000c70107002a
:100cc000500f9800610f98001e86fb001e80fb00ed
:100cd000218720004200dd00008040001004be009b
:100ce0001e80fb00a18420004200dd000080400047
:100cf0001002be001e80fb00218520004200dd00a6
:100d0000008040001000be000001be000400be00d4
:100d1000980207000005be001e80fb00a18720008e
:100d20004200dd00008040001000be001e0990005f
:100d3000ae099000a90107000001be000a00be0034
:100d4000030207000001be000800be00a201070068
:100d5000238720004261dd00028141000089be003e
:100d60001e86fb001e80fb00a18420004200dd00e7
:100d7000008040001004be001e80fb00a184200003
:100d80004200dd00008040001002be001e80fb001b
:100d9000a18720004200dd00008040001000be005e
:100da0000001be000400be00720207000005be0084
:100db0001e80fb00a18720004200dd000080400073
:100dc0001000be001e099000ae09900083010700cc
:100dd0000001be000a00be00dd0107000001be00e8
:100de0000800be007c010700a38420004261dd00f2
:100df000028141000089be001e86fb001e80fb00b0
:100e0000218520004200dd00008040001000be006f
:100e10000004be0009f0a2001e80fb00a187200094
:100e20004200dd00008040001005be001e80fb0077
:100e3000a18720004200dd00008040001000be00bd
:100e40001e099000ae099000640107000001be0079
:100e50000a00be00be0107000200200003f82300c4
:100e60005d0107000001be000800be00410207004e
:100e7000238520004261dd00028141000089be001f
:100e80001e86fb001e80fb00a18720004200dd00c3
:100e9000008040001000be000004be0009f0a20067
:100ea0001e80fb00a18720004200dd000080400082
:100eb0001005be001e80fb00a18720004200dd005f
:100ec000008040001000be001e099000ae09900096
:100ed000420107000001be000a00be009c0107009d
:100ee0000200200003f823003b0107000001be00c0
:100ef0000800be001f020700a38720004261dd003a
:100f0000028141000089be001e80fb00a1832000f9
:100f10004200dd00008040003e099000ce099000b4
:100f20000288be001e80fb00218420004200dd00fc
:100f3000008040005e099000ee0990000288be002b
:100f40001e4fe8001e407800e14f500024fe36009e
:100f50002084200020039000b0039000a082200095
:100f600020029000b0029000a08320002001900099
:100f7000b001900020812000b0009000200090007f
:100f8000869fbe00849fbe00829fbe00809fbe00e1
:100f900060fc2900801f7800a7020700f287570035
:100fa000a08020001000be0018c0b3000200200086
:100fb000f3422400a80107000000e0000100350012
:100fc0000044eb000804e0000f003200a080200085
:100fd0001000be0018c0b30002002000f3422c0035
:100fe0009f0107000000e00001003c000044eb000e
:100ff0000804e00004003200e13f22000000eb00a2
:101000000100010024003700a08120001000be0074
:1010100018c0b30002002400c3612400900107003f
:101020000000e00001003c000044eb000804e00088
:1010300005003200e23f220000002400c1612400cc
:101040000200010014003700a08120001000be0043
:1010500018c0b30002002400c3612c007e01070009
:101060000000e000010035000044eb000804e0004f
:1010700005003200e23f220000002400c1612c0084
:101080000200010004003700e23f2200a08120009e
:101090001000be0002000100a0812000b0009000fe
:1010a0002000900018c0b30002002000f34224008a
:1010b000690107000000e000010035000044eb007a
:1010c0000804e00010003200a0812000b000900071
:1010d0002000900018c0b30002002000f3422c0052
:1010e0005f0107000000e00001003c000044eb004d
:1010f0000804e00004003200e13c22000000eb00a4
:101100000100010027003700a0812000b0009000fe
:101110002000900018c0b30002002400c361240026
:101120004f0107000000e00001003c000044eb001c
:101130000804e00005003200e23c22000000240028
:10114000c16124000200010016003700a0812000c8
:10115000b00090002000900018c0b30002002400ee
:10116000c3612c003c0107000000e00001003500d5
:101170000044eb000804e00005003200e23c2200dd
:1011800000002400c1612c000200010005003700ae
:10119000e23c2200a0812000b000900020009000de
:1011a00002000100208120001000be0022822000e9
:1011b0000089be0020812000b00090002000900037
:1011c0002282200020019800310198008460a9004b
:1011d0000080fa004f0678004f05be004f04be00a5
:1011e0004f03be004f02be004f01be004f00be00c5
:1011f0003600f900004006000040da000000fe0062
:101200000a00fa0011002000b1bf9f00c0bf9f007c
:101210006a8057008e0807004fb897000080fa00d8
:10122000000006000a00fa00e20f500034003e0001
:10123000304c8000e10f500003003200e20f5000fc
:1012400011003a000c003700032220000300e000e8
:1012500001003a000040da002002e20002003500fe
:101260002822ef0021e2a8002342ab000d003a0043
:101270002342a8000b003700032320000300e000f6
:1012800001003a000040da003002e20002003500be
:101290003822ef0031e2a8003342ab0001003a00ef
:1012a0003342a800820178000b0037003102fb00b6
:1012b000e10f500004003a002322ab00feff3a0089
:1012c00024118800030037003322ab00feff3a00f0
:1012d000a41188008301e9000300e000f3ff3a0055
:1012e000e10f500003003a002302ab00feff320082
:1012f0000b0037003302ab00feff3200080037005e
:1013000033002000b3bf9f00c0bf9f00d1bf9f002c
:10131000e2bf9f006a8057004f0807006fb997002f
:10132000020078000080fa00000006000a00fa00bf
:1013300051002000b1bf9f00c0bf9f006a805700ce
:10134000470807005fb897000080fa000000060019
:10135000889fbe0080047800404c80000000e000c0
:1013600004003a000e0007000084eb000000e000db
:1013700008003500484c80000900e00005003200fc
:1013800009004400060007000000e00001003d00e5
:101390000084eb00080078004f04be000000060047
:1013a000800078000100e00003003a000000200007
:1013b000404c8800000005000080eb000200200087
:1013c000828f500002003e00414c88000000eb007c
:1013d000000006000000050003f0a200889fbe0088
:1013e0008a9fbe008c1f7800ca000700d10033001e
:1013f0006450e1004f0032006420e10052003200ee
:1014000003826c0007003b000905d0000306d000f2
:10141000820f54000c065d00020039000200320009
:1014200089017800030678008582550004003d009c
:101430000003fd008103fd008502ea008b85420068
:10144000840f720002003b0060001000e080180072
:101450006011b8000005eb007a28e1000a003900ad
:1014600006007800c75ddd00f707b20087807500d1
:101470002d003700828171000a017800610560004b
:101480008180d1000080d3008502e900f9ff3b0094
:10149000060440008784480002003b0060041400fa
:1014a000e0841c000988a300070032008a817100d3
:1014b00082817100610164008904d1000884d30035
:1014c0008b05e800170037000978a30013003a00e5
:1014d0000b00e000130034008b05e9000804440011
:1014e00089844c000a4474000978a3000d003a0076
:1014f0000b00e000070034008b05e90008044400fd
:1015000089844c0001003a000b0020000978a300f8
:10151000f7ff32000001eb0002003700828171000a
:101520000a017800550007000cf0a70001f0a000a8
:10153000890037006420e10002003a00838f6c00cc
:10154000890033000801be000200be00820037009f
:10155000889fbe008a9fbe008c1f78006d00070028
:101560007400330003866c006450e1002e003200ea
:101570006420e100330032006150e1002f003200ae
:101580006120e1003100320085855500eb07b00095
:10159000090020000804200005003700080444006a
:1015a00089844c000a0031000603430087834b0006
:1015b0000001530081815b00f8ff33000203be008d
:1015c0000800a0000804440089844c00f6ff39009c
:1015d000c639dd00830173000100320013002000d2
:1015e0008904d1000884d3000998a30005003200c3
:1015f0000800a7000300a0008904d1000884d300dc
:101600008b05e8008904d1000884d3000001eb00b9
:101610000281d2001900070001f0a1000cf0a70020
:1016200001f0a0004c0037006420e1004e003200c1
:101630000801be000200be00f7ff37006120e10094
:10164000490032006000b800f3ff370000002000be
:1016500001f82700f0ff3700140020007900370060
:10166000f4ff2f00770037004f89de0082017800f9
:101670008f0037006011b8009d0037008100200006
:10168000618055000b003d000b00200061fe2f0023
:101690000100e1001d0034008281710061016400dd
:1016a0008904d1000884d3000000e800faff3a0062
:1016b00071002000610064000300700002006000ff
:1016c0000900320061044400e0844c000988a50050
:1016d000050032008b05e8006808e10002003a00ce
:1016e0008904d1000884d300f20f20000258e100e1
:1016f00005003d00c75ddd00f907b2008980750077
:1017000008007800000006000bf827008b00780026
:10171000000005000004be00a40007000003be0096
:101720000405be000200be00a0000700844f750043
:10173000000006000200be006450e1000500360013
:101740006420e100020036000968a30001003a00ad
:101750000800be000160a0004f0678004f05be00e3
:101760004f04be0000000600f0ff2f00f1ff27002d
:10177000f9ff3700889fbe008a9fbe008c1f78004b
:10178000e4ff0700ebff330003866c006450e100c8
:10179000240032006420e100270032006150e100a3
:1017a000220032006120e100210032008b854200de
:1017b000eb07b1000134b800003ab8000804420059
:1017c00089844a00013ab8000030b800888040009f
:1017d00009014a00040033000000400081804800f5
:1017e000020149008b05e900c909dd008301700091
:1017f0000100320013002000c814de004814dd0090
:101800004709de001200b200c808de00088470003c
:101810009aff070001f0a1000cf0a70001f0a00062
:10182000cdff37006120e100cfff32000801be008c
:101830000200be00f7ff37006150e100fcff3a00f4
:10184000c9ff3700889fbe008a9fbe00841f7800b2
:10185000b0ff07004f00780011003300f0ff2f00a9
:10186000838f6c0006003b00040565000a00a7009a
:101870000800370009f0a60010002000080037001b
:10188000820f5400838f5c00030039001000200099
:1018900001003e000000200009f0a7000000ea005f
:1018a0004f05be004f04be000000e000000006002f
:1018b000881f7800030478000300e00007003d0063
:1018c00060001000e080180060011900e08119003c
:1018d00002003b0001f02d00030037000400070068
:1018e00008f0a70001f0a0004f04780000000600f7
:1018f000889fbe008a9fbe000082700004027100b3
:1019000004827100260032000004be000200be0006
:101910006011b8006b092000950220000182cf0001
:101920000a0039000541b1000082cf0007003900ec
:101930000541b1000982cf00040039000541b10022
:101940000882cf00010039000541b1000542520074
:10195000120032000a003b008281710061016400c4
:101960008100d1000080d3008984d3000884d30093
:101970008b05e8000442e800f7ff3a000700370053
:101980000804440089844c0000004800818048001d
:101990008b05e9000442e900f9ff3a0037ff070030
:1019a0004f05be004f04be0000000600c70ade005f
:1019b000f107b200f50fb20008003200e1cf42009b
:1019c000020032000170a00024000500810f7000a9
:1019d000010032000408050044000500810f70007a
:1019e00002003a00140005008502e90000004000f2
:1019f00081c04800fcff3b000170a00024000500ee
:101a0000889fbe00000478000100780082047800fe
:101a10008801780009017800110020000e000700fd
:101a2000890f5000010032000004eb00080078002c
:101a30004f04be00000006000000fa00e8815700d5
:101a40004fb99700a18a200000d02000570107005d
:101a50000080fa0000000600889fbe008a9fbe003a
:101a60008c9fbe008e1f780000067800010478006d
:101a700002007800830478000881b900020778002a
:101a80000200e000420032000800e00041003200a5
:101a900082057800c900900069009000808f500096
:101aa0000400390009007800500007000000e00041
:101ab0002900350000402000190060000a003200b3
:101ac0000b017800a10020000c0078003600070010
:101ad000800678000d00e000060032006105160067
:101ae0000a854600040037000b0578008006eb00ed
:101af000010037000b05780049009000e9009000d4
:101b0000808050008a8f500002003100010578006b
:101b10008006eb000a0178008c0078002c0007009a
:101b20008a855500490090000a004000c0049800d2
:101b30000d00e0000400320009007800d500070025
:101b40000000e00004003a000b00e0000200320058
:101b50000a064600cfff3700008020001900600011
:101b60000200320009007800ca00070000c020000f
:101b7000190060000200320049009000e004980063
:101b80008b055700110009008885d8000100370037
:101b90000000eb004f0778004f06be004f05be0067
:101ba0004f04be000000060003003700b0cf100055
:101bb000050032000201e900800178000200e00027
:101bc000faff3a000000050003007800000006005c
:101bd0008001780002003700b15978000201e90065
:101be0000200e000fcff3a0000000600889fbe00f3
:101bf0008a1f780000047800c800900068019000f7
:101c00000000eb00828f50003c0039001800780083
:101c10002200290002016000e20f5100070032009b
:101c2000012024000000e00001003d000120200010
:101c3000008c70000080eb003000370002002600ae
:101c400002006000820f500009003a003800900046
:101c5000808f500006003900080078008d000700d2
:101c6000800078000080eb000100e00023003a00d3
:101c70001805780000c020000000650018003a0038
:101c8000a80490006002200008004000808f5400eb
:101c900013003a0000202000790407002004980077
:101ca0000000e00005003a0029049800490498006b
:101cb0008904e80039049800080037000a60a00091
:101cc0000a0c780040049800012020008080400029
:101cd00031049800400c9800500c98000c0007004c
:101ce000280090005004980038009000600498008c
:101cf00000002600180c70000000eb004f05780073
:101d00004f04be0000000600a0f220009b00370038
:101d1000881f7800089820001804e00003003a00ab
:101d2000f9ff070020c0b300004c78004f04780092
:101d300000000600889fbe000004780008007800bc
:101d400054000700800478000004200018006000a0
:101d50000200320028009000cf0307000000eb00d3
:101d600020049800384090000004e0000500350091
:101d70000000fb0022fd07000000e000010032002f
:101d80008084eb00181090000000e0000800320092
:101d900066fd07000000e000010032008084eb00d7
:101da00018109000bc0307000000eb00101498000e
:101db0000008200018006000150032000001eb0050
:101dc0006000b800a38f20000202d00063027a00f6
:101dd000880f520005003a00000040008180480052
:101de000008041000008eb00060037006100400061
:101df000e08048000201e800e80f5000e08f580042
:101e0000f0ff3a0008007800a30307000e00370037
:101e1000000c780000c0eb00304498006002200005
:101e200008004000200498004004980050049800e6
:101e3000400c980060049800500c980070049800c2
:101e400076004400000c9800090078004f04be00a2
:101e500000000600881f78000004eb006140b80015
:101e6000e2ff2f00f3ff2f000d07070082902000f4
:101e7000620078000000e00001003200adff0700c2
:101e80000804e800e80f5400f4ff3a004f0478001b
:101e900000000600889fbe00000478000800e000f3
:101ea0000e003a008004eb008800d000a08f2000d4
:101eb000610078000000e00004003200f5ff070038
:101ec0000000e00001003d008084eb000804e80011
:101ed000e80f5400f4ff3a0025003700000022000c
:101ee000180060008004eb0021003200a80490007c
:101ef0000f00370009015100384090000000fb003e
:101f000089007800c7fc07000000e00007003c00e3
:101f1000280090004004980060049800500c98003d
:101f20001890a0008084eb001100370080844400ea
:101f300048019000828f5400eeff39002800900085
:101f4000400498009800780002c0200002816000e0
:101f500001003a003800900001e8a30002003200be
:101f60006004980001003700500c98008004eb00da
:101f7000090078004f04be000000060001002000a8
:101f80000100e00008003200010080000100e000d4
:101f9000050032008100e900010088008100d000c6
:101fa0000200800000b17800000006006200fa0024
:101fb000889fbe008a1f78000005780081047800a1
:101fc000020478008300780080f92f000f004000a1
:101fd000d10407009a979f00a9979f000000eb008b
:101fe000b09f9f001885fb008a04fb000a05ea00e9
:101ff0004f55de0050022000808f54000d0032004b
:10200000e10f55000b003a000a01780088007800c3
:102010002f9097009f91970003000100a0979f00c9
:102020000000e0008e0032003f9897000000e800ba
:10203000b09f9f000a04440050022000808f54008b
:10204000040032000900e000e6ff3a003f989700e4
:10205000840037000000eb00909f9f00809f9f004e
:10206000f0979f00e0979f00d0979f00c0979f0038
:102070000700370061972000010050000000400079
:10208000a196200061007800df98970001007000a1
:10209000d09f9f00880478000904780038457800b4
:1020a0008a00fb00609720009f0307000000e0000b
:1020b000f0ff3a00a1c2b300814f55000e003a0074
:1020c000cf8897000180e900c08f9f001000780042
:1020d000c09f9f000000e00005003d000000ea00f6
:1020e000c09f9f005f9897000020a000d09f9f0096
:1020f0000904e8000f003700c09f9f000000eb00bc
:1021000005003700f2ff2700820f50000200320066
:102110006a01b90002804000090478008804780050
:10212000b900fb000103b100e98f5000f5ff360054
:10213000c09f9f00e0c2b300984f10000200320021
:102140000080eb0019003700a0c2b300d84f100088
:1021500007003a00cf8897000180e900c08f9f00f8
:1021600010007800a09f9f000804e80010003700ce
:102170000000eb00a09f9f0088007800050037005a
:10218000f3ff2700830f5000020032006a02b900fb
:102190000400410001047800880078003101fb0050
:1021a0000203b100e90f5100f5ff3600a09f9f0028
:1021b000984478008900fb00209620005a0307000d
:1021c0000000e000020032000804e80001003700cf
:1021d0008044eb00c97f9f0080c6b30080cf5400cd
:1021e00004003a0098cf14000a003a0066405000fc
:1021f00006003700c0c6b30080cf540005003a0087
:1022000098cf140003003a0065404000c07f9f0053
:102210000804e8001801fb00e3fb2f008f81410058
:1022200081f92f008f804000a0f92f000f0040009f
:10223000100007000000e00009003a00e1fb2f0059
:102240008f804000a0f92f000f00400076030700a8
:102250000000e000020035000804e80061ff3700dc
:102260000080eb004f0578004f04be000080fa00ac
:1022700000000600889fbe008a1f780000047800d6
:10228000824478000305780070c4b30080cf540006
:102290000a003c0000c0e90080cf54000f003d0060
:1022a00050c2b30080cf5400350032007c40400063
:1022b00080cf540035003a000800370010c6b30044
:1022c00080cf54000500320030003500b0c9b300a3
:1022d00000c04400e24f50002c003e0028619000f6
:1022e000c0c4b300804f510006003a0011017800cd
:1022f00068005100800878005001be004000be0018
:102300000500370011017800640051008008780052
:102310001000be000c050700009cbe000294be0029
:10232000b8009000780090000100e00002003d003d
:10233000d1c2b30008003700881090000118a30034
:1023400002003200b1c2b300030037000108a3004d
:102350000400320001c2b300017578000000e800fb
:102360007004980078009000000545006a04980009
:102370008900fb0008007800100007000b00370000
:10238000780090000975780006003700780090000a
:10239000000545000904e00001003a0059c2b300fd
:1023a000094d78000000e800700498000000eb0080
:1023b0004f0578004f04be00000006002f04b00057
:1023c000889fbe008a9fbe008c9fbe008e1f780033
:1023d0000007780081f79f003e04be002e05be0076
:1023e0005e0890000000e00002003d006000200058
:1023f000500f98008e00780020fb2f000f00400047
:10240000df020700e20f50000a003a00300020000f
:10241000100f9800b1c9b3000ff097008140400041
:10242000e0902000e1cf50000d003e00a090200081
:102430000b0037000000e0000f00340030002000e7
:10244000100f9800b1c9b3000ff19700814041000f
:1024500060912000e1cf500001003e00209120005b
:10246000ee009000b0487800b06878001040780026
:1024700090409800f30037000000e00005003a00ab
:1024800022fb2f000f014100001978008001eb00b2
:10249000e70037006022b8006033b8000800be00d3
:1024a0000a01be00f00307000000e00001003d004b
:1024b0000bf0a200705927009f9897000088b90080
:1024c000026a2800130020004b0407006406500035
:1024d0009c9f9f0013003b0063061600c0ff2f0067
:1024e000000666008c01ea00939f9f00ad912000da
:1024f0000800be000a01be00070037000c08a30058
:10250000030032003d02be002d03be00dc040700c4
:102510000c86d100e88646000c00e000f7ff3c0086
:10252000180037000c00e00018003200c0ff2f0038
:10253000000666009c9f9f00ad9120006000b800df
:102540000200200003ff2300070037000c08a3004f
:10255000030032003d02be002d03be00c804070088
:102560000c86d100e88646000c00e000f7ff3c0036
:102570000002be000203be000800be000a01be0049
:10258000c30307000004be000205be00de08900081
:1025900060c6b3000ff29700804f52000400320073
:1025a0006000200062c4b300824f520002003a0073
:1025b0009f9a97006a80420081004000f1b79f0017
:1025c00001037800f30f53000200340037012000ac
:1025d000f7b79f0000c3b300c0779f0056fb2f00e2
:1025e0000f0343000e007800a0b79f000607780095
:1025f0003d0037000800be000a01be00710407005c
:102600000006be007fb1970068015100f2b79f003d
:102610004240a9000c003400960407000002be00ee
:102620000203be000800be000a01be000a05070042
:102630006022b80046782d00771924009004070026
:102640000004be000205be00e80047008e00200026
:102650000802be000a03be00b4b79f00c5b79f00c2
:10266000d6b79f00e7b79f000c01be0001047800b9
:102670000c003700a400200005002000c0fd2f0042
:102680000f004000b60107006fa89700ffa8970051
:102690000fb197009fb1970005c3b30005644100d7
:1026a0000001be00e00f5100e08f5900030034002c
:1026b0000e07e900e10f4700eeff3a0088007800be
:1026c0003fb49700cfb497005fb59700efb5970080
:1026d0000200370000c3b300806078000e07e900f5
:1026e000fcff3b00688740007fb397000600e000d6
:1026f000070034006022b8006033b8000800be0054
:102700000a01be005d0307000000e000b9ff3c00c5
:102710000e0378002fb7970051fb2f008f804000e9
:10272000010353009f9b970067804300909f9f0089
:10273000020037000603e9000000e900010178000b
:102740008200780003c3b300b1cf1100f9ff32005b
:10275000909f9f00de09900061c6b3000ff29700c2
:10276000814f52000300320061c4b300814f520018
:1027700002003a000000e8000a00370010002000c4
:1027800051c6b3008ff2970081cf5200050032008e
:102790000540780050c4b2000080fb000000e90052
:1027a0004f00de0083014000868f5100010034009d
:1027b000860178000300e0001d00350000c3b3006f
:1027c000868f510006003d0062c2790069404000da
:1027d00041c3b300814f520001003c0069405000ea
:1027e0008300e90081004100010037008401780086
:1027f0000302e90001037800a142780080cf520073
:10280000faff320091c3b300814f500001003a003b
:10281000054be8000400e00005003d000201e9006e
:102820008301e8001f9b97000603e800969f9f0026
:102830008ff397008700fb001f9a97000e00780027
:10284000060007004f0778004f06be004f05be0088
:102850004f04be002f04b10000000600f0874700bf
:10286000889fbe008a9fbe008c9fbe008e1f78008e
:1028700000047800814478000205be000406780058
:102880000b00e00002003c001b0020002a98200002
:1028900060c6b30080cf54000e00320060c4b300a5
:1028a00080cf54000b00320070c6b30080cf5400bc
:1028b0000300320070c4b30080cf540081003a009e
:1028c000e40f46007f00350058089000800f560046
:1028d0007c003d000c06e80060c6b30080cf5400c9
:1028e0001000320060c4b30080cf54000d003200ed
:1028f000081090000038a30004003a005808900027
:10290000808f550001003d005b0c98005808900036
:102910000c005000500c980002003b000000eb003f
:10292000500c980018089000e80090000c00e0009f
:1029300026003c0002c3b300827078000000e8006b
:10294000100c9800d80890000100e00003003c0043
:10295000881090000138a30005003200e8009000c4
:10296000e2c2b300827078000000e800100c98000a
:10297000580890008c00ea00810f500001003d00d3
:102980000006ea008c00ea00210c980000064600d0
:102990005c0c98008b0f5600010034000b06780089
:1029a0003c0c9800e800900018089000008040005f
:1029b0000c0178008a00780085fc07005808900018
:1029c0000c0650004c0c9800900037008c8f55007e
:1029d00018003d00008040000b0178008a0078005c
:1029e0007bfc07001808900000804500100c980040
:1029f0008b0556002b0c9800d80890000100e000d1
:102a000003003c00881090000138a300060032004b
:102a1000e8009000e2c2b3008270780038089000ad
:102a20000000e800300c980058089000400c980016
:102a300076003700008040000c0178008a007800a2
:102a400063fc07001808900000004600100c980076
:102a50008c855500d80890000100e00003003c0080
:102a6000881090000138a30005003200e8009000b3
:102a7000e2c2b300827078000000e800100c9800f9
:102a800058089000808f55000100340080057800c0
:102a9000e800900018089000008040008c0045007d
:102aa0000b0178004afc0700180890000b0040005a
:102ab000100c9800580890008b0550002b0c9800c3
:102ac0005200370018089000e80090009a707800d3
:102ad0000000e800100c9800d80890000100e00009
:102ae00003003c00881090000138a300050032006c
:102af000e8009000e2c2b300827078000000e800b5
:102b0000100c9800580890000000e00010003400fd
:102b10008b05e900808f55000100340080057800a6
:102b2000e800900018089000008040008a00e8004b
:102b30000b01780026fc0700180890000b004000ed
:102b4000100c9800580890008b0550002b0c980032
:102b5000e8009000180890000080400009587800b4
:102b60000007e8000c00e00004003500b1c2b3002b
:102b7000014878008e04780004003700d1c2b30009
:102b8000014878008e0478000c06ea007d85570025
:102b90008006eb0009003700a20020008c007800be
:102ba00072805700310007007fb097008fb8970000
:102bb000016d7800000678008d06e8000c00e0004a
:102bc000f5ff3c000d00e00009003a008e0478009b
:102bd00000c3b300805c7800050037008d06e90073
:102be000fc80570061c07e0002c3b300825c4000dd
:102bf0000d00e000f9ff3c00e8009000180890008c
:102c00000080400080845400390c98000810900027
:102c100074006000f00f50000e003a009808900019
:102c20007800900000804000a8089000010040005b
:102c3000b808900001004000c80890000100400062
:102c4000f8089000810f500002003d000080500005
:102c5000000c98004f0778004f06be004f05be00dd
:102c60004f04be000f01b100000006008002780092
:102c700001037800110009000203d80080017800e8
:102c8000830a78000299b900020153009202980069
:102c900005007800000006000000e0002f00320070
:102ca000c0017800e38f51002c0036000308a30018
:102cb0002a003a00f14b80000100e00002003200df
:102cc000810f50000400310011009800f04b880083
:102cd0001600370082007800110190000200e00029
:102ce00002003200800f5100faff39001102780013
:102cf00084824000850f500018003900808f5200f8
:102d000003003a0083084200010078000700370002
:102d10000200e0000300320083014000830f5100f5
:102d20000e0039001200980090009800900090006a
:102d30000100e0000900320010014000828f5000c5
:102d400006003a00c29720000009eb00100178004d
:102d50001108410091009000110098000000060049
:102d6000881f78008a9fbe008c9fbe0000047800f8
:102d70000205be000406be000401be000a00be003b
:102d80001d020700008cbe000c01be0044030700ba
:102d90000005550081855d002a0498003b049800d9
:102da000080078004f06be004f05be004f047800b3
:102db00000000600889fbe0000047800e14b800000
:102dc0000100e00002003200010078000d00370031
:102dd000f14b8000e097200004003700910f540071
:102de000250036000180e800910090000100e0001d
:102df000faff3a0010003700920f54001e00360010
:102e00000280e800100178000200e000faff3a00ba
:102e100011017800f14b8000e0972000040037009a
:102e2000910f5400140036000180e80091009000da
:102e3000828f5000faff3a00294c8000888f54009e
:102e40000100310088047800090078004200070082
:102e50000000e00004003a00888f540005003200b2
:102e60008904d100f5ff3700091878008aff0700b0
:102e7000d2ff37000000eb004f04be000000060048
:102e8000881f7800630440000800a1008000eb0068
:102e9000800f540021003600e30f540001003e0073
:102ea0004800200008007800c2ff07008000eb0007
:102eb0000000e000190032009000780091017800d5
:102ec00064815100880f510003003100110190000e
:102ed00002087800070037000881400002087800e7
:102ee000910190001301980010017800110914005d
:102ef00088087800100178000000eb000200e00074
:102f000004003200920190000300e0000100320052
:102f10000280e800e04b88008180e8000100780032
:102f20004f04780000000600020037000304e000b0
:102f3000060032000001780002007800b0417800fd
:102f400081cf5100f9ff3a00010037000001eb008a
:102f50000200780000000600800078000000eb000e
:102f60000100e0000500340001007800f8f80700d7
:102f7000e10f400001003a000000eb0000000600f5
:102f8000889fbe0000047800e68440001900d0004d
:102f90004500de00f27f2000820f500010003a0052
:102fa000000ceb00990478006f8164002000200081
:102fb0001b003a00210190000200e00018003a00d6
:102fc000110190000200e00015003a0010002000fe
:102fd0001100e00012003200200020001000370035
:102fe0000000e00004003a0001007800cc00070077
:102ff0000000e00008003c00f20028001901610018
:1030000001fe2300810c710021c02f00010c400043
:103010000080eb0002003700000ceb000000eb002a
:103020004f04be00000006000400fa00889fbe00a6
:103030008a9fbe008c1f780000047800010678008b
:10304000f80d9000780090008085550008089000e9
:10305000808555001808900080855500280890004c
:1030600080855500380890008085550048089000fc
:10307000808555000002220090bf9f0000032300be
:10308000a0bf9f00081090000028a30015003a0080
:103090000b00e000130034000b0578008a04780070
:1030a000e20f55000100360029002000c801900001
:1030b00009017800ee8057005800900003000100dd
:1030c000500498000000e0008c0032006808900076
:1030d00009004000600c9800090555004240a90015
:1030e000eeff3c00780190000200e0000c0034008c
:1030f000c80190008c007800580090000300010087
:10310000500498008080eb000000e0007c0032005a
:10311000e80890007800900000804000600c980063
:10312000880c90000900e0001100340009057800c7
:10313000e28f5400010036002a002000c8019000f0
:103140000a017800ec80570058009000030001004d
:10315000500498000000e000680032006808900009
:103160000a004000600c98008a845400edff37008c
:10317000180990000200e0000c003400c801900023
:10318000e8009000580090000300010050049800ef
:103190008080eb000000e00059003200e808900059
:1031a0001808900000804000600c9800a80c900067
:1031b0000900e0001100340009057800e28f540096
:1031c000010036002a002000c80190000a017800a2
:1031d000ec80570058009000030001005004980054
:1031e0000000e00045003200680890000a0040003e
:1031f000600c98008a845400edff37003809900075
:103200000200e0000e003400e80090001808900072
:1032100080804000c8019000580090000300010029
:10322000500498008080eb000000e0003400320081
:10323000e80890003808900000804000600c98007a
:10324000c80c90000900e000110034000905780066
:10325000e28f5400010036002a002000c8019000cf
:103260000a017800ec80570058009000030001002c
:10327000500498000000e000200032006808900030
:103280000a004000600c98008a845400edff37006b
:10329000081090008000eb000028a3001800320006
:1032a0000b00e000160034008b047800090578005c
:1032b000e28f5400010036002a002000c80190006f
:1032c0000a017800ee8057005800900003000100ca
:1032d000500498000000e0000800320068089000e8
:1032e0000a004000600c98008a8454004240a90003
:1032f000eeff3c008000eb00010037008080eb0017
:10330000010078004f0678004f05be004f04be0054
:103310000080fa00000006000108780000000600a6
:10332000e6004000110178000500280085026100d8
:103330006f01610082087800020032001200200054
:1033400011003700a0019000120020000300e000ef
:103350000d003a00900190000300e0000a003a00de
:103360001000e00008003a00360037006403400017
:103370009608780080017800530b78009009780057
:103380000408780070015100110278000400e00088
:10339000f6ff320013003700640240001403780087
:1033a0004f33de0083814100830873008001780081
:1033b000d3037800cf3bde001403780006034300fc
:1033c000068a73001302780004024200100378009a
:1033d0004f33de00860972009001780003884100b7
:1033e0000201e90091017800ef8f5100eaff3600f9
:1033f0001000370080017800530378004f33dd0060
:103400001002d100040873006402400094037800a5
:10341000cf3bdd001303d1008689730011037800d0
:103420004f33dd009401d100030a73009108d100ed
:103430000201e80091017800ff8f5100edff3e008e
:10344000ef88610091887200020078000000060099
:1034500000c0da000000060000c0da00000006002c
:1034600000c0da00000006008f1fd1001002070024
:103470008f87e9000000e00000000600809feb005d
:103480000b0207008f87e9000000e0000000060043
:103490002800fa00889fbe008a9fbe008c9fbe0055
:1034a00003866b008f0007006400e10044003200d7
:1034b0006408e1004a0032006100e1004600320089
:1034c0006108e10049003200ec0647006000b800e6
:1034d0003d02be003d03be00f48657006011b800f7
:1034e0003d04be003d05be007d0320000b003700fb
:1034f0000000a0008d06e900130032000402420023
:1035000085824a0006034b0087834b000000400081
:10351000818048000201490083814900080252006d
:1035200089825a000a035b008b835b00f0ff3b003b
:103530000802420089824a000a034b008b834b0039
:103540008d06e900edff3a008482720086827200e7
:10355000f707b200878272000100320015002000d8
:103560001e0490003e0b900006035400e63fb0009e
:103570000368a300070032000000a7000500a000b8
:103580008301d1000281d3008180d3000080d30069
:103590000603e8008301d1000281d3008180d300bb
:1035a0000080d3000002eb000482d200210007005b
:1035b00003f0a1000cf0a70003f0a0005d003700ad
:1035c000640247006408e100570032003400be0086
:1035d0003401be00f6ff37006108e10052003200fe
:1035e0006011b8006000b800f1ff370003ff27004a
:1035f00002002000fbff3700839f68000100e0000d
:1036000002003d0060001000e08018000300e000b0
:1036100002003d0060011100e08119001001070067
:103620004f00e00002003b0060001000e080180046
:103630000000060018002000570020000804530076
:103640000d003d000600200097fc2f000740e10020
:103650001e00340084827200610260008301d10088
:103660000281d3008180d3000080d3000804e800e9
:10367000f8ff3a0047002000610460000504740070
:10368000040464000d00320061004000e080480046
:1036900060014900e081490003b8a500070032003d
:1036a0000603e8006538e10004003a008301d10018
:1036b0000281d3008180d3000080d300f87f2000f6
:1036c0000830e10003003500080378006000b8000e
:1036d0006011b8004433dd00f300b20083017300d1
:1036e00000000600680447000294be000094be007b
:1036f000fc0447008694be008494be000900780054
:10370000b401070008007800b201070099007800b2
:10371000814f70000b003b000800be008d010700c8
:103720004f00b10003003700f3ff2700f2ff2f0026
:103730006110b9004f06be004f05be004f04be0029
:103740000080fa00000006008103780097f8070067
:103750000001be006000b8000478a30013003a0026
:103760006220e10015003e000d0039008301d10008
:103770000281d3008180d3008301d1000281d30074
:103780008180d3008301d1000281d3008180d300e6
:103790000538b000c42add00f300b2008381720056
:1037a00007f0a70003f0a00000000600f3ff2700c9
:1037b000f2ff2f006110b900fbff370003ff270065
:1037c000f7ff37001400fa00889fbe008a9fbe00f2
:1037d0008c9fbe000004be000205be0068004700ca
:1037e0000a90be000890be007a0107000070a70092
:1037f0000bf0a100304320009e0290008082520016
:10380000b0fe2f000028e10011003d00b0fc2f00a9
:103810000028e100150034001e0990008e08900079
:103820007e0090000501b0000201d1008180d3002c
:103830000080d3008502e800fbff3a000b00e000a7
:10384000bcff3b0060001000e0801800b9ff3700ab
:10385000f0ff2f00f1ff27000b00e000b5ff3b0059
:103860000100280000002000b2ff37006000b8000f
:10387000b0ff37004f89de00820178007c013700fd
:103880002800fa00889fbe008a9fbe008c9fbe0061
:1038900003866b0093ff07000028a30064003a0032
:1038a0000128a30067003a000008a30062003a0064
:1038b0000108a30065003a001e009000be089000b9
:1038c00081064000ed3fb100f4805700ee0190000a
:1038d000111ab8008e099000311bb8009e099000a3
:1038e000311cb800511db800f48557004600070090
:1038f000fe0190003a0007008b85e8003e000700bb
:103900008e09900040000700ee019000340007008f
:103910008b85e800380007008e0990004000070002
:103920009e0990001b18b800890440000a854800d1
:10393000fe019000340007008b85e8003800070086
:10394000ee019000300007008e0990001b18b800af
:10395000890440000a8548000a98a30008003a003c
:103960000402420085824a0006034b0087834b0015
:1039700008044c0089844c000a054d008d06e900be
:1039800084827200850273004c3add008502720069
:103990000100320015002000443ade001400b2009d
:1039a0004538de00cb45dd000b007000c540de0071
:1039b000cb4ddd008b8070004549de00cb55dd002e
:1039c0000b017100c551de000d03780019ff0700df
:1039d00003f0a1000cf0a70003f0a00055ff370092
:1039e0001b18b8008502400006834800e0834b00a6
:1039f00060044c00070037001b18b80006034000a5
:103a000087834800faff37001b18b800870340007f
:103a100008844800e0844c0060054d00000006006a
:103a20001b18b8000804400089844800faff3700da
:103a30000108a3003cff3a005800be005801be0038
:103a4000e3ff37000008a30037ff3a0009047800bd
:103a5000f9ff37000000000007f0a2001600370051
:103a60006022b800060220000000d0008180d20051
:103a70000482d2008582d2000000a000020252001f
:103a800083825a00030031000202420083824a000e
:103a90000000a1000603e900f3ff3a000000060061
:103aa000020ab900001bb9000200b8008100420000
:103ab00081004300000006002800fa00889fbe0035
:103ac0008a9fbe008c9fbe0007067800878669002b
:103ad0000c003b00030478008704780008f0a10084
:103ae00009f0a100840f5000858f5800860f5900ff
:103af000890f5c00030033000cf0a20001003a00c3
:103b00000cf0a100f7fe07006400e1005f00320046
:103b1000780147006408e100610032006c01470051
:103b2000748557003200be001201be003a04be0088
:103b30001a05be001e039000be0a900085035300c4
:103b400006003d000004fd008104fd000205fd00ab
:103b50008305fd008703ea00050378000df8a30044
:103b60000400320060041400e0841c0060051d00a5
:103b7000e0851d006022b8007d0320000d38e100c3
:103b80008006eb000b0039004433dd00f300b20087
:103b90008301730039003700848272000d027800bf
:103ba000e10664008b85d1000a85d3008984d300a7
:103bb0000884d3008703e900f7ff3b0008004000ba
:103bc000898048000a0149008b81490004003b00bc
:103bd00060001000e080180060011900e081190009
:103be0000358a300090032008d82720084827200a3
:103bf000610260008301d1000281d3008180d30083
:103c00000080d3000603e8001b0037000348a30030
:103c100017003a000600e000170034000603e90030
:103c20000d00a30000004800818048000201490007
:103c3000838149000348a3000f003a000600e0001a
:103c4000090034000603e9000000400081804800bc
:103c5000020149008381490001003a000003eb00a2
:103c60000348a300f5ff32006022b80002003700cd
:103c700084827200618266006efe070003f0a1007c
:103c80000cf0a70003f0a000aafe37006401470073
:103c90006408e10002003a000df8a300a2fe3a0019
:103ca0003200be001201be00a2fe3700000000007c
:103cb000889fbe008a9fbe008c9fbe000404be0089
:103cc0000605be00809fbe00829fbe002f00070039
:103cd000040678000800be000a01be002b000700a1
:103ce000840678004f03be004f02be008d4f760061
:103cf0007fb0970013003300f0ff2f008b8f6b0015
:103d000006003b000d0666000c00a7000a00370005
:103d100007f0a600100020000a003700880f5200ac
:103d2000898f5a008a0f5b008b8f5b00030039007c
:103d30001000200001003e000000200007f0a70056
:103d40000000ea004f06be004f05be004f04be0053
:103d500000000600e48240001078a3000700320053
:103d6000640240001178a3003400be001401be00bc
:103d7000040032000330a700000006003500be003a
:103d80001501be000330a0000000060005ff27005b
:103d900005826100070032000428e10001003200c2
:103da000240005000600070001003a004400050059
:103db0000408050002000700f9ff3a00140005009e
:103dc0006f826100810270008502710085027200bd
:103dd00000000600800078005002be005003be00c4
:103de0004439de00f700b200f37f200003016100d8
:103df000090032000218e10016003a008501720045
:103e000083017300838173000008200015003a00cd
:103e10004000200013003700850172008301730009
:103e20008381730005003a0004a8be0006a8be0006
:103e3000100020000b0037000201e90004024200dc
:103e400085824a0006034b0087834b000748a30086
:103e5000f9ff32000740a00004a8be0006a8be007b
:103e600020002000800098009200980000000600ca
:103e7000881f7800030478000300e00007003d007d
:103e800060001000e080180060011900e081190056
:103e900002003b0001f02d00030037000400070082
:103ea00008f0a70003f0a0004f047800000006000f
:103eb000889fbe00008270000402710004827100bd
:103ec0002400320036432000c50020008383cf0049
:103ed0000a0039000541b1008283cf000700390094
:103ee0000541b1008183cf00040039000541b100d4
:103ef0008083cf00010039000541b10085c3530024
:103f00006022b800120032000a003b008482720076
:103f1000610260008301d1000281d3008180d3005f
:103f20000080d3000603e8008743e800f7ff3a006b
:103f3000070037000000400081804800020149006e
:103f4000838149000603e9008743e900f9ff3a004d
:0c3f5000b8fd07004f04be000000060092
:020000040000fa
:103f5c0000000000803f0000000000000000000096
:103f6c00000000000000000000000000803f000086
:103f7c000000000000000000000000000000000035
:103f8c00252e000032660000092500002e320000ac
:103f9c0066090000252e000032660000092500008d
:0c3fac002e320000660a00000000000039
:020000040000fa
:103fb8000400fa00204798000000eb00000f78008a
:103fc8005ac8bf000004e0000c003a00ae40900060
:103fd800d0cbb30080cf500004003a005ac8bf00cd
:103fe8000040e8005ae8b700980037005a68ef0028
:103ff800a00f2000000f7800940037005ac8bf00b7
:10400800e14f500011003a00ae40900000c4b300e8
:1040180080cf500009003a002e4090008080fb00bd
:10402800e042800000804000e04288005ac8bf009b
:104038000040e8005ae8b700840037005a68ef00eb
:10404800a00f2000000f7800800037005ac8bf007a
:10405800e24f50000f003a002e4090008080fb0095
:10406800e042800000804000e04288002e4090003e
:104078000080fb004800dd00cf80de001040880093
:10408800214088005ac8bf000040e8005ae8b7003d
:104098006e0037005ac8bf00e34f500020003a00b6
:1040a8002e4090008080fb00e042800000804000ad
:1040b800e04288002e4090000081fb008001eb0068
:1040c8001040800021408000000071008180710054
:1040d8001040880021408800104080002140800066
:1040e800a20920000289b900020178006002b90023
:1040f8008401780003014100a30920000300b800ef
:1041080001014100820078001040880021408800a9
:104118005ac8bf000040e8005ae8b7004b00370013
:104128005ac8bf00e44f50000f003a002e409000dc
:104138008080fb00e042800000804000e042880070
:104148002e4090000080fb004800dd00cf80de009c
:1041580030408800414088005ac8bf000040e8004d
:104168005ae8b700390037005ac8bf00e54f500079
:1041780020003a002e4090008080fb00e042800042
:1041880000804000e04288002e4090000081fb0043
:104198008001eb0030408000414080000000710049
:1041a80081807100304088004140880030408000a4
:1041b80041408000a20920000289b900020178006c
:1041c8006002b9008401780003014100a3092000be
:1041d8000300b800010141008200780030408800e7
:1041e800414088005ac8bf000040e8005ae8b700bc
:1041f800160037005ac8bf00e64f500013003a00b7
:10420800e04280000080ea00e0428800e14280004d
:10421800f00f200000806000e04288002e409000ef
:104228008080fb00e0428000808f500003003a004d
:10423800c00a2000000f780002003700a00f2000fd
:10424800000f78005c28ef005a68ef001e00780025
:104258000080fa00000006000200fa00004f780013
:104268001e80fb0020118800000000001111800052
:1042780000102000008060000000e000fbff32001a
:104288000080fa00000006000000fa006009200023
:10429800303a8800213a800000fe2f00008060003c
:1042a8005000b300203a8800213a8000f0f32f0034
:1042b80000806000203a88004827ef0012002000a4
:1042c80080072000a109200033742000804978006d
:1042d800814978008249780012002000600420009b
:1042e80071052000237420008049780081497800f6
:1042f8008249780000000000113a80000000270081
:104308008080600000002100808f5000faff3a0092
:1043180000000000113a80000002200000806000c8
:104328000000e000fbff32000080fa0000000600f9
:104338000000fa00113a8000f00b200000816000b4
:104348006004200071052000237420008049780053
:1043580081497800824978002135800000fe2f00cd
:10436800008060006000b30020358800213680009e
:10437800f00f2e00808060000030200001007000e7
:1043880020368800103a8000000178000260a00002
:104398006004200071052000237420008049780003
:1043a80081497800824978002002a9000111800023
:1043b80090ff2f0000806000001188002062a80094
:1043c8002082a900600520004011880023a2a900ce
:1043d80023e2a9009560a8009580a80021e2a80022
:1043e8002342a8000080fa00000006000000fa003e
:1043f800113a8000f00b200000816000600420006a
:1044080071052000237420008049780081497800d4
:1044180082497800e134800000fe2f0000806000af
:104428000030a000e0348800e1348000f00f2e0056
:10443800808060000090200001007000e034880057
:104448000135800000fe2f0000806000b000b3003e
:104458000035880001358000f00f2e008080600054
:1044680000a020000100700000358800103a80008c
:10447800000178000260a00060042000710520009f
:1044880023742000804978008149780082497800a7
:10449800010f8000f08f2f0000806000000f88005f
:1044a800e0c1a900010f8000f08f2f00808060001c
:1044b8000050200001007000000f8800810f80006c
:1044c800f08f2f0000806000800f8800f0c1a900e5
:1044d800810f8000f08f2f00808060000050200046
:1044e80001007000800f8800113a8000f00b200056
:1044f8000081600060042000710520002374200002
:10450800804978008149780082497800110f80003d
:10451800f0f82f0000806000100f8800e2e1a8008a
:10452800910f8000f0f82f0000806000900f880045
:10453800f2e1a800103a8000000178000260a000b3
:104548006004200071052000237420008049780051
:1045580081497800824978000080fa00000006004e
:104568000000fa0021088000f0fc2f0000806000a5
:104578000040a0002008880000352c0010088800a2
:104588009460a80021058000f0ff2800808060006a
:104598000000250001007000200588000080fa0056
:1045a800000006000200fa000000eb00000f78008f
:1045b80002003700000000001e0fe800301f200036
:1045c8009e007800808f5000faff36000080fa00c5
:1045d800000006000800fa0020079800310798003c
:1045e8006000b800008fbe00050037000000000022
:1045f80012002000030020001e0f41005e974900b2
:104608002e009000be0090001e01be00800f5100d9
:10461800818f5900f5ff39000080fa00000006007c
:104628000000fa0081088000f0fc2f000080600084
:104638000040a000800888000071220060088800ff
:10464800210c800080ff2f0000806000200c880073
:104658008461a900210c800080ff2f000080600089
:104668006000b300200c8800113a8000f00b200095
:104678000081600060042000710520002374200080
:104688008049780081497800824978007136800035
:10469800f00f2e00808060000020210001007000d3
:1046a80070368800103a8000000178000260a0008f
:1046b80060042000710520002374200080497800e0
:1046c800814978008249780091088000f0fc2f0029
:1046d800008060000040a00090088800007122005f
:1046e80070088800510c800080ff2f000080600057
:1046f800500c88008a61a800510c800080ff2f00b0
:10470800008060006000b300500c8800113a8000ff
:10471800f00b20000081600060042000710520007b
:104728002374200080497800814978008249780004
:104738007136800000fe2f00008060003001b30059
:1047480070368800103a8000000178000260a000ee
:10475800600420007105200023742000804978003f
:1047680081497800824978000080fa00000006003c
:104778000000fa000080eb006019880000ff2f009d
:104788000016880030fd2000401688000080fa00de
:10479800000006000400fa00008fbe001e0078002a
:1047a80000f0a7000000ea00000c88001e00be0010
:1047b800e00f5000e08f580003003d00c402a8003d
:1047c800c422a900090037001e00be00e00f5000f7
:1047d800e08f580003003400c402a900c422a800d6
:1047e80002003700c402a800c422a8000080fa0012
:1047f800000006000400fa00008fbe001e007800ca
:1048080000f0a7000000ea00300c88001e00be007f
:10481800e00f5000e08f580003003d00cc42a80094
:10482800cc62a900090037001e00be00e00f50004e
:10483800e08f580003003400cc42a900cc62a800e5
:1048480002003700cc42a800cc62a8000080fa0021
:10485800000006000000fa000300370080442f0023
:10486800f1ff2f00cbff070050168000700060009a
:104878000000e000f9ff3a006000b800c5ff07003b
:10488800006a28001100200052ff0700006a280073
:10489800110020004fff0700006a280011002000c7
:1048a8004cff0700006a28001100200049ff07009c
:1048b800006a28001100200046ff0700006a28004f
:1048c8001100200043ff0700006a280011002000a3
:1048d80040ff0700006a2800110020003dff070084
:1048e800006a2800110020003aff0700006a28002b
:1048f8001100200037ff07000300370080442f0015
:10490800f1ff2f00bbff07005116800000082000b0
:10491800008060000000e000f8ff3a006000b80086
:10492800b4ff0700006a28001100200029ff0700d3
:10493800006a28001100200026ff0700006a2800ee
:104948001100200023ff0700006a28001100200042
:1049580020ff0700006a2800110020001dff070043
:10496800006a2800110020001aff0700006a2800ca
:104978001100200017ff0700006a2800110020001e
:1049880014ff0700006a28001100200011ff07002b
:10499800006a2800110020000eff07000080fa00be
:1049a800000006000400fa000600fc001202800065
:1049b800020eb3001202880033fe07000080eb00ed
:1049c8006019880000ff2f000016880030fd2000c5
:1049d80040168800e2fe070011e1a80013e1a800d4
:1049e8000fff07000600fc0013028000f341b2002d
:1049f800130288007dfe070096ff07000600fc00f2
:104a080013028000030eb3001302880048fe07005b
:104a1800e4fe07000600fc0011028000f141b2002c
:104a280011028800006a280011002000e9fe070032
:104a3800006a280011002000e6fe0700006a28002e
:104a480011002000e3fe0700006a28001100200082
:104a5800e0fe0700006a280011002000ddfe0700c4
:104a6800006a280011002000dafe0700006a28000a
:104a780011002000d7fe0700006a2800110020005e
:104a8800d4fe0700006a280011002000d1fe0700ac
:104a9800006a280011002000cefe0700e421ef0084
:104aa800f421ef0005e1a800004080000000e000cc
:104ab800040032000040800000407800e6fd070056
:104ac8000028ef00f0702200010020001e01be0047
:104ad800800f5100818f5900020036006000b80035
:104ae800008fbe0012002000030020001e0f4100ae
:084af8005e974900ecff370056
:020000040000fa
:104b0000000800005e000000000000005e080000d9
:104b100024000000020000000ad723003c0000002f
:104b20003041000000304100cdcc4c003fcdcc00e6
:104b30004c3f000000803f00000080003f666600a0
:104b4000663f660066663f0082080000880000003d
:104b5000020000000100000000a80800a908a80049
:104b600008a80800a808a80008980800000000008d
:104b70000000000000000000000000000000000035
:104b80000000000000000000000208000101d00049
:104b900008d10800d008d00008d00800d008c00014
:104ba00008000000000000000000000000000000fd
:104bb00000000000000000000000000000000200f3
:104bc00008020200f808f90008f80800f808f800e0
:104bd00008f80800e80800000000000000000000dd
:104be00000000000000000000000000000000000c5
:104bf000000000008208aa0008d20800000000009f
:104c0000000000000000000000000000800900001b
:104c10000200000000000000620900001a0000000d
:104c200002000000686a6c00747a4c000000010009
:104c30000002000004000800001000000000200036
:104c40002b2d2300300000000a090000580000004e
:104c5000020000006e616e00004e41004e006900cf
:104c60006e660000494e4600000000000000000093
:104c70000024400000000000000000005940000037
:104c8000000000000088c300400000000000840015
:104c9000d79741000080e0003779c30041431700f7
:104ca0006e05b500b5b8930046f5f9003fe903007d
:104cb0004f384d00321d3000f9487700825a3c00d1
:104cc000bf737f00dd4f15007500000082090000f2
:104cd0000200000002000000300000008409000013
:104ce0000200000002000000040000007c09000037
:104cf000040000000000000086090000020000001f
:104d0000020000000100000088090000020000000d
:084d100000000000000000009b
:020000040000fa
:0200000401f009
:04000000ffff0000fe
:020000040000fa
:0200000401f009
:04000400ffff0000fa
:020000040000fa
:0200000401f009
:04000800ffff0000f6
:020000040000fa
:0200000401f009
:04000c008700000069
:020000040000fa
:0200000401f009
:0400100003000000e9
:020000040000fa
:0200000401f009
:040014005f00000089
:020000040000fa
:0200000401f009
:04001800f7000000ed
:020000040000fa
:0200000401f009
:04001c00dfff000002
:00000001FF
